{
  "_format": "hh-sol-artifact-1",
  "contractName": "ELT",
  "sourceName": "contracts/ELT.sol",
  "abi": [
    {
      "inputs": [],
      "stateMutability": "nonpayable",
      "type": "constructor"
    },
    {
      "anonymous": false,
      "inputs": [
        {
          "indexed": true,
          "internalType": "address",
          "name": "owner",
          "type": "address"
        },
        {
          "indexed": true,
          "internalType": "address",
          "name": "spender",
          "type": "address"
        },
        {
          "indexed": false,
          "internalType": "uint256",
          "name": "value",
          "type": "uint256"
        }
      ],
      "name": "Approval",
      "type": "event"
    },
    {
      "anonymous": false,
      "inputs": [
        {
          "indexed": false,
          "internalType": "uint256",
          "name": "blockNumber",
          "type": "uint256"
        },
        {
          "indexed": false,
          "internalType": "uint256",
          "name": "assetPrice",
          "type": "uint256"
        }
      ],
      "name": "CachedAssetPrice",
      "type": "event"
    },
    {
      "anonymous": false,
      "inputs": [
        {
          "indexed": true,
          "internalType": "address",
          "name": "caller",
          "type": "address"
        },
        {
          "indexed": true,
          "internalType": "address",
          "name": "owner",
          "type": "address"
        },
        {
          "indexed": false,
          "internalType": "uint256",
          "name": "assets",
          "type": "uint256"
        },
        {
          "indexed": false,
          "internalType": "uint256",
          "name": "shares",
          "type": "uint256"
        }
      ],
      "name": "Deposit",
      "type": "event"
    },
    {
      "anonymous": false,
      "inputs": [
        {
          "indexed": false,
          "internalType": "address",
          "name": "priceOracle",
          "type": "address"
        }
      ],
      "name": "PriceOracleChanged",
      "type": "event"
    },
    {
      "anonymous": false,
      "inputs": [
        {
          "indexed": true,
          "internalType": "bytes32",
          "name": "role",
          "type": "bytes32"
        },
        {
          "indexed": true,
          "internalType": "bytes32",
          "name": "previousAdminRole",
          "type": "bytes32"
        },
        {
          "indexed": true,
          "internalType": "bytes32",
          "name": "newAdminRole",
          "type": "bytes32"
        }
      ],
      "name": "RoleAdminChanged",
      "type": "event"
    },
    {
      "anonymous": false,
      "inputs": [
        {
          "indexed": true,
          "internalType": "bytes32",
          "name": "role",
          "type": "bytes32"
        },
        {
          "indexed": true,
          "internalType": "address",
          "name": "account",
          "type": "address"
        },
        {
          "indexed": true,
          "internalType": "address",
          "name": "sender",
          "type": "address"
        }
      ],
      "name": "RoleGranted",
      "type": "event"
    },
    {
      "anonymous": false,
      "inputs": [
        {
          "indexed": true,
          "internalType": "bytes32",
          "name": "role",
          "type": "bytes32"
        },
        {
          "indexed": true,
          "internalType": "address",
          "name": "account",
          "type": "address"
        },
        {
          "indexed": true,
          "internalType": "address",
          "name": "sender",
          "type": "address"
        }
      ],
      "name": "RoleRevoked",
      "type": "event"
    },
    {
      "anonymous": false,
      "inputs": [
        {
          "indexed": true,
          "internalType": "address",
          "name": "from",
          "type": "address"
        },
        {
          "indexed": true,
          "internalType": "address",
          "name": "to",
          "type": "address"
        },
        {
          "indexed": false,
          "internalType": "uint256",
          "name": "value",
          "type": "uint256"
        }
      ],
      "name": "Transfer",
      "type": "event"
    },
    {
      "anonymous": false,
      "inputs": [
        {
          "indexed": true,
          "internalType": "address",
          "name": "caller",
          "type": "address"
        },
        {
          "indexed": true,
          "internalType": "address",
          "name": "receiver",
          "type": "address"
        },
        {
          "indexed": true,
          "internalType": "address",
          "name": "owner",
          "type": "address"
        },
        {
          "indexed": false,
          "internalType": "uint256",
          "name": "assets",
          "type": "uint256"
        },
        {
          "indexed": false,
          "internalType": "uint256",
          "name": "shares",
          "type": "uint256"
        },
        {
          "indexed": false,
          "internalType": "uint256",
          "name": "fee",
          "type": "uint256"
        }
      ],
      "name": "Withdraw",
      "type": "event"
    },
    {
      "inputs": [],
      "name": "DEFAULT_ADMIN_ROLE",
      "outputs": [
        {
          "internalType": "bytes32",
          "name": "",
          "type": "bytes32"
        }
      ],
      "stateMutability": "view",
      "type": "function"
    },
    {
      "inputs": [],
      "name": "DEFAULT_DECIMALS",
      "outputs": [
        {
          "internalType": "uint8",
          "name": "",
          "type": "uint8"
        }
      ],
      "stateMutability": "view",
      "type": "function"
    },
    {
      "inputs": [],
      "name": "DEFAULT_DECIMALS_FACTOR",
      "outputs": [
        {
          "internalType": "uint256",
          "name": "",
          "type": "uint256"
        }
      ],
      "stateMutability": "view",
      "type": "function"
    },
    {
      "inputs": [],
      "name": "FEE_DENOMINATOR",
      "outputs": [
        {
          "internalType": "uint256",
          "name": "",
          "type": "uint256"
        }
      ],
      "stateMutability": "view",
      "type": "function"
    },
    {
      "inputs": [],
      "name": "REBALANCER_ROLE",
      "outputs": [
        {
          "internalType": "bytes32",
          "name": "",
          "type": "bytes32"
        }
      ],
      "stateMutability": "view",
      "type": "function"
    },
    {
      "inputs": [],
      "name": "ZUNAMI",
      "outputs": [
        {
          "internalType": "address",
          "name": "",
          "type": "address"
        }
      ],
      "stateMutability": "view",
      "type": "function"
    },
    {
      "inputs": [
        {
          "internalType": "address",
          "name": "owner",
          "type": "address"
        }
      ],
      "name": "_maxWithdrawCached",
      "outputs": [
        {
          "internalType": "uint256",
          "name": "",
          "type": "uint256"
        }
      ],
      "stateMutability": "nonpayable",
      "type": "function"
    },
    {
      "inputs": [
        {
          "internalType": "address",
          "name": "owner",
          "type": "address"
        },
        {
          "internalType": "address",
          "name": "spender",
          "type": "address"
        }
      ],
      "name": "allowance",
      "outputs": [
        {
          "internalType": "uint256",
          "name": "",
          "type": "uint256"
        }
      ],
      "stateMutability": "view",
      "type": "function"
    },
    {
      "inputs": [
        {
          "internalType": "address",
          "name": "owner",
          "type": "address"
        },
        {
          "internalType": "address",
          "name": "spender",
          "type": "address"
        }
      ],
      "name": "allowanceNominal",
      "outputs": [
        {
          "internalType": "uint256",
          "name": "",
          "type": "uint256"
        }
      ],
      "stateMutability": "view",
      "type": "function"
    },
    {
      "inputs": [
        {
          "internalType": "address",
          "name": "spender",
          "type": "address"
        },
        {
          "internalType": "uint256",
          "name": "amount",
          "type": "uint256"
        }
      ],
      "name": "approve",
      "outputs": [
        {
          "internalType": "bool",
          "name": "",
          "type": "bool"
        }
      ],
      "stateMutability": "nonpayable",
      "type": "function"
    },
    {
      "inputs": [],
      "name": "asset",
      "outputs": [
        {
          "internalType": "address",
          "name": "",
          "type": "address"
        }
      ],
      "stateMutability": "view",
      "type": "function"
    },
    {
      "inputs": [],
      "name": "assetPrice",
      "outputs": [
        {
          "internalType": "uint256",
          "name": "",
          "type": "uint256"
        }
      ],
      "stateMutability": "view",
      "type": "function"
    },
    {
      "inputs": [],
      "name": "assetPriceCached",
      "outputs": [
        {
          "internalType": "uint256",
          "name": "",
          "type": "uint256"
        }
      ],
      "stateMutability": "nonpayable",
      "type": "function"
    },
    {
      "inputs": [],
      "name": "assetPriceChahedParams",
      "outputs": [
        {
          "internalType": "uint256",
          "name": "cachedBlock",
          "type": "uint256"
        },
        {
          "internalType": "uint256",
          "name": "cachedAssetPrice",
          "type": "uint256"
        }
      ],
      "stateMutability": "view",
      "type": "function"
    },
    {
      "inputs": [
        {
          "internalType": "address",
          "name": "account",
          "type": "address"
        }
      ],
      "name": "balanceOf",
      "outputs": [
        {
          "internalType": "uint256",
          "name": "",
          "type": "uint256"
        }
      ],
      "stateMutability": "view",
      "type": "function"
    },
    {
      "inputs": [
        {
          "internalType": "address",
          "name": "account",
          "type": "address"
        }
      ],
      "name": "balanceOfNominal",
      "outputs": [
        {
          "internalType": "uint256",
          "name": "",
          "type": "uint256"
        }
      ],
      "stateMutability": "view",
      "type": "function"
    },
    {
      "inputs": [
        {
          "internalType": "uint256",
          "name": "dailyDepositDuration_",
          "type": "uint256"
        },
        {
          "internalType": "uint256",
          "name": "dailyDepositLimit_",
          "type": "uint256"
        }
      ],
      "name": "changeDailyDepositParams",
      "outputs": [],
      "stateMutability": "nonpayable",
      "type": "function"
    },
    {
      "inputs": [
        {
          "internalType": "uint256",
          "name": "dailyWithdrawDuration_",
          "type": "uint256"
        },
        {
          "internalType": "uint256",
          "name": "dailyWithdrawLimit_",
          "type": "uint256"
        }
      ],
      "name": "changeDailyWithdrawParams",
      "outputs": [],
      "stateMutability": "nonpayable",
      "type": "function"
    },
    {
      "inputs": [
        {
          "internalType": "address",
          "name": "feeDistributor_",
          "type": "address"
        }
      ],
      "name": "changeFeeDistributor",
      "outputs": [],
      "stateMutability": "nonpayable",
      "type": "function"
    },
    {
      "inputs": [
        {
          "internalType": "address",
          "name": "priceOracle_",
          "type": "address"
        }
      ],
      "name": "changePriceOracle",
      "outputs": [],
      "stateMutability": "nonpayable",
      "type": "function"
    },
    {
      "inputs": [
        {
          "internalType": "uint256",
          "name": "withdrawFee_",
          "type": "uint256"
        }
      ],
      "name": "changeWithdrawFee",
      "outputs": [],
      "stateMutability": "nonpayable",
      "type": "function"
    },
    {
      "inputs": [
        {
          "internalType": "uint256",
          "name": "value",
          "type": "uint256"
        }
      ],
      "name": "convertToNominal",
      "outputs": [
        {
          "internalType": "uint256",
          "name": "nominal",
          "type": "uint256"
        }
      ],
      "stateMutability": "view",
      "type": "function"
    },
    {
      "inputs": [
        {
          "internalType": "uint256",
          "name": "nominal",
          "type": "uint256"
        }
      ],
      "name": "convertToValue",
      "outputs": [
        {
          "internalType": "uint256",
          "name": "value",
          "type": "uint256"
        }
      ],
      "stateMutability": "view",
      "type": "function"
    },
    {
      "inputs": [],
      "name": "dailyDepositCountingBlock",
      "outputs": [
        {
          "internalType": "uint256",
          "name": "",
          "type": "uint256"
        }
      ],
      "stateMutability": "view",
      "type": "function"
    },
    {
      "inputs": [],
      "name": "dailyDepositDuration",
      "outputs": [
        {
          "internalType": "uint256",
          "name": "",
          "type": "uint256"
        }
      ],
      "stateMutability": "view",
      "type": "function"
    },
    {
      "inputs": [],
      "name": "dailyDepositLimit",
      "outputs": [
        {
          "internalType": "uint256",
          "name": "",
          "type": "uint256"
        }
      ],
      "stateMutability": "view",
      "type": "function"
    },
    {
      "inputs": [],
      "name": "dailyDepositTotal",
      "outputs": [
        {
          "internalType": "uint256",
          "name": "",
          "type": "uint256"
        }
      ],
      "stateMutability": "view",
      "type": "function"
    },
    {
      "inputs": [],
      "name": "dailyWithdrawCountingBlock",
      "outputs": [
        {
          "internalType": "uint256",
          "name": "",
          "type": "uint256"
        }
      ],
      "stateMutability": "view",
      "type": "function"
    },
    {
      "inputs": [],
      "name": "dailyWithdrawDuration",
      "outputs": [
        {
          "internalType": "uint256",
          "name": "",
          "type": "uint256"
        }
      ],
      "stateMutability": "view",
      "type": "function"
    },
    {
      "inputs": [],
      "name": "dailyWithdrawLimit",
      "outputs": [
        {
          "internalType": "uint256",
          "name": "",
          "type": "uint256"
        }
      ],
      "stateMutability": "view",
      "type": "function"
    },
    {
      "inputs": [],
      "name": "dailyWithdrawTotal",
      "outputs": [
        {
          "internalType": "uint256",
          "name": "",
          "type": "uint256"
        }
      ],
      "stateMutability": "view",
      "type": "function"
    },
    {
      "inputs": [],
      "name": "decimals",
      "outputs": [
        {
          "internalType": "uint8",
          "name": "",
          "type": "uint8"
        }
      ],
      "stateMutability": "view",
      "type": "function"
    },
    {
      "inputs": [
        {
          "internalType": "address",
          "name": "spender",
          "type": "address"
        },
        {
          "internalType": "uint256",
          "name": "subtractedValue",
          "type": "uint256"
        }
      ],
      "name": "decreaseAllowance",
      "outputs": [
        {
          "internalType": "bool",
          "name": "",
          "type": "bool"
        }
      ],
      "stateMutability": "nonpayable",
      "type": "function"
    },
    {
      "inputs": [
        {
          "internalType": "uint256",
          "name": "nominal",
          "type": "uint256"
        },
        {
          "internalType": "address",
          "name": "receiver",
          "type": "address"
        }
      ],
      "name": "deposit",
      "outputs": [
        {
          "internalType": "uint256",
          "name": "",
          "type": "uint256"
        }
      ],
      "stateMutability": "nonpayable",
      "type": "function"
    },
    {
      "inputs": [],
      "name": "feeDistributor",
      "outputs": [
        {
          "internalType": "address",
          "name": "",
          "type": "address"
        }
      ],
      "stateMutability": "view",
      "type": "function"
    },
    {
      "inputs": [],
      "name": "feePercent",
      "outputs": [
        {
          "internalType": "uint256",
          "name": "",
          "type": "uint256"
        }
      ],
      "stateMutability": "view",
      "type": "function"
    },
    {
      "inputs": [
        {
          "internalType": "bytes32",
          "name": "role",
          "type": "bytes32"
        }
      ],
      "name": "getRoleAdmin",
      "outputs": [
        {
          "internalType": "bytes32",
          "name": "",
          "type": "bytes32"
        }
      ],
      "stateMutability": "view",
      "type": "function"
    },
    {
      "inputs": [
        {
          "internalType": "bytes32",
          "name": "role",
          "type": "bytes32"
        },
        {
          "internalType": "address",
          "name": "account",
          "type": "address"
        }
      ],
      "name": "grantRole",
      "outputs": [],
      "stateMutability": "nonpayable",
      "type": "function"
    },
    {
      "inputs": [
        {
          "internalType": "bytes32",
          "name": "role",
          "type": "bytes32"
        },
        {
          "internalType": "address",
          "name": "account",
          "type": "address"
        }
      ],
      "name": "hasRole",
      "outputs": [
        {
          "internalType": "bool",
          "name": "",
          "type": "bool"
        }
      ],
      "stateMutability": "view",
      "type": "function"
    },
    {
      "inputs": [
        {
          "internalType": "address",
          "name": "spender",
          "type": "address"
        },
        {
          "internalType": "uint256",
          "name": "addedValue",
          "type": "uint256"
        }
      ],
      "name": "increaseAllowance",
      "outputs": [
        {
          "internalType": "bool",
          "name": "",
          "type": "bool"
        }
      ],
      "stateMutability": "nonpayable",
      "type": "function"
    },
    {
      "inputs": [
        {
          "internalType": "address",
          "name": "",
          "type": "address"
        }
      ],
      "name": "maxDeposit",
      "outputs": [
        {
          "internalType": "uint256",
          "name": "",
          "type": "uint256"
        }
      ],
      "stateMutability": "view",
      "type": "function"
    },
    {
      "inputs": [
        {
          "internalType": "address",
          "name": "owner",
          "type": "address"
        }
      ],
      "name": "maxWithdraw",
      "outputs": [
        {
          "internalType": "uint256",
          "name": "",
          "type": "uint256"
        }
      ],
      "stateMutability": "view",
      "type": "function"
    },
    {
      "inputs": [],
      "name": "name",
      "outputs": [
        {
          "internalType": "string",
          "name": "",
          "type": "string"
        }
      ],
      "stateMutability": "view",
      "type": "function"
    },
    {
      "inputs": [
        {
          "internalType": "uint256",
          "name": "nominal",
          "type": "uint256"
        }
      ],
      "name": "previewDeposit",
      "outputs": [
        {
          "internalType": "uint256",
          "name": "",
          "type": "uint256"
        }
      ],
      "stateMutability": "view",
      "type": "function"
    },
    {
      "inputs": [
        {
          "internalType": "uint256",
          "name": "value",
          "type": "uint256"
        }
      ],
      "name": "previewWithdraw",
      "outputs": [
        {
          "internalType": "uint256",
          "name": "",
          "type": "uint256"
        }
      ],
      "stateMutability": "view",
      "type": "function"
    },
    {
      "inputs": [],
      "name": "priceOracle",
      "outputs": [
        {
          "internalType": "contract IAssetPriceOracle",
          "name": "",
          "type": "address"
        }
      ],
      "stateMutability": "view",
      "type": "function"
    },
    {
      "inputs": [
        {
          "internalType": "bytes32",
          "name": "role",
          "type": "bytes32"
        },
        {
          "internalType": "address",
          "name": "account",
          "type": "address"
        }
      ],
      "name": "renounceRole",
      "outputs": [],
      "stateMutability": "nonpayable",
      "type": "function"
    },
    {
      "inputs": [
        {
          "internalType": "bytes32",
          "name": "role",
          "type": "bytes32"
        },
        {
          "internalType": "address",
          "name": "account",
          "type": "address"
        }
      ],
      "name": "revokeRole",
      "outputs": [],
      "stateMutability": "nonpayable",
      "type": "function"
    },
    {
      "inputs": [
        {
          "internalType": "bytes4",
          "name": "interfaceId",
          "type": "bytes4"
        }
      ],
      "name": "supportsInterface",
      "outputs": [
        {
          "internalType": "bool",
          "name": "",
          "type": "bool"
        }
      ],
      "stateMutability": "view",
      "type": "function"
    },
    {
      "inputs": [],
      "name": "symbol",
      "outputs": [
        {
          "internalType": "string",
          "name": "",
          "type": "string"
        }
      ],
      "stateMutability": "view",
      "type": "function"
    },
    {
      "inputs": [],
      "name": "totalAssets",
      "outputs": [
        {
          "internalType": "uint256",
          "name": "",
          "type": "uint256"
        }
      ],
      "stateMutability": "view",
      "type": "function"
    },
    {
      "inputs": [],
      "name": "totalSupply",
      "outputs": [
        {
          "internalType": "uint256",
          "name": "",
          "type": "uint256"
        }
      ],
      "stateMutability": "view",
      "type": "function"
    },
    {
      "inputs": [],
      "name": "totalSupplyNominal",
      "outputs": [
        {
          "internalType": "uint256",
          "name": "",
          "type": "uint256"
        }
      ],
      "stateMutability": "view",
      "type": "function"
    },
    {
      "inputs": [
        {
          "internalType": "address",
          "name": "to",
          "type": "address"
        },
        {
          "internalType": "uint256",
          "name": "amount",
          "type": "uint256"
        }
      ],
      "name": "transfer",
      "outputs": [
        {
          "internalType": "bool",
          "name": "",
          "type": "bool"
        }
      ],
      "stateMutability": "nonpayable",
      "type": "function"
    },
    {
      "inputs": [
        {
          "internalType": "address",
          "name": "from",
          "type": "address"
        },
        {
          "internalType": "address",
          "name": "to",
          "type": "address"
        },
        {
          "internalType": "uint256",
          "name": "amount",
          "type": "uint256"
        }
      ],
      "name": "transferFrom",
      "outputs": [
        {
          "internalType": "bool",
          "name": "",
          "type": "bool"
        }
      ],
      "stateMutability": "nonpayable",
      "type": "function"
    },
    {
      "inputs": [
        {
          "internalType": "uint256",
          "name": "value",
          "type": "uint256"
        },
        {
          "internalType": "address",
          "name": "receiver",
          "type": "address"
        },
        {
          "internalType": "address",
          "name": "owner",
          "type": "address"
        }
      ],
      "name": "withdraw",
      "outputs": [
        {
          "internalType": "uint256",
          "name": "",
          "type": "uint256"
        }
      ],
      "stateMutability": "nonpayable",
      "type": "function"
    },
    {
      "inputs": [
        {
          "internalType": "address",
          "name": "receiver",
          "type": "address"
        },
        {
          "internalType": "address",
          "name": "owner",
          "type": "address"
        }
      ],
      "name": "withdrawAll",
      "outputs": [
        {
          "internalType": "uint256",
          "name": "",
          "type": "uint256"
        }
      ],
      "stateMutability": "nonpayable",
      "type": "function"
    }
  ],
  "bytecode": "0x60a06040523480156200001157600080fd5b50732ffcc661011bec72e1a9524e12060983e74d14ce806040518060400160405280600d81526020016c22b630b9ba34b1902a37b5b2b760991b8152506040518060400160405280600381526020016211531560ea1b81525081600590816200007b919062000568565b5060066200008a828262000568565b5050506001600160a01b0316608052620000a6600033620000e4565b620000d27fccc64574297998b6c3edf6078cc5e01268465ff116954e3af02ff3a70a730f4633620000e4565b620000dd81620000f4565b5062000786565b620000f08282620001ba565b5050565b6000620001018162000244565b6001600160a01b038216620001515760405162461bcd60e51b81526020600482015260116024820152705a65726f207072696365206f7261636c6560781b60448201526064015b60405180910390fd5b601280546001600160a01b0319166001600160a01b0384161790556200017a6000808055600155565b6040516001600160a01b03831681527fb36d86785c7d32b1ad714bb705e00e93eccc37b8cf47549043e61e10908ad2519060200160405180910390a15050565b620001c6828262000253565b620000f05760008281526007602090815260408083206001600160a01b03851684529091529020805460ff19166001179055620002003390565b6001600160a01b0316816001600160a01b0316837f2f8788117e7eff1d82e926ec794901d17c78024a50270940304540a733656f0d60405160405180910390a45050565b62000250813362000280565b50565b60008281526007602090815260408083206001600160a01b038516845290915290205460ff165b92915050565b6200028c828262000253565b620000f057620002b2816001600160a01b031660146200030360201b62000fea1760201c565b620002c883602062000fea62000303821b17811c565b604051602001620002db9291906200065a565b60408051601f198184030181529082905262461bcd60e51b82526200014891600401620006d3565b60606000620003148360026200071e565b6200032190600262000740565b6001600160401b038111156200033b576200033b620004c3565b6040519080825280601f01601f19166020018201604052801562000366576020820181803683370190505b509050600360fc1b8160008151811062000384576200038462000756565b60200101906001600160f81b031916908160001a905350600f60fb1b81600181518110620003b657620003b662000756565b60200101906001600160f81b031916908160001a9053506000620003dc8460026200071e565b620003e990600162000740565b90505b60018111156200046b576f181899199a1a9b1b9c1cb0b131b232b360811b85600f166010811062000421576200042162000756565b1a60f81b8282815181106200043a576200043a62000756565b60200101906001600160f81b031916908160001a90535060049490941c9362000463816200076c565b9050620003ec565b508315620004bc5760405162461bcd60e51b815260206004820181905260248201527f537472696e67733a20686578206c656e67746820696e73756666696369656e74604482015260640162000148565b9392505050565b634e487b7160e01b600052604160045260246000fd5b600181811c90821680620004ee57607f821691505b6020821081036200050f57634e487b7160e01b600052602260045260246000fd5b50919050565b601f8211156200056357600081815260208120601f850160051c810160208610156200053e5750805b601f850160051c820191505b818110156200055f578281556001016200054a565b5050505b505050565b81516001600160401b03811115620005845762000584620004c3565b6200059c81620005958454620004d9565b8462000515565b602080601f831160018114620005d45760008415620005bb5750858301515b600019600386901b1c1916600185901b1785556200055f565b600085815260208120601f198616915b828110156200060557888601518255948401946001909101908401620005e4565b5085821015620006245787850151600019600388901b60f8161c191681555b5050505050600190811b01905550565b60005b838110156200065157818101518382015260200162000637565b50506000910152565b7f416363657373436f6e74726f6c3a206163636f756e74200000000000000000008152600083516200069481601785016020880162000634565b7001034b99036b4b9b9b4b733903937b6329607d1b6017918401918201528351620006c781602884016020880162000634565b01602801949350505050565b6020815260008251806020840152620006f481604085016020870162000634565b601f01601f19169190910160400192915050565b634e487b7160e01b600052601160045260246000fd5b60008160001904831182151516156200073b576200073b62000708565b500290565b808201808211156200027a576200027a62000708565b634e487b7160e01b600052603260045260246000fd5b6000816200077e576200077e62000708565b506000190190565b6080516125ef620007be6000396000818161052a015281816107b4015281816113300152818161185101526119e401526125ef6000f3fe608060405234801561001057600080fd5b50600436106103835760003560e01c806370a08231116101de578063bcf88d191161010f578063d73792a9116100ad578063ea0d5c521161007c578063ea0d5c521461076e578063ef8b30f71461071f578063f12b59c914610776578063f171d3721461078957600080fd5b8063d73792a914610715578063da5739711461071f578063dd62ed3e14610732578063e7aa5f981461074557600080fd5b8063ce96cb77116100e9578063ce96cb77146106d4578063ced9f2fe146106e7578063d24378eb146106fa578063d547741f1461070257600080fd5b8063bcf88d19146106b0578063c5008f46146106c3578063cda9109d146106cb57600080fd5b80639d1abff11161017c578063a893c9be11610156578063a893c9be1461066e578063a9059cbb14610681578063ace687eb14610694578063b460af941461069d57600080fd5b80639d1abff11461064a578063a217fddf14610653578063a457c2d71461065b57600080fd5b80637fd6f15c116101b85780637fd6f15c1461061d578063906f09531461062657806391d148541461062f57806395d89b411461064257600080fd5b806370a08231146105c8578063775728b4146105db57806379750c59146105e457600080fd5b80632ccde94b116102b8578063402d267d11610256578063490b48f811610230578063490b48f81461058557806359be38121461059a578063607258a9146105ad5780636e553f65146105b557600080fd5b8063402d267d14610561578063407b99451461057457806342d0d5171461057c57600080fd5b8063313ce56711610292578063313ce5671461050057806336568abe1461051557806338d52e0f14610528578063395093511461054e57600080fd5b80632ccde94b146104bd5780632e400d59146104d25780632f2ff15d146104ed57600080fd5b806309cae2c81161032557806318160ddd116102ff57806318160ddd1461046c57806323b872dd14610474578063248a9ca3146104875780632630c12f146104aa57600080fd5b806309cae2c81461041b5780630a28a4771461042e5780630d43e8ad1461044157600080fd5b806306ea482d1161036157806306ea482d146103cf57806306fdde03146103d857806308f669cc146103ed578063095ea7b31461040857600080fd5b806301e1d1141461038857806301ffc9a7146103a357806305b941cd146103c6575b600080fd5b61039061079c565b6040519081526020015b60405180910390f35b6103b66103b13660046120eb565b61082c565b604051901515815260200161039a565b61039060115481565b610390600f5481565b6103e0610863565b60405161039a9190612139565b6000546001546040805192835260208301919091520161039a565b6103b6610416366004612188565b6108f5565b6103906104293660046121b2565b61090d565b61039061043c3660046121e5565b610948565b600954610454906001600160a01b031681565b6040516001600160a01b03909116815260200161039a565b610390610975565b6103b66104823660046121fe565b610984565b6103906104953660046121e5565b60009081526007602052604090206001015490565b601254610454906001600160a01b031681565b6104d06104cb36600461223a565b6109b8565b005b610454732ffcc661011bec72e1a9524e12060983e74d14ce81565b6104d06104fb366004612255565b610a75565b60125b60405160ff909116815260200161039a565b6104d0610523366004612255565b610a9f565b7f0000000000000000000000000000000000000000000000000000000000000000610454565b6103b661055c366004612188565b610b1d565b61039061056f36600461223a565b610b3f565b600454610390565b610390600b5481565b61039060008051602061259a83398151915281565b6104d06105a8366004612278565b610b5d565b610390610b8d565b6103906105c3366004612255565b610bfc565b6103906105d636600461223a565b610c77565b610390600a5481565b6103906105f23660046121b2565b6001600160a01b03918216600090815260036020908152604080832093909416825291909152205490565b61039060085481565b610390600e5481565b6103b661063d366004612255565b610c9a565b6103e0610cc5565b61039060105481565b610390600081565b6103b6610669366004612188565b610cd4565b6104d061067c3660046121e5565b610d5a565b6103b661068f366004612188565b610db1565b610390600d5481565b6103906106ab36600461229a565b610dca565b6103906106be3660046121e5565b610e46565b610503601281565b610390600c5481565b6103906106e236600461223a565b610e53565b6103906106f536600461223a565b610e5e565b610390610e82565b6104d0610710366004612255565b610ecc565b610390620f424081565b61039061072d3660046121e5565b610ef1565b6103906107403660046121b2565b610efe565b61039061075336600461223a565b6001600160a01b031660009081526002602052604090205490565b610390610f30565b6104d061078436600461223a565b610f3f565b6104d0610797366004612278565b610fba565b6040516370a0823160e01b81523060048201526000907f00000000000000000000000000000000000000000000000000000000000000006001600160a01b0316906370a0823190602401602060405180830381865afa158015610803573d6000803e3d6000fd5b505050506040513d601f19601f8201168201806040525081019061082791906122d6565b905090565b60006001600160e01b03198216637965db0b60e01b148061085d57506301ffc9a760e01b6001600160e01b03198316145b92915050565b606060058054610872906122ef565b80601f016020809104026020016040519081016040528092919081815260200182805461089e906122ef565b80156108eb5780601f106108c0576101008083540402835291602001916108eb565b820191906000526020600020905b8154815290600101906020018083116108ce57829003601f168201915b5050505050905090565b600033610903818585611186565b5060019392505050565b6001600160a01b038116600090815260026020526040812054600061093184610e5e565b905061094033868684866112ba565b509392505050565b600080610957338460006113b3565b50905061096e610967828561233f565b6001611419565b9392505050565b6000610827600454600061144d565b60003381610993846001611478565b90506109a08683866114a3565b6109ac8686838761151d565b50600195945050505050565b60006109c3816116ed565b6001600160a01b038216610a125760405162461bcd60e51b81526020600482015260116024820152705a65726f207072696365206f7261636c6560781b60448201526064015b60405180910390fd5b601280546001600160a01b0319166001600160a01b03841617905560008080556001556040516001600160a01b03831681527fb36d86785c7d32b1ad714bb705e00e93eccc37b8cf47549043e61e10908ad2519060200160405180910390a15050565b600082815260076020526040902060010154610a90816116ed565b610a9a83836116fa565b505050565b6001600160a01b0381163314610b0f5760405162461bcd60e51b815260206004820152602f60248201527f416363657373436f6e74726f6c3a2063616e206f6e6c792072656e6f756e636560448201526e103937b632b9903337b91039b2b63360891b6064820152608401610a09565b610b198282611780565b5050565b600033610903818585610b3083836117e7565b610b3a9190612352565b611186565b6000610b49611819565b610b5457600061085d565b60001992915050565b6000610b68816116ed565b600a839055600b8290556000600e5582610b83576000610b85565b435b600f55505050565b600080544314610bf557436000908155610ba5610e82565b9050806001541015610bf357600181905560005460408051918252602082018390527f62dab94e09b78e75a0061bc7dc0cb484f20d08688f8a8b242aab2da8bfc148c5910160405180910390a15b505b5060015490565b6000610c0782610b3f565b831115610c565760405162461bcd60e51b815260206004820152601e60248201527f455243343632363a206465706f736974206d6f7265207468616e206d617800006044820152606401610a09565b6000610c6184611833565b9050610c6f33848387611840565b509192915050565b6001600160a01b03811660009081526002602052604081205461085d908261144d565b60009182526007602090815260408084206001600160a01b0393909316845291905290205460ff1690565b606060068054610872906122ef565b60003381610ce282866117e7565b905083811015610d425760405162461bcd60e51b815260206004820152602560248201527f45524332303a2064656372656173656420616c6c6f77616e63652062656c6f77604482015264207a65726f60d81b6064820152608401610a09565b610d4f8286868403611186565b506001949350505050565b6000610d65816116ed565b620f4240821115610dab5760405162461bcd60e51b815260206004820152601060248201526f4269676765722074686174203130302560801b6044820152606401610a09565b50600855565b6000336109038185610dc4866001611478565b8661151d565b6000610dd582610e5e565b841115610e245760405162461bcd60e51b815260206004820152601f60248201527f455243343632363a207769746864726177206d6f7265207468616e206d6178006044820152606401610a09565b6000610e2f856118df565b9050610e3e33858588856112ba565b949350505050565b600061085d826000611419565b600061085d82610c77565b6001600160a01b03811660009081526002602052604081205461085d9060006118ec565b6012546040805163030a011160e21b815290516000926001600160a01b031691630c2804449160048083019260209291908290030181865afa158015610803573d6000803e3d6000fd5b600082815260076020526040902060010154610ee7816116ed565b610a9a8383611780565b600061085d82600061144d565b6001600160a01b03808316600090815260036020908152604080832093851683529290529081205461096e908261144d565b610f3c6012600a612449565b81565b6000610f4a816116ed565b6001600160a01b038216610f975760405162461bcd60e51b81526020600482015260146024820152732d32b937903332b2903234b9ba3934b13aba37b960611b6044820152606401610a09565b50600980546001600160a01b0319166001600160a01b0392909216919091179055565b6000610fc5816116ed565b600c839055600d829055600060105582610fe0576000610fe2565b435b601155505050565b60606000610ff9836002612458565b611004906002612352565b67ffffffffffffffff81111561101c5761101c612477565b6040519080825280601f01601f191660200182016040528015611046576020820181803683370190505b509050600360fc1b816000815181106110615761106161248d565b60200101906001600160f81b031916908160001a905350600f60fb1b816001815181106110905761109061248d565b60200101906001600160f81b031916908160001a90535060006110b4846002612458565b6110bf906001612352565b90505b6001811115611137576f181899199a1a9b1b9c1cb0b131b232b360811b85600f16601081106110f3576110f361248d565b1a60f81b8282815181106111095761110961248d565b60200101906001600160f81b031916908160001a90535060049490941c93611130816124a3565b90506110c2565b50831561096e5760405162461bcd60e51b815260206004820181905260248201527f537472696e67733a20686578206c656e67746820696e73756666696369656e746044820152606401610a09565b6001600160a01b0383166111e85760405162461bcd60e51b8152602060048201526024808201527f45524332303a20617070726f76652066726f6d20746865207a65726f206164646044820152637265737360e01b6064820152608401610a09565b6001600160a01b0382166112495760405162461bcd60e51b815260206004820152602260248201527f45524332303a20617070726f766520746f20746865207a65726f206164647265604482015261737360f01b6064820152608401610a09565b611254816001611478565b6001600160a01b038481166000818152600360209081526040808320948816808452948252918290209490945551848152919290917f8c5be1e5ebec7d5bd14f71427d1e84f3dd0314c0f7b2291e5b200ac8c7c3b92591015b60405180910390a3505050565b6112c7858585858561190b565b826001600160a01b0316856001600160a01b0316146112eb576112eb8386846114a3565b6000806112f98785856113b3565b9092509050611308818461233f565b9250611314828561233f565b935061132081836119d9565b61132b858486611a15565b6113567f00000000000000000000000000000000000000000000000000000000000000008785611b5b565b60408051858152602081018590529081018390526001600160a01b0380871691888216918a16907fbbbdee62287b5bf3bee13cab60a29ad729cf38109bccbd2a986a11c99b8ca7049060600160405180910390a450505050505050565b6008546000908190158015906113de57506113dc60008051602061259a83398151915286610c9a565b155b15611411576008546113f7908490620f42406000611bbe565b60085490915061140e908590620f42406000611bbe565b91505b935093915050565b6000600019830361142d575060001961085d565b61096e61143c6012600a612449565b611444610e82565b85919085611bbe565b60006000198303611461575060001961085d565b61096e61146c610e82565b6114446012600a612449565b6000600019830361148c575060001961085d565b61096e61149b6012600a612449565b611444610b8d565b60006114af84846117e7565b90506000198114611517578181101561150a5760405162461bcd60e51b815260206004820152601d60248201527f45524332303a20696e73756666696369656e7420616c6c6f77616e63650000006044820152606401610a09565b6115178484848403611186565b50505050565b6001600160a01b0384166115815760405162461bcd60e51b815260206004820152602560248201527f45524332303a207472616e736665722066726f6d20746865207a65726f206164604482015264647265737360d81b6064820152608401610a09565b6001600160a01b0383166115e35760405162461bcd60e51b815260206004820152602360248201527f45524332303a207472616e7366657220746f20746865207a65726f206164647260448201526265737360e81b6064820152608401610a09565b6001600160a01b0384166000908152600260205260409020548281101561165b5760405162461bcd60e51b815260206004820152602660248201527f45524332303a207472616e7366657220616d6f756e7420657863656564732062604482015265616c616e636560d01b6064820152608401610a09565b6001600160a01b03808616600090815260026020526040808220868503905591861681529081208054859290611692908490612352565b92505081905550836001600160a01b0316856001600160a01b03167fddf252ad1be2c89b69c2b068fc378daa952ba7f163c4a11628f55a4df523b3ef846040516116de91815260200190565b60405180910390a35050505050565b6116f78133611c1b565b50565b6117048282610c9a565b610b195760008281526007602090815260408083206001600160a01b03851684529091529020805460ff1916600117905561173c3390565b6001600160a01b0316816001600160a01b0316837f2f8788117e7eff1d82e926ec794901d17c78024a50270940304540a733656f0d60405160405180910390a45050565b61178a8282610c9a565b15610b195760008281526007602090815260408083206001600160a01b0385168085529252808320805460ff1916905551339285917ff6391f5c32d9c69d2a47ea670b442974b53935d1edc7fd64eb21e047a839171b9190a45050565b6001600160a01b03808316600090815260036020908152604080832093851683529290529081205461096e90826118ec565b60008061182461079c565b11806108275750506004541590565b600061085d8260006118ec565b61184c84848484611c7f565b6118787f0000000000000000000000000000000000000000000000000000000000000000853084611d46565b611883838284611d7e565b826001600160a01b0316846001600160a01b03167fdcbc1c05240f31ff3ad067ef1ee35ce4997762752e3a095284754544f4c709d784846040516118d1929190918252602082015260400190565b60405180910390a350505050565b600061085d826001611478565b60006000198303611900575060001961085d565b61096e61146c610b8d565b6000600c54118015611932575061193060008051602061259a83398151915286610c9a565b155b156119d257600c546011546119479190612352565b431115611967576000601055600c546011546119639190612352565b6011555b81601060008282546119799190612352565b9091555050600d5460105411156119d25760405162461bcd60e51b815260206004820152601d60248201527f4461696c79207769746864726177206c696d6974206f766572666c6f770000006044820152606401610a09565b5050505050565b8115610b1957610b197f00000000000000000000000000000000000000000000000000000000000000006009546001600160a01b031684611b5b565b6001600160a01b038316611a755760405162461bcd60e51b815260206004820152602160248201527f45524332303a206275726e2066726f6d20746865207a65726f206164647265736044820152607360f81b6064820152608401610a09565b6001600160a01b03831660009081526002602052604090205482811015611ae95760405162461bcd60e51b815260206004820152602260248201527f45524332303a206275726e20616d6f756e7420657863656564732062616c616e604482015261636560f01b6064820152608401610a09565b6001600160a01b0384166000908152600260205260408120848303905560048054859290611b1890849061233f565b90915550506040518281526000906001600160a01b038616907fddf252ad1be2c89b69c2b068fc378daa952ba7f163c4a11628f55a4df523b3ef906020016118d1565b6040516001600160a01b038316602482015260448101829052610a9a90849063a9059cbb60e01b906064015b60408051601f198184030181529190526020810180516001600160e01b03166001600160e01b031990931692909217909152611e56565b600080611bcc868686611f28565b90506001836002811115611be257611be26124ba565b148015611bff575060008480611bfa57611bfa6124d0565b868809115b15611c1257611c0f600182612352565b90505b95945050505050565b611c258282610c9a565b610b1957611c3d816001600160a01b03166014610fea565b611c48836020610fea565b604051602001611c599291906124e6565b60408051601f198184030181529082905262461bcd60e51b8252610a0991600401612139565b6000600a54118015611ca65750611ca460008051602061259a83398151915285610c9a565b155b1561151757600a54600f54611cbb9190612352565b431115611cdb576000600e55600a54600f54611cd79190612352565b600f555b81600e6000828254611ced9190612352565b9091555050600b54600e5411156115175760405162461bcd60e51b815260206004820152601c60248201527f4461696c79206465706f736974206c696d6974206f766572666c6f77000000006044820152606401610a09565b6040516001600160a01b03808516602483015283166044820152606481018290526115179085906323b872dd60e01b90608401611b87565b6001600160a01b038316611dd45760405162461bcd60e51b815260206004820152601f60248201527f45524332303a206d696e7420746f20746865207a65726f2061646472657373006044820152606401610a09565b8160046000828254611de69190612352565b90915550506001600160a01b03831660009081526002602052604081208054849290611e13908490612352565b90915550506040518181526001600160a01b038416906000907fddf252ad1be2c89b69c2b068fc378daa952ba7f163c4a11628f55a4df523b3ef906020016112ad565b6000611eab826040518060400160405280602081526020017f5361666545524332303a206c6f772d6c6576656c2063616c6c206661696c6564815250856001600160a01b0316611fd79092919063ffffffff16565b805190915015610a9a5780806020019051810190611ec9919061255b565b610a9a5760405162461bcd60e51b815260206004820152602a60248201527f5361666545524332303a204552433230206f7065726174696f6e20646964206e6044820152691bdd081cdd58d8d9595960b21b6064820152608401610a09565b6000808060001985870985870292508281108382030391505080600003611f6257838281611f5857611f586124d0565b049250505061096e565b808411611f6e57600080fd5b60008486880960026001871981018816978890046003810283188082028403028082028403028082028403028082028403028082028403029081029092039091026000889003889004909101858311909403939093029303949094049190911702949350505050565b6060610e3e8484600085856001600160a01b0385163b6120395760405162461bcd60e51b815260206004820152601d60248201527f416464726573733a2063616c6c20746f206e6f6e2d636f6e74726163740000006044820152606401610a09565b600080866001600160a01b03168587604051612055919061257d565b60006040518083038185875af1925050503d8060008114612092576040519150601f19603f3d011682016040523d82523d6000602084013e612097565b606091505b50915091506120a78282866120b2565b979650505050505050565b606083156120c157508161096e565b8251156120d15782518084602001fd5b8160405162461bcd60e51b8152600401610a099190612139565b6000602082840312156120fd57600080fd5b81356001600160e01b03198116811461096e57600080fd5b60005b83811015612130578181015183820152602001612118565b50506000910152565b6020815260008251806020840152612158816040850160208701612115565b601f01601f19169190910160400192915050565b80356001600160a01b038116811461218357600080fd5b919050565b6000806040838503121561219b57600080fd5b6121a48361216c565b946020939093013593505050565b600080604083850312156121c557600080fd5b6121ce8361216c565b91506121dc6020840161216c565b90509250929050565b6000602082840312156121f757600080fd5b5035919050565b60008060006060848603121561221357600080fd5b61221c8461216c565b925061222a6020850161216c565b9150604084013590509250925092565b60006020828403121561224c57600080fd5b61096e8261216c565b6000806040838503121561226857600080fd5b823591506121dc6020840161216c565b6000806040838503121561228b57600080fd5b50508035926020909101359150565b6000806000606084860312156122af57600080fd5b833592506122bf6020850161216c565b91506122cd6040850161216c565b90509250925092565b6000602082840312156122e857600080fd5b5051919050565b600181811c9082168061230357607f821691505b60208210810361232357634e487b7160e01b600052602260045260246000fd5b50919050565b634e487b7160e01b600052601160045260246000fd5b8181038181111561085d5761085d612329565b8082018082111561085d5761085d612329565b600181815b808511156123a057816000190482111561238657612386612329565b8085161561239357918102915b93841c939080029061236a565b509250929050565b6000826123b75750600161085d565b816123c45750600061085d565b81600181146123da57600281146123e457612400565b600191505061085d565b60ff8411156123f5576123f5612329565b50506001821b61085d565b5060208310610133831016604e8410600b8410161715612423575081810a61085d565b61242d8383612365565b806000190482111561244157612441612329565b029392505050565b600061096e60ff8416836123a8565b600081600019048311821515161561247257612472612329565b500290565b634e487b7160e01b600052604160045260246000fd5b634e487b7160e01b600052603260045260246000fd5b6000816124b2576124b2612329565b506000190190565b634e487b7160e01b600052602160045260246000fd5b634e487b7160e01b600052601260045260246000fd5b7f416363657373436f6e74726f6c3a206163636f756e742000000000000000000081526000835161251e816017850160208801612115565b7001034b99036b4b9b9b4b733903937b6329607d1b601791840191820152835161254f816028840160208801612115565b01602801949350505050565b60006020828403121561256d57600080fd5b8151801515811461096e57600080fd5b6000825161258f818460208701612115565b919091019291505056feccc64574297998b6c3edf6078cc5e01268465ff116954e3af02ff3a70a730f46a2646970667358221220ef790be3c2cde41fa6902535ed57e42f514e82d783afd5eea9bbd8a3f0231e0d64736f6c63430008100033",
  "linkReferences": {},
  "deployedLinkReferences": {}
}