{
  "_format": "hh-sol-artifact-1",
  "contractName": "ELT",
  "sourceName": "contracts/ELT.sol",
  "abi": [
    {
      "inputs": [],
      "stateMutability": "nonpayable",
      "type": "constructor"
    },
    {
      "anonymous": false,
      "inputs": [
        {
          "indexed": true,
          "internalType": "address",
          "name": "owner",
          "type": "address"
        },
        {
          "indexed": true,
          "internalType": "address",
          "name": "spender",
          "type": "address"
        },
        {
          "indexed": false,
          "internalType": "uint256",
          "name": "value",
          "type": "uint256"
        }
      ],
      "name": "Approval",
      "type": "event"
    },
    {
      "anonymous": false,
      "inputs": [
        {
          "indexed": false,
          "internalType": "uint256",
          "name": "blockNumber",
          "type": "uint256"
        },
        {
          "indexed": false,
          "internalType": "uint256",
          "name": "assetPrice",
          "type": "uint256"
        }
      ],
      "name": "CachedAssetPrice",
      "type": "event"
    },
    {
      "anonymous": false,
      "inputs": [
        {
          "indexed": true,
          "internalType": "address",
          "name": "caller",
          "type": "address"
        },
        {
          "indexed": true,
          "internalType": "address",
          "name": "owner",
          "type": "address"
        },
        {
          "indexed": false,
          "internalType": "uint256",
          "name": "assets",
          "type": "uint256"
        },
        {
          "indexed": false,
          "internalType": "uint256",
          "name": "shares",
          "type": "uint256"
        }
      ],
      "name": "Deposit",
      "type": "event"
    },
    {
      "anonymous": false,
      "inputs": [
        {
          "indexed": true,
          "internalType": "address",
          "name": "previousOwner",
          "type": "address"
        },
        {
          "indexed": true,
          "internalType": "address",
          "name": "newOwner",
          "type": "address"
        }
      ],
      "name": "OwnershipTransferred",
      "type": "event"
    },
    {
      "anonymous": false,
      "inputs": [
        {
          "indexed": true,
          "internalType": "address",
          "name": "from",
          "type": "address"
        },
        {
          "indexed": true,
          "internalType": "address",
          "name": "to",
          "type": "address"
        },
        {
          "indexed": false,
          "internalType": "uint256",
          "name": "value",
          "type": "uint256"
        }
      ],
      "name": "Transfer",
      "type": "event"
    },
    {
      "anonymous": false,
      "inputs": [
        {
          "indexed": true,
          "internalType": "address",
          "name": "caller",
          "type": "address"
        },
        {
          "indexed": true,
          "internalType": "address",
          "name": "receiver",
          "type": "address"
        },
        {
          "indexed": true,
          "internalType": "address",
          "name": "owner",
          "type": "address"
        },
        {
          "indexed": false,
          "internalType": "uint256",
          "name": "assets",
          "type": "uint256"
        },
        {
          "indexed": false,
          "internalType": "uint256",
          "name": "shares",
          "type": "uint256"
        },
        {
          "indexed": false,
          "internalType": "uint256",
          "name": "fee",
          "type": "uint256"
        }
      ],
      "name": "Withdraw",
      "type": "event"
    },
    {
      "inputs": [],
      "name": "DEFAULT_DECIMALS",
      "outputs": [
        {
          "internalType": "uint8",
          "name": "",
          "type": "uint8"
        }
      ],
      "stateMutability": "view",
      "type": "function"
    },
    {
      "inputs": [],
      "name": "DEFAULT_DECIMALS_FACTOR",
      "outputs": [
        {
          "internalType": "uint256",
          "name": "",
          "type": "uint256"
        }
      ],
      "stateMutability": "view",
      "type": "function"
    },
    {
      "inputs": [],
      "name": "FEE_DENOMINATOR",
      "outputs": [
        {
          "internalType": "uint256",
          "name": "",
          "type": "uint256"
        }
      ],
      "stateMutability": "view",
      "type": "function"
    },
    {
      "inputs": [],
      "name": "ZUNAMI",
      "outputs": [
        {
          "internalType": "address",
          "name": "",
          "type": "address"
        }
      ],
      "stateMutability": "view",
      "type": "function"
    },
    {
      "inputs": [
        {
          "internalType": "address",
          "name": "owner",
          "type": "address"
        }
      ],
      "name": "_maxWithdrawCached",
      "outputs": [
        {
          "internalType": "uint256",
          "name": "",
          "type": "uint256"
        }
      ],
      "stateMutability": "nonpayable",
      "type": "function"
    },
    {
      "inputs": [
        {
          "internalType": "address",
          "name": "owner",
          "type": "address"
        },
        {
          "internalType": "address",
          "name": "spender",
          "type": "address"
        }
      ],
      "name": "allowance",
      "outputs": [
        {
          "internalType": "uint256",
          "name": "",
          "type": "uint256"
        }
      ],
      "stateMutability": "view",
      "type": "function"
    },
    {
      "inputs": [
        {
          "internalType": "address",
          "name": "owner",
          "type": "address"
        },
        {
          "internalType": "address",
          "name": "spender",
          "type": "address"
        }
      ],
      "name": "allowanceNominal",
      "outputs": [
        {
          "internalType": "uint256",
          "name": "",
          "type": "uint256"
        }
      ],
      "stateMutability": "view",
      "type": "function"
    },
    {
      "inputs": [
        {
          "internalType": "address",
          "name": "spender",
          "type": "address"
        },
        {
          "internalType": "uint256",
          "name": "amount",
          "type": "uint256"
        }
      ],
      "name": "approve",
      "outputs": [
        {
          "internalType": "bool",
          "name": "",
          "type": "bool"
        }
      ],
      "stateMutability": "nonpayable",
      "type": "function"
    },
    {
      "inputs": [],
      "name": "asset",
      "outputs": [
        {
          "internalType": "address",
          "name": "",
          "type": "address"
        }
      ],
      "stateMutability": "view",
      "type": "function"
    },
    {
      "inputs": [],
      "name": "assetPrice",
      "outputs": [
        {
          "internalType": "uint256",
          "name": "",
          "type": "uint256"
        }
      ],
      "stateMutability": "view",
      "type": "function"
    },
    {
      "inputs": [],
      "name": "assetPriceCached",
      "outputs": [
        {
          "internalType": "uint256",
          "name": "",
          "type": "uint256"
        }
      ],
      "stateMutability": "nonpayable",
      "type": "function"
    },
    {
      "inputs": [],
      "name": "assetPriceChahedParams",
      "outputs": [
        {
          "internalType": "uint256",
          "name": "cachedBlock",
          "type": "uint256"
        },
        {
          "internalType": "uint256",
          "name": "cachedAssetPrice",
          "type": "uint256"
        }
      ],
      "stateMutability": "view",
      "type": "function"
    },
    {
      "inputs": [
        {
          "internalType": "address",
          "name": "account",
          "type": "address"
        }
      ],
      "name": "balanceOf",
      "outputs": [
        {
          "internalType": "uint256",
          "name": "",
          "type": "uint256"
        }
      ],
      "stateMutability": "view",
      "type": "function"
    },
    {
      "inputs": [
        {
          "internalType": "address",
          "name": "account",
          "type": "address"
        }
      ],
      "name": "balanceOfNominal",
      "outputs": [
        {
          "internalType": "uint256",
          "name": "",
          "type": "uint256"
        }
      ],
      "stateMutability": "view",
      "type": "function"
    },
    {
      "inputs": [
        {
          "internalType": "uint256",
          "name": "dailyDepositDuration_",
          "type": "uint256"
        },
        {
          "internalType": "uint256",
          "name": "dailyDepositLimit_",
          "type": "uint256"
        }
      ],
      "name": "changeDailyDepositParams",
      "outputs": [],
      "stateMutability": "nonpayable",
      "type": "function"
    },
    {
      "inputs": [
        {
          "internalType": "uint256",
          "name": "dailyWithdrawDuration_",
          "type": "uint256"
        },
        {
          "internalType": "uint256",
          "name": "dailyWithdrawLimit_",
          "type": "uint256"
        }
      ],
      "name": "changeDailyWithdrawParams",
      "outputs": [],
      "stateMutability": "nonpayable",
      "type": "function"
    },
    {
      "inputs": [
        {
          "internalType": "address",
          "name": "feeDistributor_",
          "type": "address"
        }
      ],
      "name": "changeFeeDistributor",
      "outputs": [],
      "stateMutability": "nonpayable",
      "type": "function"
    },
    {
      "inputs": [
        {
          "internalType": "address",
          "name": "priceOracle_",
          "type": "address"
        }
      ],
      "name": "changePriceOracle",
      "outputs": [],
      "stateMutability": "nonpayable",
      "type": "function"
    },
    {
      "inputs": [
        {
          "internalType": "uint256",
          "name": "withdrawFee_",
          "type": "uint256"
        }
      ],
      "name": "changeWithdrawFee",
      "outputs": [],
      "stateMutability": "nonpayable",
      "type": "function"
    },
    {
      "inputs": [
        {
          "internalType": "uint256",
          "name": "value",
          "type": "uint256"
        }
      ],
      "name": "convertToNominal",
      "outputs": [
        {
          "internalType": "uint256",
          "name": "nominal",
          "type": "uint256"
        }
      ],
      "stateMutability": "view",
      "type": "function"
    },
    {
      "inputs": [
        {
          "internalType": "uint256",
          "name": "nominal",
          "type": "uint256"
        }
      ],
      "name": "convertToValue",
      "outputs": [
        {
          "internalType": "uint256",
          "name": "value",
          "type": "uint256"
        }
      ],
      "stateMutability": "view",
      "type": "function"
    },
    {
      "inputs": [],
      "name": "dailyDepositCountingBlock",
      "outputs": [
        {
          "internalType": "uint256",
          "name": "",
          "type": "uint256"
        }
      ],
      "stateMutability": "view",
      "type": "function"
    },
    {
      "inputs": [],
      "name": "dailyDepositDuration",
      "outputs": [
        {
          "internalType": "uint256",
          "name": "",
          "type": "uint256"
        }
      ],
      "stateMutability": "view",
      "type": "function"
    },
    {
      "inputs": [],
      "name": "dailyDepositLimit",
      "outputs": [
        {
          "internalType": "uint256",
          "name": "",
          "type": "uint256"
        }
      ],
      "stateMutability": "view",
      "type": "function"
    },
    {
      "inputs": [],
      "name": "dailyDepositTotal",
      "outputs": [
        {
          "internalType": "uint256",
          "name": "",
          "type": "uint256"
        }
      ],
      "stateMutability": "view",
      "type": "function"
    },
    {
      "inputs": [],
      "name": "dailyWithdrawCountingBlock",
      "outputs": [
        {
          "internalType": "uint256",
          "name": "",
          "type": "uint256"
        }
      ],
      "stateMutability": "view",
      "type": "function"
    },
    {
      "inputs": [],
      "name": "dailyWithdrawDuration",
      "outputs": [
        {
          "internalType": "uint256",
          "name": "",
          "type": "uint256"
        }
      ],
      "stateMutability": "view",
      "type": "function"
    },
    {
      "inputs": [],
      "name": "dailyWithdrawLimit",
      "outputs": [
        {
          "internalType": "uint256",
          "name": "",
          "type": "uint256"
        }
      ],
      "stateMutability": "view",
      "type": "function"
    },
    {
      "inputs": [],
      "name": "dailyWithdrawTotal",
      "outputs": [
        {
          "internalType": "uint256",
          "name": "",
          "type": "uint256"
        }
      ],
      "stateMutability": "view",
      "type": "function"
    },
    {
      "inputs": [],
      "name": "decimals",
      "outputs": [
        {
          "internalType": "uint8",
          "name": "",
          "type": "uint8"
        }
      ],
      "stateMutability": "view",
      "type": "function"
    },
    {
      "inputs": [
        {
          "internalType": "address",
          "name": "spender",
          "type": "address"
        },
        {
          "internalType": "uint256",
          "name": "subtractedValue",
          "type": "uint256"
        }
      ],
      "name": "decreaseAllowance",
      "outputs": [
        {
          "internalType": "bool",
          "name": "",
          "type": "bool"
        }
      ],
      "stateMutability": "nonpayable",
      "type": "function"
    },
    {
      "inputs": [
        {
          "internalType": "uint256",
          "name": "nominal",
          "type": "uint256"
        },
        {
          "internalType": "address",
          "name": "receiver",
          "type": "address"
        }
      ],
      "name": "deposit",
      "outputs": [
        {
          "internalType": "uint256",
          "name": "",
          "type": "uint256"
        }
      ],
      "stateMutability": "nonpayable",
      "type": "function"
    },
    {
      "inputs": [],
      "name": "feeDistributor",
      "outputs": [
        {
          "internalType": "address",
          "name": "",
          "type": "address"
        }
      ],
      "stateMutability": "view",
      "type": "function"
    },
    {
      "inputs": [],
      "name": "feePercent",
      "outputs": [
        {
          "internalType": "uint256",
          "name": "",
          "type": "uint256"
        }
      ],
      "stateMutability": "view",
      "type": "function"
    },
    {
      "inputs": [
        {
          "internalType": "address",
          "name": "spender",
          "type": "address"
        },
        {
          "internalType": "uint256",
          "name": "addedValue",
          "type": "uint256"
        }
      ],
      "name": "increaseAllowance",
      "outputs": [
        {
          "internalType": "bool",
          "name": "",
          "type": "bool"
        }
      ],
      "stateMutability": "nonpayable",
      "type": "function"
    },
    {
      "inputs": [
        {
          "internalType": "address",
          "name": "",
          "type": "address"
        }
      ],
      "name": "maxDeposit",
      "outputs": [
        {
          "internalType": "uint256",
          "name": "",
          "type": "uint256"
        }
      ],
      "stateMutability": "view",
      "type": "function"
    },
    {
      "inputs": [
        {
          "internalType": "address",
          "name": "owner",
          "type": "address"
        }
      ],
      "name": "maxWithdraw",
      "outputs": [
        {
          "internalType": "uint256",
          "name": "",
          "type": "uint256"
        }
      ],
      "stateMutability": "view",
      "type": "function"
    },
    {
      "inputs": [],
      "name": "name",
      "outputs": [
        {
          "internalType": "string",
          "name": "",
          "type": "string"
        }
      ],
      "stateMutability": "view",
      "type": "function"
    },
    {
      "inputs": [],
      "name": "owner",
      "outputs": [
        {
          "internalType": "address",
          "name": "",
          "type": "address"
        }
      ],
      "stateMutability": "view",
      "type": "function"
    },
    {
      "inputs": [
        {
          "internalType": "uint256",
          "name": "nominal",
          "type": "uint256"
        }
      ],
      "name": "previewDeposit",
      "outputs": [
        {
          "internalType": "uint256",
          "name": "",
          "type": "uint256"
        }
      ],
      "stateMutability": "view",
      "type": "function"
    },
    {
      "inputs": [
        {
          "internalType": "uint256",
          "name": "value",
          "type": "uint256"
        }
      ],
      "name": "previewWithdraw",
      "outputs": [
        {
          "internalType": "uint256",
          "name": "",
          "type": "uint256"
        }
      ],
      "stateMutability": "view",
      "type": "function"
    },
    {
      "inputs": [],
      "name": "priceOracle",
      "outputs": [
        {
          "internalType": "contract IAssetPriceOracle",
          "name": "",
          "type": "address"
        }
      ],
      "stateMutability": "view",
      "type": "function"
    },
    {
      "inputs": [],
      "name": "renounceOwnership",
      "outputs": [],
      "stateMutability": "nonpayable",
      "type": "function"
    },
    {
      "inputs": [],
      "name": "symbol",
      "outputs": [
        {
          "internalType": "string",
          "name": "",
          "type": "string"
        }
      ],
      "stateMutability": "view",
      "type": "function"
    },
    {
      "inputs": [],
      "name": "totalAssets",
      "outputs": [
        {
          "internalType": "uint256",
          "name": "",
          "type": "uint256"
        }
      ],
      "stateMutability": "view",
      "type": "function"
    },
    {
      "inputs": [],
      "name": "totalSupply",
      "outputs": [
        {
          "internalType": "uint256",
          "name": "",
          "type": "uint256"
        }
      ],
      "stateMutability": "view",
      "type": "function"
    },
    {
      "inputs": [],
      "name": "totalSupplyNominal",
      "outputs": [
        {
          "internalType": "uint256",
          "name": "",
          "type": "uint256"
        }
      ],
      "stateMutability": "view",
      "type": "function"
    },
    {
      "inputs": [
        {
          "internalType": "address",
          "name": "to",
          "type": "address"
        },
        {
          "internalType": "uint256",
          "name": "amount",
          "type": "uint256"
        }
      ],
      "name": "transfer",
      "outputs": [
        {
          "internalType": "bool",
          "name": "",
          "type": "bool"
        }
      ],
      "stateMutability": "nonpayable",
      "type": "function"
    },
    {
      "inputs": [
        {
          "internalType": "address",
          "name": "from",
          "type": "address"
        },
        {
          "internalType": "address",
          "name": "to",
          "type": "address"
        },
        {
          "internalType": "uint256",
          "name": "amount",
          "type": "uint256"
        }
      ],
      "name": "transferFrom",
      "outputs": [
        {
          "internalType": "bool",
          "name": "",
          "type": "bool"
        }
      ],
      "stateMutability": "nonpayable",
      "type": "function"
    },
    {
      "inputs": [
        {
          "internalType": "address",
          "name": "newOwner",
          "type": "address"
        }
      ],
      "name": "transferOwnership",
      "outputs": [],
      "stateMutability": "nonpayable",
      "type": "function"
    },
    {
      "inputs": [
        {
          "internalType": "uint256",
          "name": "value",
          "type": "uint256"
        },
        {
          "internalType": "address",
          "name": "receiver",
          "type": "address"
        },
        {
          "internalType": "address",
          "name": "owner",
          "type": "address"
        }
      ],
      "name": "withdraw",
      "outputs": [
        {
          "internalType": "uint256",
          "name": "",
          "type": "uint256"
        }
      ],
      "stateMutability": "nonpayable",
      "type": "function"
    },
    {
      "inputs": [
        {
          "internalType": "address",
          "name": "receiver",
          "type": "address"
        },
        {
          "internalType": "address",
          "name": "owner",
          "type": "address"
        }
      ],
      "name": "withdrawAll",
      "outputs": [
        {
          "internalType": "uint256",
          "name": "",
          "type": "uint256"
        }
      ],
      "stateMutability": "nonpayable",
      "type": "function"
    }
  ],
  "bytecode": "0x60a06040523480156200001157600080fd5b50732ffcc661011bec72e1a9524e12060983e74d14ce6040518060400160405280600d81526020016c22b630b9ba34b1902a37b5b2b760991b8152506040518060400160405280600381526020016211531560ea1b815250732ffcc661011bec72e1a9524e12060983e74d14ce806200009962000093620000d860201b60201c565b620000dc565b620000a4816200012c565b506007620000b38482620002b5565b506008620000c28382620002b5565b505050506001600160a01b031660805262000381565b3390565b600080546001600160a01b038381166001600160a01b0319831681178455604051919092169283917f8be0079c531659141344cd1fd0a4f28419497f9722a3daafe3b4186f6b6457e09190a35050565b62000136620001b2565b6001600160a01b038116620001865760405162461bcd60e51b81526020600482015260116024820152705a65726f207072696365206f7261636c6560781b60448201526064015b60405180910390fd5b600380546001600160a01b0319166001600160a01b039290921691909117905560006001819055600255565b6000546001600160a01b031633146200020e5760405162461bcd60e51b815260206004820181905260248201527f4f776e61626c653a2063616c6c6572206973206e6f7420746865206f776e657260448201526064016200017d565b565b634e487b7160e01b600052604160045260246000fd5b600181811c908216806200023b57607f821691505b6020821081036200025c57634e487b7160e01b600052602260045260246000fd5b50919050565b601f821115620002b057600081815260208120601f850160051c810160208610156200028b5750805b601f850160051c820191505b81811015620002ac5782815560010162000297565b5050505b505050565b81516001600160401b03811115620002d157620002d162000210565b620002e981620002e2845462000226565b8462000262565b602080601f831160018114620003215760008415620003085750858301515b600019600386901b1c1916600185901b178555620002ac565b600085815260208120601f198616915b82811015620003525788860151825594840194600190910190840162000331565b5085821015620003715787850151600019600388901b60f8161c191681555b5050505050600190811b01905550565b608051611fdf620003b960003960008181610457015281816106ca015281816110550152818161108601526115420152611fdf6000f3fe608060405234801561001057600080fd5b506004361061030c5760003560e01c806379750c591161019d578063cda9109d116100e9578063dd62ed3e116100a2578063ef8b30f71161007c578063ef8b30f714610622578063f12b59c914610679578063f171d3721461068c578063f2fde38b1461069f57600080fd5b8063dd62ed3e14610635578063e7aa5f9814610648578063ea0d5c521461067157600080fd5b8063cda9109d146105e1578063ce96cb77146105ea578063ced9f2fe146105fd578063d24378eb14610610578063d73792a914610618578063da5739711461062257600080fd5b8063a457c2d711610156578063ace687eb11610130578063ace687eb146105aa578063b460af94146105b3578063bcf88d19146105c6578063c5008f46146105d957600080fd5b8063a457c2d714610571578063a893c9be14610584578063a9059cbb1461059757600080fd5b806379750c59146105045780637fd6f15c1461053d5780638da5cb5b14610546578063906f09531461055757806395d89b41146105605780639d1abff11461056857600080fd5b80632e400d591161025c57806342d0d517116102155780636e553f65116101ef5780636e553f65146104cd57806370a08231146104e0578063715018a6146104f3578063775728b4146104fb57600080fd5b806342d0d517146104a957806359be3812146104b2578063607258a9146104c557600080fd5b80632e400d5914610425578063313ce5671461044057806338d52e0f14610455578063395093511461047b578063402d267d1461048e578063407b9945146104a157600080fd5b806309cae2c8116102c957806318160ddd116102a357806318160ddd146103e257806323b872dd146103ea5780632630c12f146103fd5780632ccde94b1461041057600080fd5b806309cae2c8146103915780630a28a477146103a45780630d43e8ad146103b757600080fd5b806301e1d1141461031157806305b941cd1461032c57806306ea482d1461033557806306fdde031461033e57806308f669cc14610353578063095ea7b31461036e575b600080fd5b6103196106b2565b6040519081526020015b60405180910390f35b61031960125481565b61031960105481565b610346610742565b6040516103239190611c20565b60015460025460408051928352602083019190915201610323565b61038161037c366004611c6f565b6107d4565b6040519015158152602001610323565b61031961039f366004611c99565b6107ee565b6103196103b2366004611ccc565b610829565b600a546103ca906001600160a01b031681565b6040516001600160a01b039091168152602001610323565b610319610836565b6103816103f8366004611ce5565b610845565b6003546103ca906001600160a01b031681565b61042361041e366004611d21565b61087b565b005b6103ca732ffcc661011bec72e1a9524e12060983e74d14ce81565b60125b60405160ff9091168152602001610323565b7f00000000000000000000000000000000000000000000000000000000000000006103ca565b610381610489366004611c6f565b6108fe565b61031961049c366004611d21565b610920565b600654610319565b610319600c5481565b6104236104c0366004611d3c565b61093e565b61031961096a565b6103196104db366004611d5e565b6109da565b6103196104ee366004611d21565b610a55565b610423610a78565b610319600b5481565b610319610512366004611c99565b6001600160a01b03918216600090815260056020908152604080832093909416825291909152205490565b61031960095481565b6000546001600160a01b03166103ca565b610319600f5481565b610346610a8c565b61031960115481565b61038161057f366004611c6f565b610a9b565b610423610592366004611ccc565b610b21565b6103816105a5366004611c6f565b610b74565b610319600e5481565b6103196105c1366004611d81565b610b8d565b6103196105d4366004611ccc565b610c09565b610443601281565b610319600d5481565b6103196105f8366004611d21565b610c16565b61031961060b366004611d21565b610c21565b610319610c45565b610319620f424081565b610319610630366004611ccc565b610c8f565b610319610643366004611c99565b610c9c565b610319610656366004611d21565b6001600160a01b031660009081526004602052604090205490565b610319610cce565b610423610687366004611d21565b610cdd565b61042361069a366004611d3c565b610d54565b6104236106ad366004611d21565b610d80565b6040516370a0823160e01b81523060048201526000907f00000000000000000000000000000000000000000000000000000000000000006001600160a01b0316906370a0823190602401602060405180830381865afa158015610719573d6000803e3d6000fd5b505050506040513d601f19601f8201168201806040525081019061073d9190611dbd565b905090565b60606007805461075190611dd6565b80601f016020809104026020016040519081016040528092919081815260200182805461077d90611dd6565b80156107ca5780601f1061079f576101008083540402835291602001916107ca565b820191906000526020600020905b8154815290600101906020018083116107ad57829003601f168201915b5050505050905090565b6000336107e2818585610df9565b60019150505b92915050565b6001600160a01b038116600090815260046020526040812054600061081284610c21565b90506108213386868486610f2d565b509392505050565b60006107e8826001611113565b600061073d6006546000611147565b60003381610854846001611172565b905061086186838661119d565b61086d86868387611217565b6001925050505b9392505050565b6108836113e7565b6001600160a01b0381166108d25760405162461bcd60e51b81526020600482015260116024820152705a65726f207072696365206f7261636c6560781b60448201526064015b60405180910390fd5b600380546001600160a01b0319166001600160a01b039290921691909117905560006001819055600255565b6000336107e28185856109118383611441565b61091b9190611e26565b610df9565b600061092a611473565b6109355760006107e8565b60001992915050565b6109466113e7565b600b829055600c8190556000600f5581610961576000610963565b435b6010555050565b600060015443146109d357436001556000610983610c45565b90508060025410156109d157600281905560015460408051918252602082018390527f62dab94e09b78e75a0061bc7dc0cb484f20d08688f8a8b242aab2da8bfc148c5910160405180910390a15b505b5060025490565b60006109e582610920565b831115610a345760405162461bcd60e51b815260206004820152601e60248201527f455243343632363a206465706f736974206d6f7265207468616e206d6178000060448201526064016108c9565b6000610a3f8461148d565b9050610a4d3384838761149a565b509192915050565b6001600160a01b0381166000908152600460205260408120546107e89082611147565b610a806113e7565b610a8a60006115d0565b565b60606008805461075190611dd6565b60003381610aa98286611441565b905083811015610b095760405162461bcd60e51b815260206004820152602560248201527f45524332303a2064656372656173656420616c6c6f77616e63652062656c6f77604482015264207a65726f60d81b60648201526084016108c9565b610b168286868403610df9565b506001949350505050565b610b296113e7565b620f4240811115610b6f5760405162461bcd60e51b815260206004820152601060248201526f4269676765722074686174203130302560801b60448201526064016108c9565b600955565b6000336107e28185610b87866001611172565b86611217565b6000610b9882610c21565b841115610be75760405162461bcd60e51b815260206004820152601f60248201527f455243343632363a207769746864726177206d6f7265207468616e206d61780060448201526064016108c9565b6000610bf285611620565b9050610c013385858885610f2d565b949350505050565b60006107e8826000611113565b60006107e882610a55565b6001600160a01b0381166000908152600460205260408120546107e890600061162d565b6003546040805163030a011160e21b815290516000926001600160a01b031691630c2804449160048083019260209291908290030181865afa158015610719573d6000803e3d6000fd5b60006107e8826000611147565b6001600160a01b0380831660009081526005602090815260408083209385168352929052908120546108749082611147565b610cda6012600a611f1d565b81565b610ce56113e7565b6001600160a01b038116610d325760405162461bcd60e51b81526020600482015260146024820152732d32b937903332b2903234b9ba3934b13aba37b960611b60448201526064016108c9565b600a80546001600160a01b0319166001600160a01b0392909216919091179055565b610d5c6113e7565b600d829055600e819055600060115581610d77576000610d79565b435b6012555050565b610d886113e7565b6001600160a01b038116610ded5760405162461bcd60e51b815260206004820152602660248201527f4f776e61626c653a206e6577206f776e657220697320746865207a65726f206160448201526564647265737360d01b60648201526084016108c9565b610df6816115d0565b50565b6001600160a01b038316610e5b5760405162461bcd60e51b8152602060048201526024808201527f45524332303a20617070726f76652066726f6d20746865207a65726f206164646044820152637265737360e01b60648201526084016108c9565b6001600160a01b038216610ebc5760405162461bcd60e51b815260206004820152602260248201527f45524332303a20617070726f766520746f20746865207a65726f206164647265604482015261737360f01b60648201526084016108c9565b610ec7816001611172565b6001600160a01b038481166000818152600560209081526040808320948816808452948252918290209490945551848152919290917f8c5be1e5ebec7d5bd14f71427d1e84f3dd0314c0f7b2291e5b200ac8c7c3b92591015b60405180910390a3505050565b60095460009015610f7e57600954610f4c908390620f4240600061164c565b9050610f588183611f2c565b600954909250610f6f908490620f4240600061164c565b9050610f7b8184611f2c565b92505b600d541561102157600d54601254610f969190611e26565b431115610fb6576000601155600d54601254610fb29190611e26565b6012555b8260116000828254610fc89190611e26565b9091555050600e5460115411156110215760405162461bcd60e51b815260206004820152601d60248201527f4461696c79207769746864726177206c696d6974206f766572666c6f7700000060448201526064016108c9565b836001600160a01b0316866001600160a01b0316146110455761104584878561119d565b6110508483856116a9565b61107b7f000000000000000000000000000000000000000000000000000000000000000086846117ef565b80156110b7576110b77f0000000000000000000000000000000000000000000000000000000000000000600a546001600160a01b0316836117ef565b60408051848152602081018490529081018290526001600160a01b0380861691878216918916907fbbbdee62287b5bf3bee13cab60a29ad729cf38109bccbd2a986a11c99b8ca7049060600160405180910390a4505050505050565b6000600019830361112757506000196107e8565b6108746111366012600a611f1d565b61113e610c45565b8591908561164c565b6000600019830361115b57506000196107e8565b610874611166610c45565b61113e6012600a611f1d565b6000600019830361118657506000196107e8565b6108746111956012600a611f1d565b61113e61096a565b60006111a98484611441565b9050600019811461121157818110156112045760405162461bcd60e51b815260206004820152601d60248201527f45524332303a20696e73756666696369656e7420616c6c6f77616e636500000060448201526064016108c9565b6112118484848403610df9565b50505050565b6001600160a01b03841661127b5760405162461bcd60e51b815260206004820152602560248201527f45524332303a207472616e736665722066726f6d20746865207a65726f206164604482015264647265737360d81b60648201526084016108c9565b6001600160a01b0383166112dd5760405162461bcd60e51b815260206004820152602360248201527f45524332303a207472616e7366657220746f20746865207a65726f206164647260448201526265737360e81b60648201526084016108c9565b6001600160a01b038416600090815260046020526040902054828110156113555760405162461bcd60e51b815260206004820152602660248201527f45524332303a207472616e7366657220616d6f756e7420657863656564732062604482015265616c616e636560d01b60648201526084016108c9565b6001600160a01b0380861660009081526004602052604080822086850390559186168152908120805485929061138c908490611e26565b92505081905550836001600160a01b0316856001600160a01b03167fddf252ad1be2c89b69c2b068fc378daa952ba7f163c4a11628f55a4df523b3ef846040516113d891815260200190565b60405180910390a35050505050565b6000546001600160a01b03163314610a8a5760405162461bcd60e51b815260206004820181905260248201527f4f776e61626c653a2063616c6c6572206973206e6f7420746865206f776e657260448201526064016108c9565b6001600160a01b038083166000908152600560209081526040808320938516835292905290812054610874908261162d565b60008061147e6106b2565b118061073d5750506006541590565b60006107e882600061162d565b600b541561153d57600b546010546114b29190611e26565b4311156114d2576000600f55600b546010546114ce9190611e26565b6010555b80600f60008282546114e49190611e26565b9091555050600c54600f54111561153d5760405162461bcd60e51b815260206004820152601c60248201527f4461696c79206465706f736974206c696d6974206f766572666c6f770000000060448201526064016108c9565b6115697f0000000000000000000000000000000000000000000000000000000000000000853084611857565b61157483828461188f565b826001600160a01b0316846001600160a01b03167fdcbc1c05240f31ff3ad067ef1ee35ce4997762752e3a095284754544f4c709d784846040516115c2929190918252602082015260400190565b60405180910390a350505050565b600080546001600160a01b038381166001600160a01b0319831681178455604051919092169283917f8be0079c531659141344cd1fd0a4f28419497f9722a3daafe3b4186f6b6457e09190a35050565b60006107e8826001611172565b6000600019830361164157506000196107e8565b61087461116661096a565b60008061165a868686611967565b9050600183600281111561167057611670611f3f565b14801561168d57506000848061168857611688611f55565b868809115b156116a05761169d600182611e26565b90505b95945050505050565b6001600160a01b0383166117095760405162461bcd60e51b815260206004820152602160248201527f45524332303a206275726e2066726f6d20746865207a65726f206164647265736044820152607360f81b60648201526084016108c9565b6001600160a01b0383166000908152600460205260409020548281101561177d5760405162461bcd60e51b815260206004820152602260248201527f45524332303a206275726e20616d6f756e7420657863656564732062616c616e604482015261636560f01b60648201526084016108c9565b6001600160a01b03841660009081526004602052604081208483039055600680548592906117ac908490611f2c565b90915550506040518281526000906001600160a01b038616907fddf252ad1be2c89b69c2b068fc378daa952ba7f163c4a11628f55a4df523b3ef906020016115c2565b6040516001600160a01b03831660248201526044810182905261185290849063a9059cbb60e01b906064015b60408051601f198184030181529190526020810180516001600160e01b03166001600160e01b031990931692909217909152611a16565b505050565b6040516001600160a01b03808516602483015283166044820152606481018290526112119085906323b872dd60e01b9060840161181b565b6001600160a01b0383166118e55760405162461bcd60e51b815260206004820152601f60248201527f45524332303a206d696e7420746f20746865207a65726f20616464726573730060448201526064016108c9565b81600660008282546118f79190611e26565b90915550506001600160a01b03831660009081526004602052604081208054849290611924908490611e26565b90915550506040518181526001600160a01b038416906000907fddf252ad1be2c89b69c2b068fc378daa952ba7f163c4a11628f55a4df523b3ef90602001610f20565b60008080600019858709858702925082811083820303915050806000036119a15783828161199757611997611f55565b0492505050610874565b8084116119ad57600080fd5b60008486880960026001871981018816978890046003810283188082028403028082028403028082028403028082028403028082028403029081029092039091026000889003889004909101858311909403939093029303949094049190911702949350505050565b6000611a6b826040518060400160405280602081526020017f5361666545524332303a206c6f772d6c6576656c2063616c6c206661696c6564815250856001600160a01b0316611ae89092919063ffffffff16565b8051909150156118525780806020019051810190611a899190611f6b565b6118525760405162461bcd60e51b815260206004820152602a60248201527f5361666545524332303a204552433230206f7065726174696f6e20646964206e6044820152691bdd081cdd58d8d9595960b21b60648201526084016108c9565b6060610c018484600085856001600160a01b0385163b611b4a5760405162461bcd60e51b815260206004820152601d60248201527f416464726573733a2063616c6c20746f206e6f6e2d636f6e747261637400000060448201526064016108c9565b600080866001600160a01b03168587604051611b669190611f8d565b60006040518083038185875af1925050503d8060008114611ba3576040519150601f19603f3d011682016040523d82523d6000602084013e611ba8565b606091505b5091509150611bb8828286611bc3565b979650505050505050565b60608315611bd2575081610874565b825115611be25782518084602001fd5b8160405162461bcd60e51b81526004016108c99190611c20565b60005b83811015611c17578181015183820152602001611bff565b50506000910152565b6020815260008251806020840152611c3f816040850160208701611bfc565b601f01601f19169190910160400192915050565b80356001600160a01b0381168114611c6a57600080fd5b919050565b60008060408385031215611c8257600080fd5b611c8b83611c53565b946020939093013593505050565b60008060408385031215611cac57600080fd5b611cb583611c53565b9150611cc360208401611c53565b90509250929050565b600060208284031215611cde57600080fd5b5035919050565b600080600060608486031215611cfa57600080fd5b611d0384611c53565b9250611d1160208501611c53565b9150604084013590509250925092565b600060208284031215611d3357600080fd5b61087482611c53565b60008060408385031215611d4f57600080fd5b50508035926020909101359150565b60008060408385031215611d7157600080fd5b82359150611cc360208401611c53565b600080600060608486031215611d9657600080fd5b83359250611da660208501611c53565b9150611db460408501611c53565b90509250925092565b600060208284031215611dcf57600080fd5b5051919050565b600181811c90821680611dea57607f821691505b602082108103611e0a57634e487b7160e01b600052602260045260246000fd5b50919050565b634e487b7160e01b600052601160045260246000fd5b808201808211156107e8576107e8611e10565b600181815b80851115611e74578160001904821115611e5a57611e5a611e10565b80851615611e6757918102915b93841c9390800290611e3e565b509250929050565b600082611e8b575060016107e8565b81611e98575060006107e8565b8160018114611eae5760028114611eb857611ed4565b60019150506107e8565b60ff841115611ec957611ec9611e10565b50506001821b6107e8565b5060208310610133831016604e8410600b8410161715611ef7575081810a6107e8565b611f018383611e39565b8060001904821115611f1557611f15611e10565b029392505050565b600061087460ff841683611e7c565b818103818111156107e8576107e8611e10565b634e487b7160e01b600052602160045260246000fd5b634e487b7160e01b600052601260045260246000fd5b600060208284031215611f7d57600080fd5b8151801515811461087457600080fd5b60008251611f9f818460208701611bfc565b919091019291505056fea26469706673582212202c481d870d2291e711a562369f0e70d896fee7eaff3b7add4a45655946cfbcc064736f6c63430008100033",
  "linkReferences": {},
  "deployedLinkReferences": {}
}