{
  "_format": "hh-sol-artifact-1",
  "contractName": "ELT",
  "sourceName": "contracts/ELT.sol",
  "abi": [
    {
      "inputs": [],
      "stateMutability": "nonpayable",
      "type": "constructor"
    },
    {
      "anonymous": false,
      "inputs": [
        {
          "indexed": true,
          "internalType": "address",
          "name": "owner",
          "type": "address"
        },
        {
          "indexed": true,
          "internalType": "address",
          "name": "spender",
          "type": "address"
        },
        {
          "indexed": false,
          "internalType": "uint256",
          "name": "value",
          "type": "uint256"
        }
      ],
      "name": "Approval",
      "type": "event"
    },
    {
      "anonymous": false,
      "inputs": [
        {
          "indexed": false,
          "internalType": "uint256",
          "name": "blockNumber",
          "type": "uint256"
        },
        {
          "indexed": false,
          "internalType": "uint256",
          "name": "assetPrice",
          "type": "uint256"
        }
      ],
      "name": "CachedAssetPrice",
      "type": "event"
    },
    {
      "anonymous": false,
      "inputs": [
        {
          "indexed": true,
          "internalType": "address",
          "name": "caller",
          "type": "address"
        },
        {
          "indexed": true,
          "internalType": "address",
          "name": "owner",
          "type": "address"
        },
        {
          "indexed": false,
          "internalType": "uint256",
          "name": "assets",
          "type": "uint256"
        },
        {
          "indexed": false,
          "internalType": "uint256",
          "name": "shares",
          "type": "uint256"
        }
      ],
      "name": "Deposit",
      "type": "event"
    },
    {
      "anonymous": false,
      "inputs": [
        {
          "indexed": true,
          "internalType": "address",
          "name": "previousOwner",
          "type": "address"
        },
        {
          "indexed": true,
          "internalType": "address",
          "name": "newOwner",
          "type": "address"
        }
      ],
      "name": "OwnershipTransferred",
      "type": "event"
    },
    {
      "anonymous": false,
      "inputs": [
        {
          "indexed": true,
          "internalType": "address",
          "name": "from",
          "type": "address"
        },
        {
          "indexed": true,
          "internalType": "address",
          "name": "to",
          "type": "address"
        },
        {
          "indexed": false,
          "internalType": "uint256",
          "name": "value",
          "type": "uint256"
        }
      ],
      "name": "Transfer",
      "type": "event"
    },
    {
      "anonymous": false,
      "inputs": [
        {
          "indexed": true,
          "internalType": "address",
          "name": "caller",
          "type": "address"
        },
        {
          "indexed": true,
          "internalType": "address",
          "name": "receiver",
          "type": "address"
        },
        {
          "indexed": true,
          "internalType": "address",
          "name": "owner",
          "type": "address"
        },
        {
          "indexed": false,
          "internalType": "uint256",
          "name": "assets",
          "type": "uint256"
        },
        {
          "indexed": false,
          "internalType": "uint256",
          "name": "shares",
          "type": "uint256"
        },
        {
          "indexed": false,
          "internalType": "uint256",
          "name": "fee",
          "type": "uint256"
        }
      ],
      "name": "Withdraw",
      "type": "event"
    },
    {
      "inputs": [],
      "name": "DEFAULT_DECIMALS",
      "outputs": [
        {
          "internalType": "uint8",
          "name": "",
          "type": "uint8"
        }
      ],
      "stateMutability": "view",
      "type": "function"
    },
    {
      "inputs": [],
      "name": "DEFAULT_DECIMALS_FACTOR",
      "outputs": [
        {
          "internalType": "uint256",
          "name": "",
          "type": "uint256"
        }
      ],
      "stateMutability": "view",
      "type": "function"
    },
    {
      "inputs": [],
      "name": "FEE_DENOMINATOR",
      "outputs": [
        {
          "internalType": "uint256",
          "name": "",
          "type": "uint256"
        }
      ],
      "stateMutability": "view",
      "type": "function"
    },
    {
      "inputs": [],
      "name": "ZUNAMI",
      "outputs": [
        {
          "internalType": "address",
          "name": "",
          "type": "address"
        }
      ],
      "stateMutability": "view",
      "type": "function"
    },
    {
      "inputs": [
        {
          "internalType": "address",
          "name": "owner",
          "type": "address"
        },
        {
          "internalType": "address",
          "name": "spender",
          "type": "address"
        }
      ],
      "name": "allowance",
      "outputs": [
        {
          "internalType": "uint256",
          "name": "",
          "type": "uint256"
        }
      ],
      "stateMutability": "view",
      "type": "function"
    },
    {
      "inputs": [
        {
          "internalType": "address",
          "name": "owner",
          "type": "address"
        },
        {
          "internalType": "address",
          "name": "spender",
          "type": "address"
        }
      ],
      "name": "allowanceNominal",
      "outputs": [
        {
          "internalType": "uint256",
          "name": "",
          "type": "uint256"
        }
      ],
      "stateMutability": "view",
      "type": "function"
    },
    {
      "inputs": [
        {
          "internalType": "address",
          "name": "spender",
          "type": "address"
        },
        {
          "internalType": "uint256",
          "name": "amount",
          "type": "uint256"
        }
      ],
      "name": "approve",
      "outputs": [
        {
          "internalType": "bool",
          "name": "",
          "type": "bool"
        }
      ],
      "stateMutability": "nonpayable",
      "type": "function"
    },
    {
      "inputs": [],
      "name": "asset",
      "outputs": [
        {
          "internalType": "address",
          "name": "",
          "type": "address"
        }
      ],
      "stateMutability": "view",
      "type": "function"
    },
    {
      "inputs": [],
      "name": "assetPrice",
      "outputs": [
        {
          "internalType": "uint256",
          "name": "",
          "type": "uint256"
        }
      ],
      "stateMutability": "view",
      "type": "function"
    },
    {
      "inputs": [],
      "name": "assetPriceCached",
      "outputs": [
        {
          "internalType": "uint256",
          "name": "",
          "type": "uint256"
        }
      ],
      "stateMutability": "nonpayable",
      "type": "function"
    },
    {
      "inputs": [],
      "name": "assetPriceChahedParams",
      "outputs": [
        {
          "internalType": "uint256",
          "name": "cachedBlock",
          "type": "uint256"
        },
        {
          "internalType": "uint256",
          "name": "cachedAssetPrice",
          "type": "uint256"
        }
      ],
      "stateMutability": "view",
      "type": "function"
    },
    {
      "inputs": [
        {
          "internalType": "address",
          "name": "account",
          "type": "address"
        }
      ],
      "name": "balanceOf",
      "outputs": [
        {
          "internalType": "uint256",
          "name": "",
          "type": "uint256"
        }
      ],
      "stateMutability": "view",
      "type": "function"
    },
    {
      "inputs": [
        {
          "internalType": "address",
          "name": "account",
          "type": "address"
        }
      ],
      "name": "balanceOfNominal",
      "outputs": [
        {
          "internalType": "uint256",
          "name": "",
          "type": "uint256"
        }
      ],
      "stateMutability": "view",
      "type": "function"
    },
    {
      "inputs": [
        {
          "internalType": "uint256",
          "name": "dailyDepositDuration_",
          "type": "uint256"
        },
        {
          "internalType": "uint256",
          "name": "dailyDepositLimit_",
          "type": "uint256"
        }
      ],
      "name": "changeDailyDepositParams",
      "outputs": [],
      "stateMutability": "nonpayable",
      "type": "function"
    },
    {
      "inputs": [
        {
          "internalType": "uint256",
          "name": "dailyWithdrawDuration_",
          "type": "uint256"
        },
        {
          "internalType": "uint256",
          "name": "dailyWithdrawLimit_",
          "type": "uint256"
        }
      ],
      "name": "changeDailyWithdrawParams",
      "outputs": [],
      "stateMutability": "nonpayable",
      "type": "function"
    },
    {
      "inputs": [
        {
          "internalType": "address",
          "name": "feeDistributor_",
          "type": "address"
        }
      ],
      "name": "changeFeeDistributor",
      "outputs": [],
      "stateMutability": "nonpayable",
      "type": "function"
    },
    {
      "inputs": [
        {
          "internalType": "address",
          "name": "priceOracle_",
          "type": "address"
        }
      ],
      "name": "changePriceOracle",
      "outputs": [],
      "stateMutability": "nonpayable",
      "type": "function"
    },
    {
      "inputs": [
        {
          "internalType": "uint256",
          "name": "withdrawFee_",
          "type": "uint256"
        }
      ],
      "name": "changeWithdrawFee",
      "outputs": [],
      "stateMutability": "nonpayable",
      "type": "function"
    },
    {
      "inputs": [
        {
          "internalType": "uint256",
          "name": "value",
          "type": "uint256"
        }
      ],
      "name": "convertToNominal",
      "outputs": [
        {
          "internalType": "uint256",
          "name": "nominal",
          "type": "uint256"
        }
      ],
      "stateMutability": "view",
      "type": "function"
    },
    {
      "inputs": [
        {
          "internalType": "uint256",
          "name": "nominal",
          "type": "uint256"
        }
      ],
      "name": "convertToValue",
      "outputs": [
        {
          "internalType": "uint256",
          "name": "value",
          "type": "uint256"
        }
      ],
      "stateMutability": "view",
      "type": "function"
    },
    {
      "inputs": [],
      "name": "dailyDepositCountingBlock",
      "outputs": [
        {
          "internalType": "uint256",
          "name": "",
          "type": "uint256"
        }
      ],
      "stateMutability": "view",
      "type": "function"
    },
    {
      "inputs": [],
      "name": "dailyDepositDuration",
      "outputs": [
        {
          "internalType": "uint256",
          "name": "",
          "type": "uint256"
        }
      ],
      "stateMutability": "view",
      "type": "function"
    },
    {
      "inputs": [],
      "name": "dailyDepositLimit",
      "outputs": [
        {
          "internalType": "uint256",
          "name": "",
          "type": "uint256"
        }
      ],
      "stateMutability": "view",
      "type": "function"
    },
    {
      "inputs": [],
      "name": "dailyDepositTotal",
      "outputs": [
        {
          "internalType": "uint256",
          "name": "",
          "type": "uint256"
        }
      ],
      "stateMutability": "view",
      "type": "function"
    },
    {
      "inputs": [],
      "name": "dailyWithdrawCountingBlock",
      "outputs": [
        {
          "internalType": "uint256",
          "name": "",
          "type": "uint256"
        }
      ],
      "stateMutability": "view",
      "type": "function"
    },
    {
      "inputs": [],
      "name": "dailyWithdrawDuration",
      "outputs": [
        {
          "internalType": "uint256",
          "name": "",
          "type": "uint256"
        }
      ],
      "stateMutability": "view",
      "type": "function"
    },
    {
      "inputs": [],
      "name": "dailyWithdrawLimit",
      "outputs": [
        {
          "internalType": "uint256",
          "name": "",
          "type": "uint256"
        }
      ],
      "stateMutability": "view",
      "type": "function"
    },
    {
      "inputs": [],
      "name": "dailyWithdrawTotal",
      "outputs": [
        {
          "internalType": "uint256",
          "name": "",
          "type": "uint256"
        }
      ],
      "stateMutability": "view",
      "type": "function"
    },
    {
      "inputs": [],
      "name": "decimals",
      "outputs": [
        {
          "internalType": "uint8",
          "name": "",
          "type": "uint8"
        }
      ],
      "stateMutability": "view",
      "type": "function"
    },
    {
      "inputs": [
        {
          "internalType": "address",
          "name": "spender",
          "type": "address"
        },
        {
          "internalType": "uint256",
          "name": "subtractedValue",
          "type": "uint256"
        }
      ],
      "name": "decreaseAllowance",
      "outputs": [
        {
          "internalType": "bool",
          "name": "",
          "type": "bool"
        }
      ],
      "stateMutability": "nonpayable",
      "type": "function"
    },
    {
      "inputs": [
        {
          "internalType": "uint256",
          "name": "nominalValue",
          "type": "uint256"
        },
        {
          "internalType": "address",
          "name": "receiver",
          "type": "address"
        }
      ],
      "name": "deposit",
      "outputs": [
        {
          "internalType": "uint256",
          "name": "",
          "type": "uint256"
        }
      ],
      "stateMutability": "nonpayable",
      "type": "function"
    },
    {
      "inputs": [],
      "name": "feeDistributor",
      "outputs": [
        {
          "internalType": "address",
          "name": "",
          "type": "address"
        }
      ],
      "stateMutability": "view",
      "type": "function"
    },
    {
      "inputs": [],
      "name": "feePercent",
      "outputs": [
        {
          "internalType": "uint256",
          "name": "",
          "type": "uint256"
        }
      ],
      "stateMutability": "view",
      "type": "function"
    },
    {
      "inputs": [
        {
          "internalType": "address",
          "name": "spender",
          "type": "address"
        },
        {
          "internalType": "uint256",
          "name": "addedValue",
          "type": "uint256"
        }
      ],
      "name": "increaseAllowance",
      "outputs": [
        {
          "internalType": "bool",
          "name": "",
          "type": "bool"
        }
      ],
      "stateMutability": "nonpayable",
      "type": "function"
    },
    {
      "inputs": [
        {
          "internalType": "address",
          "name": "",
          "type": "address"
        }
      ],
      "name": "maxDeposit",
      "outputs": [
        {
          "internalType": "uint256",
          "name": "",
          "type": "uint256"
        }
      ],
      "stateMutability": "view",
      "type": "function"
    },
    {
      "inputs": [
        {
          "internalType": "address",
          "name": "owner",
          "type": "address"
        }
      ],
      "name": "maxWithdraw",
      "outputs": [
        {
          "internalType": "uint256",
          "name": "",
          "type": "uint256"
        }
      ],
      "stateMutability": "view",
      "type": "function"
    },
    {
      "inputs": [],
      "name": "name",
      "outputs": [
        {
          "internalType": "string",
          "name": "",
          "type": "string"
        }
      ],
      "stateMutability": "view",
      "type": "function"
    },
    {
      "inputs": [],
      "name": "owner",
      "outputs": [
        {
          "internalType": "address",
          "name": "",
          "type": "address"
        }
      ],
      "stateMutability": "view",
      "type": "function"
    },
    {
      "inputs": [
        {
          "internalType": "uint256",
          "name": "nominal",
          "type": "uint256"
        }
      ],
      "name": "previewDeposit",
      "outputs": [
        {
          "internalType": "uint256",
          "name": "",
          "type": "uint256"
        }
      ],
      "stateMutability": "view",
      "type": "function"
    },
    {
      "inputs": [
        {
          "internalType": "uint256",
          "name": "value",
          "type": "uint256"
        }
      ],
      "name": "previewWithdraw",
      "outputs": [
        {
          "internalType": "uint256",
          "name": "",
          "type": "uint256"
        }
      ],
      "stateMutability": "view",
      "type": "function"
    },
    {
      "inputs": [],
      "name": "priceOracle",
      "outputs": [
        {
          "internalType": "contract IAssetPriceOracle",
          "name": "",
          "type": "address"
        }
      ],
      "stateMutability": "view",
      "type": "function"
    },
    {
      "inputs": [],
      "name": "renounceOwnership",
      "outputs": [],
      "stateMutability": "nonpayable",
      "type": "function"
    },
    {
      "inputs": [],
      "name": "symbol",
      "outputs": [
        {
          "internalType": "string",
          "name": "",
          "type": "string"
        }
      ],
      "stateMutability": "view",
      "type": "function"
    },
    {
      "inputs": [],
      "name": "totalAssets",
      "outputs": [
        {
          "internalType": "uint256",
          "name": "",
          "type": "uint256"
        }
      ],
      "stateMutability": "view",
      "type": "function"
    },
    {
      "inputs": [],
      "name": "totalSupply",
      "outputs": [
        {
          "internalType": "uint256",
          "name": "",
          "type": "uint256"
        }
      ],
      "stateMutability": "view",
      "type": "function"
    },
    {
      "inputs": [],
      "name": "totalSupplyNominal",
      "outputs": [
        {
          "internalType": "uint256",
          "name": "",
          "type": "uint256"
        }
      ],
      "stateMutability": "view",
      "type": "function"
    },
    {
      "inputs": [
        {
          "internalType": "address",
          "name": "to",
          "type": "address"
        },
        {
          "internalType": "uint256",
          "name": "amount",
          "type": "uint256"
        }
      ],
      "name": "transfer",
      "outputs": [
        {
          "internalType": "bool",
          "name": "",
          "type": "bool"
        }
      ],
      "stateMutability": "nonpayable",
      "type": "function"
    },
    {
      "inputs": [
        {
          "internalType": "address",
          "name": "from",
          "type": "address"
        },
        {
          "internalType": "address",
          "name": "to",
          "type": "address"
        },
        {
          "internalType": "uint256",
          "name": "amount",
          "type": "uint256"
        }
      ],
      "name": "transferFrom",
      "outputs": [
        {
          "internalType": "bool",
          "name": "",
          "type": "bool"
        }
      ],
      "stateMutability": "nonpayable",
      "type": "function"
    },
    {
      "inputs": [
        {
          "internalType": "address",
          "name": "newOwner",
          "type": "address"
        }
      ],
      "name": "transferOwnership",
      "outputs": [],
      "stateMutability": "nonpayable",
      "type": "function"
    },
    {
      "inputs": [
        {
          "internalType": "uint256",
          "name": "assets",
          "type": "uint256"
        },
        {
          "internalType": "address",
          "name": "receiver",
          "type": "address"
        },
        {
          "internalType": "address",
          "name": "owner",
          "type": "address"
        }
      ],
      "name": "withdraw",
      "outputs": [
        {
          "internalType": "uint256",
          "name": "",
          "type": "uint256"
        }
      ],
      "stateMutability": "nonpayable",
      "type": "function"
    }
  ],
  "bytecode": "0x60a06040523480156200001157600080fd5b50732ffcc661011bec72e1a9524e12060983e74d14ce6040518060400160405280600d81526020016c22b630b9ba34b1902a37b5b2b760991b8152506040518060400160405280600381526020016211531560ea1b815250732ffcc661011bec72e1a9524e12060983e74d14ce806200009962000093620000d860201b60201c565b620000dc565b620000a4816200012c565b506007620000b38482620002b5565b506008620000c28382620002b5565b505050506001600160a01b031660805262000381565b3390565b600080546001600160a01b038381166001600160a01b0319831681178455604051919092169283917f8be0079c531659141344cd1fd0a4f28419497f9722a3daafe3b4186f6b6457e09190a35050565b62000136620001b2565b6001600160a01b038116620001865760405162461bcd60e51b81526020600482015260116024820152705a65726f207072696365206f7261636c6560781b60448201526064015b60405180910390fd5b600380546001600160a01b0319166001600160a01b039290921691909117905560006001819055600255565b6000546001600160a01b031633146200020e5760405162461bcd60e51b815260206004820181905260248201527f4f776e61626c653a2063616c6c6572206973206e6f7420746865206f776e657260448201526064016200017d565b565b634e487b7160e01b600052604160045260246000fd5b600181811c908216806200023b57607f821691505b6020821081036200025c57634e487b7160e01b600052602260045260246000fd5b50919050565b601f821115620002b057600081815260208120601f850160051c810160208610156200028b5750805b601f850160051c820191505b81811015620002ac5782815560010162000297565b5050505b505050565b81516001600160401b03811115620002d157620002d162000210565b620002e981620002e2845462000226565b8462000262565b602080601f831160018114620003215760008415620003085750858301515b600019600386901b1c1916600185901b178555620002ac565b600085815260208120601f198616915b82811015620003525788860151825594840194600190910190840162000331565b5085821015620003715787850151600019600388901b60f8161c191681555b5050505050600190811b01905550565b608051611f24620003b96000396000818161040e0152818161066e015281816112a1015281816114b401526114e50152611f246000f3fe608060405234801561001057600080fd5b50600436106102d65760003560e01c806379750c5911610182578063c5008f46116100e9578063dd62ed3e116100a2578063ef8b30f71161007c578063ef8b30f7146105c6578063f12b59c91461061d578063f171d37214610630578063f2fde38b1461064357600080fd5b8063dd62ed3e146105d9578063e7aa5f98146105ec578063ea0d5c521461061557600080fd5b8063c5008f4614610590578063cda9109d14610598578063ce96cb77146105a1578063d24378eb146105b4578063d73792a9146105bc578063da573971146105c657600080fd5b8063a457c2d71161013b578063a457c2d714610528578063a893c9be1461053b578063a9059cbb1461054e578063ace687eb14610561578063b460af941461056a578063bcf88d191461057d57600080fd5b806379750c59146104bb5780637fd6f15c146104f45780638da5cb5b146104fd578063906f09531461050e57806395d89b41146105175780639d1abff11461051f57600080fd5b80632e400d591161024157806342d0d517116101fa5780636e553f65116101d45780636e553f651461048457806370a0823114610497578063715018a6146104aa578063775728b4146104b257600080fd5b806342d0d5171461046057806359be381214610469578063607258a91461047c57600080fd5b80632e400d59146103dc578063313ce567146103f757806338d52e0f1461040c5780633950935114610432578063402d267d14610445578063407b99451461045857600080fd5b80630a28a477116102935780630a28a4771461035b5780630d43e8ad1461036e57806318160ddd1461039957806323b872dd146103a15780632630c12f146103b45780632ccde94b146103c757600080fd5b806301e1d114146102db57806305b941cd146102f657806306ea482d146102ff57806306fdde031461030857806308f669cc1461031d578063095ea7b314610338575b600080fd5b6102e3610656565b6040519081526020015b60405180910390f35b6102e360125481565b6102e360105481565b6103106106e6565b6040516102ed9190611b65565b600154600254604080519283526020830191909152016102ed565b61034b610346366004611bb4565b610778565b60405190151581526020016102ed565b6102e3610369366004611bde565b610792565b600a54610381906001600160a01b031681565b6040516001600160a01b0390911681526020016102ed565b6102e361079f565b61034b6103af366004611bf7565b6107ae565b600354610381906001600160a01b031681565b6103da6103d5366004611c33565b6107e4565b005b610381732ffcc661011bec72e1a9524e12060983e74d14ce81565b60125b60405160ff90911681526020016102ed565b7f0000000000000000000000000000000000000000000000000000000000000000610381565b61034b610440366004611bb4565b610867565b6102e3610453366004611c33565b610889565b6006546102e3565b6102e3600c5481565b6103da610477366004611c4e565b6108a7565b6102e36108d3565b6102e3610492366004611c70565b610943565b6102e36104a5366004611c33565b6109be565b6103da6109e1565b6102e3600b5481565b6102e36104c9366004611c9c565b6001600160a01b03918216600090815260056020908152604080832093909416825291909152205490565b6102e360095481565b6000546001600160a01b0316610381565b6102e3600f5481565b6103106109f5565b6102e360115481565b61034b610536366004611bb4565b610a04565b6103da610549366004611bde565b610a8a565b61034b61055c366004611bb4565b610add565b6102e3600e5481565b6102e3610578366004611cc6565b610af6565b6102e361058b366004611bde565b610b72565b6103fa601281565b6102e3600d5481565b6102e36105af366004611c33565b610b7f565b6102e3610b8a565b6102e3620f424081565b6102e36105d4366004611bde565b610bd4565b6102e36105e7366004611c9c565b610be1565b6102e36105fa366004611c33565b6001600160a01b031660009081526004602052604090205490565b6102e3610c13565b6103da61062b366004611c33565b610c22565b6103da61063e366004611c4e565b610c99565b6103da610651366004611c33565b610cc5565b6040516370a0823160e01b81523060048201526000907f00000000000000000000000000000000000000000000000000000000000000006001600160a01b0316906370a0823190602401602060405180830381865afa1580156106bd573d6000803e3d6000fd5b505050506040513d601f19601f820116820180604052508101906106e19190611d02565b905090565b6060600780546106f590611d1b565b80601f016020809104026020016040519081016040528092919081815260200182805461072190611d1b565b801561076e5780601f106107435761010080835404028352916020019161076e565b820191906000526020600020905b81548152906001019060200180831161075157829003601f168201915b5050505050905090565b600033610786818585610d3e565b60019150505b92915050565b600061078c826001610e72565b60006106e16006546000610ea6565b600033816107bd846001610ed1565b90506107ca868386610efc565b6107d686868387610f76565b6001925050505b9392505050565b6107ec611146565b6001600160a01b03811661083b5760405162461bcd60e51b81526020600482015260116024820152705a65726f207072696365206f7261636c6560781b60448201526064015b60405180910390fd5b600380546001600160a01b0319166001600160a01b039290921691909117905560006001819055600255565b60003361078681858561087a83836111a0565b6108849190611d6b565b610d3e565b60006108936111d2565b61089e57600061078c565b60001992915050565b6108af611146565b600b829055600c8190556000600f55816108ca5760006108cc565b435b6010555050565b6000600154431461093c574360015560006108ec610b8a565b905080600254101561093a57600281905560015460408051918252602082018390527f62dab94e09b78e75a0061bc7dc0cb484f20d08688f8a8b242aab2da8bfc148c5910160405180910390a15b505b5060025490565b600061094e82610889565b83111561099d5760405162461bcd60e51b815260206004820152601e60248201527f455243343632363a206465706f736974206d6f7265207468616e206d617800006044820152606401610832565b60006109a8846111ec565b90506109b6338483876111f9565b509192915050565b6001600160a01b03811660009081526004602052604081205461078c9082610ea6565b6109e9611146565b6109f3600061132f565b565b6060600880546106f590611d1b565b60003381610a1282866111a0565b905083811015610a725760405162461bcd60e51b815260206004820152602560248201527f45524332303a2064656372656173656420616c6c6f77616e63652062656c6f77604482015264207a65726f60d81b6064820152608401610832565b610a7f8286868403610d3e565b506001949350505050565b610a92611146565b620f4240811115610ad85760405162461bcd60e51b815260206004820152601060248201526f4269676765722074686174203130302560801b6044820152606401610832565b600955565b6000336107868185610af0866001610ed1565b86610f76565b6000610b0182610b7f565b841115610b505760405162461bcd60e51b815260206004820152601f60248201527f455243343632363a207769746864726177206d6f7265207468616e206d6178006044820152606401610832565b6000610b5b8561137f565b9050610b6a338585888561138c565b949350505050565b600061078c826000610e72565b600061078c826109be565b6003546040805163030a011160e21b815290516000926001600160a01b031691630c2804449160048083019260209291908290030181865afa1580156106bd573d6000803e3d6000fd5b600061078c826000610ea6565b6001600160a01b0380831660009081526005602090815260408083209385168352929052908120546107dd9082610ea6565b610c1f6012600a611e62565b81565b610c2a611146565b6001600160a01b038116610c775760405162461bcd60e51b81526020600482015260146024820152732d32b937903332b2903234b9ba3934b13aba37b960611b6044820152606401610832565b600a80546001600160a01b0319166001600160a01b0392909216919091179055565b610ca1611146565b600d829055600e819055600060115581610cbc576000610cbe565b435b6012555050565b610ccd611146565b6001600160a01b038116610d325760405162461bcd60e51b815260206004820152602660248201527f4f776e61626c653a206e6577206f776e657220697320746865207a65726f206160448201526564647265737360d01b6064820152608401610832565b610d3b8161132f565b50565b6001600160a01b038316610da05760405162461bcd60e51b8152602060048201526024808201527f45524332303a20617070726f76652066726f6d20746865207a65726f206164646044820152637265737360e01b6064820152608401610832565b6001600160a01b038216610e015760405162461bcd60e51b815260206004820152602260248201527f45524332303a20617070726f766520746f20746865207a65726f206164647265604482015261737360f01b6064820152608401610832565b610e0c816001610ed1565b6001600160a01b038481166000818152600560209081526040808320948816808452948252918290209490945551848152919290917f8c5be1e5ebec7d5bd14f71427d1e84f3dd0314c0f7b2291e5b200ac8c7c3b92591015b60405180910390a3505050565b60006000198303610e86575060001961078c565b6107dd610e956012600a611e62565b610e9d610b8a565b85919085611572565b60006000198303610eba575060001961078c565b6107dd610ec5610b8a565b610e9d6012600a611e62565b60006000198303610ee5575060001961078c565b6107dd610ef46012600a611e62565b610e9d6108d3565b6000610f0884846111a0565b90506000198114610f705781811015610f635760405162461bcd60e51b815260206004820152601d60248201527f45524332303a20696e73756666696369656e7420616c6c6f77616e63650000006044820152606401610832565b610f708484848403610d3e565b50505050565b6001600160a01b038416610fda5760405162461bcd60e51b815260206004820152602560248201527f45524332303a207472616e736665722066726f6d20746865207a65726f206164604482015264647265737360d81b6064820152608401610832565b6001600160a01b03831661103c5760405162461bcd60e51b815260206004820152602360248201527f45524332303a207472616e7366657220746f20746865207a65726f206164647260448201526265737360e81b6064820152608401610832565b6001600160a01b038416600090815260046020526040902054828110156110b45760405162461bcd60e51b815260206004820152602660248201527f45524332303a207472616e7366657220616d6f756e7420657863656564732062604482015265616c616e636560d01b6064820152608401610832565b6001600160a01b038086166000908152600460205260408082208685039055918616815290812080548592906110eb908490611d6b565b92505081905550836001600160a01b0316856001600160a01b03167fddf252ad1be2c89b69c2b068fc378daa952ba7f163c4a11628f55a4df523b3ef8460405161113791815260200190565b60405180910390a35050505050565b6000546001600160a01b031633146109f35760405162461bcd60e51b815260206004820181905260248201527f4f776e61626c653a2063616c6c6572206973206e6f7420746865206f776e65726044820152606401610832565b6001600160a01b0380831660009081526005602090815260408083209385168352929052908120546107dd90826115cf565b6000806111dd610656565b11806106e15750506006541590565b600061078c8260006115cf565b600b541561129c57600b546010546112119190611d6b565b431115611231576000600f55600b5460105461122d9190611d6b565b6010555b80600f60008282546112439190611d6b565b9091555050600c54600f54111561129c5760405162461bcd60e51b815260206004820152601c60248201527f4461696c79206465706f736974206c696d6974206f766572666c6f77000000006044820152606401610832565b6112c87f00000000000000000000000000000000000000000000000000000000000000008530846115ee565b6112d3838284611659565b826001600160a01b0316846001600160a01b03167fdcbc1c05240f31ff3ad067ef1ee35ce4997762752e3a095284754544f4c709d78484604051611321929190918252602082015260400190565b60405180910390a350505050565b600080546001600160a01b038381166001600160a01b0319831681178455604051919092169283917f8be0079c531659141344cd1fd0a4f28419497f9722a3daafe3b4186f6b6457e09190a35050565b600061078c826001610ed1565b600954600090156113dd576009546113ab908390620f42406000611572565b90506113b78183611e71565b6009549092506113ce908490620f42406000611572565b90506113da8184611e71565b92505b600d541561148057600d546012546113f59190611d6b565b431115611415576000601155600d546012546114119190611d6b565b6012555b82601160008282546114279190611d6b565b9091555050600e5460115411156114805760405162461bcd60e51b815260206004820152601d60248201527f4461696c79207769746864726177206c696d6974206f766572666c6f770000006044820152606401610832565b836001600160a01b0316866001600160a01b0316146114a4576114a4848785610efc565b6114af848385611731565b6114da7f00000000000000000000000000000000000000000000000000000000000000008684611877565b8015611516576115167f0000000000000000000000000000000000000000000000000000000000000000600a546001600160a01b031683611877565b60408051848152602081018490529081018290526001600160a01b0380861691878216918916907fbbbdee62287b5bf3bee13cab60a29ad729cf38109bccbd2a986a11c99b8ca7049060600160405180910390a4505050505050565b6000806115808686866118ac565b9050600183600281111561159657611596611e84565b1480156115b35750600084806115ae576115ae611e9a565b868809115b156115c6576115c3600182611d6b565b90505b95945050505050565b600060001983036115e3575060001961078c565b6107dd610ec56108d3565b6040516001600160a01b0380851660248301528316604482015260648101829052610f709085906323b872dd60e01b906084015b60408051601f198184030181529190526020810180516001600160e01b03166001600160e01b03199093169290921790915261195b565b6001600160a01b0383166116af5760405162461bcd60e51b815260206004820152601f60248201527f45524332303a206d696e7420746f20746865207a65726f2061646472657373006044820152606401610832565b81600660008282546116c19190611d6b565b90915550506001600160a01b038316600090815260046020526040812080548492906116ee908490611d6b565b90915550506040518181526001600160a01b038416906000907fddf252ad1be2c89b69c2b068fc378daa952ba7f163c4a11628f55a4df523b3ef90602001610e65565b6001600160a01b0383166117915760405162461bcd60e51b815260206004820152602160248201527f45524332303a206275726e2066726f6d20746865207a65726f206164647265736044820152607360f81b6064820152608401610832565b6001600160a01b038316600090815260046020526040902054828110156118055760405162461bcd60e51b815260206004820152602260248201527f45524332303a206275726e20616d6f756e7420657863656564732062616c616e604482015261636560f01b6064820152608401610832565b6001600160a01b0384166000908152600460205260408120848303905560068054859290611834908490611e71565b90915550506040518281526000906001600160a01b038616907fddf252ad1be2c89b69c2b068fc378daa952ba7f163c4a11628f55a4df523b3ef90602001611321565b6040516001600160a01b0383166024820152604481018290526118a790849063a9059cbb60e01b90606401611622565b505050565b60008080600019858709858702925082811083820303915050806000036118e6578382816118dc576118dc611e9a565b04925050506107dd565b8084116118f257600080fd5b60008486880960026001871981018816978890046003810283188082028403028082028403028082028403028082028403028082028403029081029092039091026000889003889004909101858311909403939093029303949094049190911702949350505050565b60006119b0826040518060400160405280602081526020017f5361666545524332303a206c6f772d6c6576656c2063616c6c206661696c6564815250856001600160a01b0316611a2d9092919063ffffffff16565b8051909150156118a757808060200190518101906119ce9190611eb0565b6118a75760405162461bcd60e51b815260206004820152602a60248201527f5361666545524332303a204552433230206f7065726174696f6e20646964206e6044820152691bdd081cdd58d8d9595960b21b6064820152608401610832565b6060610b6a8484600085856001600160a01b0385163b611a8f5760405162461bcd60e51b815260206004820152601d60248201527f416464726573733a2063616c6c20746f206e6f6e2d636f6e74726163740000006044820152606401610832565b600080866001600160a01b03168587604051611aab9190611ed2565b60006040518083038185875af1925050503d8060008114611ae8576040519150601f19603f3d011682016040523d82523d6000602084013e611aed565b606091505b5091509150611afd828286611b08565b979650505050505050565b60608315611b175750816107dd565b825115611b275782518084602001fd5b8160405162461bcd60e51b81526004016108329190611b65565b60005b83811015611b5c578181015183820152602001611b44565b50506000910152565b6020815260008251806020840152611b84816040850160208701611b41565b601f01601f19169190910160400192915050565b80356001600160a01b0381168114611baf57600080fd5b919050565b60008060408385031215611bc757600080fd5b611bd083611b98565b946020939093013593505050565b600060208284031215611bf057600080fd5b5035919050565b600080600060608486031215611c0c57600080fd5b611c1584611b98565b9250611c2360208501611b98565b9150604084013590509250925092565b600060208284031215611c4557600080fd5b6107dd82611b98565b60008060408385031215611c6157600080fd5b50508035926020909101359150565b60008060408385031215611c8357600080fd5b82359150611c9360208401611b98565b90509250929050565b60008060408385031215611caf57600080fd5b611cb883611b98565b9150611c9360208401611b98565b600080600060608486031215611cdb57600080fd5b83359250611ceb60208501611b98565b9150611cf960408501611b98565b90509250925092565b600060208284031215611d1457600080fd5b5051919050565b600181811c90821680611d2f57607f821691505b602082108103611d4f57634e487b7160e01b600052602260045260246000fd5b50919050565b634e487b7160e01b600052601160045260246000fd5b8082018082111561078c5761078c611d55565b600181815b80851115611db9578160001904821115611d9f57611d9f611d55565b80851615611dac57918102915b93841c9390800290611d83565b509250929050565b600082611dd05750600161078c565b81611ddd5750600061078c565b8160018114611df35760028114611dfd57611e19565b600191505061078c565b60ff841115611e0e57611e0e611d55565b50506001821b61078c565b5060208310610133831016604e8410600b8410161715611e3c575081810a61078c565b611e468383611d7e565b8060001904821115611e5a57611e5a611d55565b029392505050565b60006107dd60ff841683611dc1565b8181038181111561078c5761078c611d55565b634e487b7160e01b600052602160045260246000fd5b634e487b7160e01b600052601260045260246000fd5b600060208284031215611ec257600080fd5b815180151581146107dd57600080fd5b60008251611ee4818460208701611b41565b919091019291505056fea264697066735822122068725a10bc8b88fb411892697965032ea2ffa57429e961adf958c044673861c864736f6c63430008100033",
  "linkReferences": {},
  "deployedLinkReferences": {}
}