{
  "_format": "hh-sol-artifact-1",
  "contractName": "UZD",
  "sourceName": "contracts/UZD.sol",
  "abi": [
    {
      "inputs": [],
      "stateMutability": "nonpayable",
      "type": "constructor"
    },
    {
      "anonymous": false,
      "inputs": [
        {
          "indexed": true,
          "internalType": "address",
          "name": "owner",
          "type": "address"
        },
        {
          "indexed": true,
          "internalType": "address",
          "name": "spender",
          "type": "address"
        },
        {
          "indexed": false,
          "internalType": "uint256",
          "name": "value",
          "type": "uint256"
        }
      ],
      "name": "Approval",
      "type": "event"
    },
    {
      "anonymous": false,
      "inputs": [
        {
          "indexed": false,
          "internalType": "uint256",
          "name": "newAssetPriceCacheDuration",
          "type": "uint256"
        },
        {
          "indexed": false,
          "internalType": "uint256",
          "name": "oldAssetPriceCacheDuration",
          "type": "uint256"
        }
      ],
      "name": "AssetPriceCacheDurationSet",
      "type": "event"
    },
    {
      "anonymous": false,
      "inputs": [
        {
          "indexed": false,
          "internalType": "uint256",
          "name": "blockNumber",
          "type": "uint256"
        },
        {
          "indexed": false,
          "internalType": "uint256",
          "name": "assetPrice",
          "type": "uint256"
        }
      ],
      "name": "CachedAssetPrice",
      "type": "event"
    },
    {
      "anonymous": false,
      "inputs": [
        {
          "indexed": false,
          "internalType": "uint256",
          "name": "dailyDepositDuration",
          "type": "uint256"
        },
        {
          "indexed": false,
          "internalType": "uint256",
          "name": "dailyDepositLimit",
          "type": "uint256"
        }
      ],
      "name": "DailyDepositParamsChanged",
      "type": "event"
    },
    {
      "anonymous": false,
      "inputs": [
        {
          "indexed": false,
          "internalType": "uint256",
          "name": "dailyWithdrawDuration",
          "type": "uint256"
        },
        {
          "indexed": false,
          "internalType": "uint256",
          "name": "dailyWithdrawLimit",
          "type": "uint256"
        }
      ],
      "name": "DailyWithdrawParamsChanged",
      "type": "event"
    },
    {
      "anonymous": false,
      "inputs": [
        {
          "indexed": true,
          "internalType": "address",
          "name": "caller",
          "type": "address"
        },
        {
          "indexed": true,
          "internalType": "address",
          "name": "owner",
          "type": "address"
        },
        {
          "indexed": false,
          "internalType": "uint256",
          "name": "value",
          "type": "uint256"
        },
        {
          "indexed": false,
          "internalType": "uint256",
          "name": "nominal",
          "type": "uint256"
        }
      ],
      "name": "Deposit",
      "type": "event"
    },
    {
      "anonymous": false,
      "inputs": [
        {
          "indexed": false,
          "internalType": "address",
          "name": "feeDistributor",
          "type": "address"
        }
      ],
      "name": "FeeDistributorChanged",
      "type": "event"
    },
    {
      "anonymous": false,
      "inputs": [
        {
          "indexed": true,
          "internalType": "bytes32",
          "name": "role",
          "type": "bytes32"
        },
        {
          "indexed": true,
          "internalType": "bytes32",
          "name": "previousAdminRole",
          "type": "bytes32"
        },
        {
          "indexed": true,
          "internalType": "bytes32",
          "name": "newAdminRole",
          "type": "bytes32"
        }
      ],
      "name": "RoleAdminChanged",
      "type": "event"
    },
    {
      "anonymous": false,
      "inputs": [
        {
          "indexed": true,
          "internalType": "bytes32",
          "name": "role",
          "type": "bytes32"
        },
        {
          "indexed": true,
          "internalType": "address",
          "name": "account",
          "type": "address"
        },
        {
          "indexed": true,
          "internalType": "address",
          "name": "sender",
          "type": "address"
        }
      ],
      "name": "RoleGranted",
      "type": "event"
    },
    {
      "anonymous": false,
      "inputs": [
        {
          "indexed": true,
          "internalType": "bytes32",
          "name": "role",
          "type": "bytes32"
        },
        {
          "indexed": true,
          "internalType": "address",
          "name": "account",
          "type": "address"
        },
        {
          "indexed": true,
          "internalType": "address",
          "name": "sender",
          "type": "address"
        }
      ],
      "name": "RoleRevoked",
      "type": "event"
    },
    {
      "anonymous": false,
      "inputs": [
        {
          "indexed": true,
          "internalType": "address",
          "name": "from",
          "type": "address"
        },
        {
          "indexed": true,
          "internalType": "address",
          "name": "to",
          "type": "address"
        },
        {
          "indexed": false,
          "internalType": "uint256",
          "name": "value",
          "type": "uint256"
        }
      ],
      "name": "Transfer",
      "type": "event"
    },
    {
      "anonymous": false,
      "inputs": [
        {
          "indexed": true,
          "internalType": "address",
          "name": "caller",
          "type": "address"
        },
        {
          "indexed": true,
          "internalType": "address",
          "name": "receiver",
          "type": "address"
        },
        {
          "indexed": true,
          "internalType": "address",
          "name": "owner",
          "type": "address"
        },
        {
          "indexed": false,
          "internalType": "uint256",
          "name": "value",
          "type": "uint256"
        },
        {
          "indexed": false,
          "internalType": "uint256",
          "name": "nominal",
          "type": "uint256"
        },
        {
          "indexed": false,
          "internalType": "uint256",
          "name": "fee",
          "type": "uint256"
        }
      ],
      "name": "Withdraw",
      "type": "event"
    },
    {
      "anonymous": false,
      "inputs": [
        {
          "indexed": false,
          "internalType": "uint256",
          "name": "withdrawFee",
          "type": "uint256"
        }
      ],
      "name": "WithdrawFeeChanged",
      "type": "event"
    },
    {
      "inputs": [],
      "name": "DEFAULT_ADMIN_ROLE",
      "outputs": [
        {
          "internalType": "bytes32",
          "name": "",
          "type": "bytes32"
        }
      ],
      "stateMutability": "view",
      "type": "function"
    },
    {
      "inputs": [],
      "name": "DEFAULT_DECIMALS",
      "outputs": [
        {
          "internalType": "uint8",
          "name": "",
          "type": "uint8"
        }
      ],
      "stateMutability": "view",
      "type": "function"
    },
    {
      "inputs": [],
      "name": "DEFAULT_DECIMALS_FACTOR",
      "outputs": [
        {
          "internalType": "uint256",
          "name": "",
          "type": "uint256"
        }
      ],
      "stateMutability": "view",
      "type": "function"
    },
    {
      "inputs": [],
      "name": "FEE_DENOMINATOR",
      "outputs": [
        {
          "internalType": "uint256",
          "name": "",
          "type": "uint256"
        }
      ],
      "stateMutability": "view",
      "type": "function"
    },
    {
      "inputs": [],
      "name": "MAX_FEE",
      "outputs": [
        {
          "internalType": "uint256",
          "name": "",
          "type": "uint256"
        }
      ],
      "stateMutability": "view",
      "type": "function"
    },
    {
      "inputs": [],
      "name": "REBALANCER_ROLE",
      "outputs": [
        {
          "internalType": "bytes32",
          "name": "",
          "type": "bytes32"
        }
      ],
      "stateMutability": "view",
      "type": "function"
    },
    {
      "inputs": [],
      "name": "ZUNAMI",
      "outputs": [
        {
          "internalType": "address",
          "name": "",
          "type": "address"
        }
      ],
      "stateMutability": "view",
      "type": "function"
    },
    {
      "inputs": [
        {
          "internalType": "address",
          "name": "owner",
          "type": "address"
        },
        {
          "internalType": "address",
          "name": "spender",
          "type": "address"
        }
      ],
      "name": "allowance",
      "outputs": [
        {
          "internalType": "uint256",
          "name": "",
          "type": "uint256"
        }
      ],
      "stateMutability": "view",
      "type": "function"
    },
    {
      "inputs": [
        {
          "internalType": "address",
          "name": "owner",
          "type": "address"
        },
        {
          "internalType": "address",
          "name": "spender",
          "type": "address"
        }
      ],
      "name": "allowanceNominal",
      "outputs": [
        {
          "internalType": "uint256",
          "name": "",
          "type": "uint256"
        }
      ],
      "stateMutability": "view",
      "type": "function"
    },
    {
      "inputs": [
        {
          "internalType": "address",
          "name": "spender",
          "type": "address"
        },
        {
          "internalType": "uint256",
          "name": "amount",
          "type": "uint256"
        }
      ],
      "name": "approve",
      "outputs": [
        {
          "internalType": "bool",
          "name": "",
          "type": "bool"
        }
      ],
      "stateMutability": "nonpayable",
      "type": "function"
    },
    {
      "inputs": [],
      "name": "asset",
      "outputs": [
        {
          "internalType": "address",
          "name": "",
          "type": "address"
        }
      ],
      "stateMutability": "view",
      "type": "function"
    },
    {
      "inputs": [],
      "name": "assetPrice",
      "outputs": [
        {
          "internalType": "uint256",
          "name": "",
          "type": "uint256"
        }
      ],
      "stateMutability": "view",
      "type": "function"
    },
    {
      "inputs": [],
      "name": "assetPriceCacheDuration",
      "outputs": [
        {
          "internalType": "uint256",
          "name": "",
          "type": "uint256"
        }
      ],
      "stateMutability": "view",
      "type": "function"
    },
    {
      "inputs": [],
      "name": "assetPriceCached",
      "outputs": [
        {
          "internalType": "uint256",
          "name": "",
          "type": "uint256"
        }
      ],
      "stateMutability": "view",
      "type": "function"
    },
    {
      "inputs": [
        {
          "internalType": "address",
          "name": "account",
          "type": "address"
        }
      ],
      "name": "balanceOf",
      "outputs": [
        {
          "internalType": "uint256",
          "name": "",
          "type": "uint256"
        }
      ],
      "stateMutability": "view",
      "type": "function"
    },
    {
      "inputs": [
        {
          "internalType": "address",
          "name": "account",
          "type": "address"
        }
      ],
      "name": "balanceOfNominal",
      "outputs": [
        {
          "internalType": "uint256",
          "name": "",
          "type": "uint256"
        }
      ],
      "stateMutability": "view",
      "type": "function"
    },
    {
      "inputs": [],
      "name": "blockCached",
      "outputs": [
        {
          "internalType": "uint256",
          "name": "",
          "type": "uint256"
        }
      ],
      "stateMutability": "view",
      "type": "function"
    },
    {
      "inputs": [],
      "name": "cacheAssetPrice",
      "outputs": [],
      "stateMutability": "nonpayable",
      "type": "function"
    },
    {
      "inputs": [
        {
          "internalType": "uint256",
          "name": "dailyDepositDuration_",
          "type": "uint256"
        },
        {
          "internalType": "uint256",
          "name": "dailyDepositLimit_",
          "type": "uint256"
        }
      ],
      "name": "changeDailyDepositParams",
      "outputs": [],
      "stateMutability": "nonpayable",
      "type": "function"
    },
    {
      "inputs": [
        {
          "internalType": "uint256",
          "name": "dailyWithdrawDuration_",
          "type": "uint256"
        },
        {
          "internalType": "uint256",
          "name": "dailyWithdrawLimit_",
          "type": "uint256"
        }
      ],
      "name": "changeDailyWithdrawParams",
      "outputs": [],
      "stateMutability": "nonpayable",
      "type": "function"
    },
    {
      "inputs": [
        {
          "internalType": "address",
          "name": "feeDistributor_",
          "type": "address"
        }
      ],
      "name": "changeFeeDistributor",
      "outputs": [],
      "stateMutability": "nonpayable",
      "type": "function"
    },
    {
      "inputs": [
        {
          "internalType": "uint256",
          "name": "withdrawFee_",
          "type": "uint256"
        }
      ],
      "name": "changeWithdrawFee",
      "outputs": [],
      "stateMutability": "nonpayable",
      "type": "function"
    },
    {
      "inputs": [
        {
          "internalType": "uint256",
          "name": "value",
          "type": "uint256"
        }
      ],
      "name": "convertToNominal",
      "outputs": [
        {
          "internalType": "uint256",
          "name": "nominal",
          "type": "uint256"
        }
      ],
      "stateMutability": "view",
      "type": "function"
    },
    {
      "inputs": [
        {
          "internalType": "uint256",
          "name": "nominal",
          "type": "uint256"
        }
      ],
      "name": "convertToValue",
      "outputs": [
        {
          "internalType": "uint256",
          "name": "value",
          "type": "uint256"
        }
      ],
      "stateMutability": "view",
      "type": "function"
    },
    {
      "inputs": [],
      "name": "dailyDepositCountingBlock",
      "outputs": [
        {
          "internalType": "uint256",
          "name": "",
          "type": "uint256"
        }
      ],
      "stateMutability": "view",
      "type": "function"
    },
    {
      "inputs": [],
      "name": "dailyDepositDuration",
      "outputs": [
        {
          "internalType": "uint256",
          "name": "",
          "type": "uint256"
        }
      ],
      "stateMutability": "view",
      "type": "function"
    },
    {
      "inputs": [],
      "name": "dailyDepositLimit",
      "outputs": [
        {
          "internalType": "uint256",
          "name": "",
          "type": "uint256"
        }
      ],
      "stateMutability": "view",
      "type": "function"
    },
    {
      "inputs": [],
      "name": "dailyDepositTotal",
      "outputs": [
        {
          "internalType": "uint256",
          "name": "",
          "type": "uint256"
        }
      ],
      "stateMutability": "view",
      "type": "function"
    },
    {
      "inputs": [],
      "name": "dailyWithdrawCountingBlock",
      "outputs": [
        {
          "internalType": "uint256",
          "name": "",
          "type": "uint256"
        }
      ],
      "stateMutability": "view",
      "type": "function"
    },
    {
      "inputs": [],
      "name": "dailyWithdrawDuration",
      "outputs": [
        {
          "internalType": "uint256",
          "name": "",
          "type": "uint256"
        }
      ],
      "stateMutability": "view",
      "type": "function"
    },
    {
      "inputs": [],
      "name": "dailyWithdrawLimit",
      "outputs": [
        {
          "internalType": "uint256",
          "name": "",
          "type": "uint256"
        }
      ],
      "stateMutability": "view",
      "type": "function"
    },
    {
      "inputs": [],
      "name": "dailyWithdrawTotal",
      "outputs": [
        {
          "internalType": "uint256",
          "name": "",
          "type": "uint256"
        }
      ],
      "stateMutability": "view",
      "type": "function"
    },
    {
      "inputs": [],
      "name": "decimals",
      "outputs": [
        {
          "internalType": "uint8",
          "name": "",
          "type": "uint8"
        }
      ],
      "stateMutability": "view",
      "type": "function"
    },
    {
      "inputs": [
        {
          "internalType": "address",
          "name": "spender",
          "type": "address"
        },
        {
          "internalType": "uint256",
          "name": "subtractedValue",
          "type": "uint256"
        }
      ],
      "name": "decreaseAllowance",
      "outputs": [
        {
          "internalType": "bool",
          "name": "",
          "type": "bool"
        }
      ],
      "stateMutability": "nonpayable",
      "type": "function"
    },
    {
      "inputs": [
        {
          "internalType": "uint256",
          "name": "nominal",
          "type": "uint256"
        },
        {
          "internalType": "address",
          "name": "receiver",
          "type": "address"
        }
      ],
      "name": "deposit",
      "outputs": [
        {
          "internalType": "uint256",
          "name": "",
          "type": "uint256"
        }
      ],
      "stateMutability": "nonpayable",
      "type": "function"
    },
    {
      "inputs": [],
      "name": "feeDistributor",
      "outputs": [
        {
          "internalType": "address",
          "name": "",
          "type": "address"
        }
      ],
      "stateMutability": "view",
      "type": "function"
    },
    {
      "inputs": [
        {
          "internalType": "bytes32",
          "name": "role",
          "type": "bytes32"
        }
      ],
      "name": "getRoleAdmin",
      "outputs": [
        {
          "internalType": "bytes32",
          "name": "",
          "type": "bytes32"
        }
      ],
      "stateMutability": "view",
      "type": "function"
    },
    {
      "inputs": [
        {
          "internalType": "bytes32",
          "name": "role",
          "type": "bytes32"
        },
        {
          "internalType": "address",
          "name": "account",
          "type": "address"
        }
      ],
      "name": "grantRole",
      "outputs": [],
      "stateMutability": "nonpayable",
      "type": "function"
    },
    {
      "inputs": [
        {
          "internalType": "bytes32",
          "name": "role",
          "type": "bytes32"
        },
        {
          "internalType": "address",
          "name": "account",
          "type": "address"
        }
      ],
      "name": "hasRole",
      "outputs": [
        {
          "internalType": "bool",
          "name": "",
          "type": "bool"
        }
      ],
      "stateMutability": "view",
      "type": "function"
    },
    {
      "inputs": [
        {
          "internalType": "address",
          "name": "spender",
          "type": "address"
        },
        {
          "internalType": "uint256",
          "name": "addedValue",
          "type": "uint256"
        }
      ],
      "name": "increaseAllowance",
      "outputs": [
        {
          "internalType": "bool",
          "name": "",
          "type": "bool"
        }
      ],
      "stateMutability": "nonpayable",
      "type": "function"
    },
    {
      "inputs": [
        {
          "internalType": "address",
          "name": "",
          "type": "address"
        }
      ],
      "name": "maxDeposit",
      "outputs": [
        {
          "internalType": "uint256",
          "name": "",
          "type": "uint256"
        }
      ],
      "stateMutability": "view",
      "type": "function"
    },
    {
      "inputs": [
        {
          "internalType": "address",
          "name": "owner",
          "type": "address"
        }
      ],
      "name": "maxWithdraw",
      "outputs": [
        {
          "internalType": "uint256",
          "name": "",
          "type": "uint256"
        }
      ],
      "stateMutability": "view",
      "type": "function"
    },
    {
      "inputs": [],
      "name": "name",
      "outputs": [
        {
          "internalType": "string",
          "name": "",
          "type": "string"
        }
      ],
      "stateMutability": "view",
      "type": "function"
    },
    {
      "inputs": [
        {
          "internalType": "uint256",
          "name": "nominal",
          "type": "uint256"
        }
      ],
      "name": "previewDeposit",
      "outputs": [
        {
          "internalType": "uint256",
          "name": "",
          "type": "uint256"
        }
      ],
      "stateMutability": "view",
      "type": "function"
    },
    {
      "inputs": [
        {
          "internalType": "uint256",
          "name": "value",
          "type": "uint256"
        }
      ],
      "name": "previewWithdraw",
      "outputs": [
        {
          "internalType": "uint256",
          "name": "",
          "type": "uint256"
        }
      ],
      "stateMutability": "view",
      "type": "function"
    },
    {
      "inputs": [],
      "name": "priceOracle",
      "outputs": [
        {
          "internalType": "contract IAssetPriceOracle",
          "name": "",
          "type": "address"
        }
      ],
      "stateMutability": "view",
      "type": "function"
    },
    {
      "inputs": [
        {
          "internalType": "bytes32",
          "name": "role",
          "type": "bytes32"
        },
        {
          "internalType": "address",
          "name": "account",
          "type": "address"
        }
      ],
      "name": "renounceRole",
      "outputs": [],
      "stateMutability": "nonpayable",
      "type": "function"
    },
    {
      "inputs": [
        {
          "internalType": "bytes32",
          "name": "role",
          "type": "bytes32"
        },
        {
          "internalType": "address",
          "name": "account",
          "type": "address"
        }
      ],
      "name": "revokeRole",
      "outputs": [],
      "stateMutability": "nonpayable",
      "type": "function"
    },
    {
      "inputs": [
        {
          "internalType": "uint256",
          "name": "assetPriceCacheDuration_",
          "type": "uint256"
        }
      ],
      "name": "setAssetPriceCacheDuration",
      "outputs": [],
      "stateMutability": "nonpayable",
      "type": "function"
    },
    {
      "inputs": [
        {
          "internalType": "bytes4",
          "name": "interfaceId",
          "type": "bytes4"
        }
      ],
      "name": "supportsInterface",
      "outputs": [
        {
          "internalType": "bool",
          "name": "",
          "type": "bool"
        }
      ],
      "stateMutability": "view",
      "type": "function"
    },
    {
      "inputs": [],
      "name": "symbol",
      "outputs": [
        {
          "internalType": "string",
          "name": "",
          "type": "string"
        }
      ],
      "stateMutability": "view",
      "type": "function"
    },
    {
      "inputs": [],
      "name": "totalAssets",
      "outputs": [
        {
          "internalType": "uint256",
          "name": "",
          "type": "uint256"
        }
      ],
      "stateMutability": "view",
      "type": "function"
    },
    {
      "inputs": [],
      "name": "totalSupply",
      "outputs": [
        {
          "internalType": "uint256",
          "name": "",
          "type": "uint256"
        }
      ],
      "stateMutability": "view",
      "type": "function"
    },
    {
      "inputs": [],
      "name": "totalSupplyNominal",
      "outputs": [
        {
          "internalType": "uint256",
          "name": "",
          "type": "uint256"
        }
      ],
      "stateMutability": "view",
      "type": "function"
    },
    {
      "inputs": [
        {
          "internalType": "address",
          "name": "to",
          "type": "address"
        },
        {
          "internalType": "uint256",
          "name": "amount",
          "type": "uint256"
        }
      ],
      "name": "transfer",
      "outputs": [
        {
          "internalType": "bool",
          "name": "",
          "type": "bool"
        }
      ],
      "stateMutability": "nonpayable",
      "type": "function"
    },
    {
      "inputs": [
        {
          "internalType": "address",
          "name": "from",
          "type": "address"
        },
        {
          "internalType": "address",
          "name": "to",
          "type": "address"
        },
        {
          "internalType": "uint256",
          "name": "amount",
          "type": "uint256"
        }
      ],
      "name": "transferFrom",
      "outputs": [
        {
          "internalType": "bool",
          "name": "",
          "type": "bool"
        }
      ],
      "stateMutability": "nonpayable",
      "type": "function"
    },
    {
      "inputs": [
        {
          "internalType": "uint256",
          "name": "value",
          "type": "uint256"
        },
        {
          "internalType": "address",
          "name": "receiver",
          "type": "address"
        },
        {
          "internalType": "address",
          "name": "owner",
          "type": "address"
        }
      ],
      "name": "withdraw",
      "outputs": [
        {
          "internalType": "uint256",
          "name": "",
          "type": "uint256"
        }
      ],
      "stateMutability": "nonpayable",
      "type": "function"
    },
    {
      "inputs": [
        {
          "internalType": "address",
          "name": "receiver",
          "type": "address"
        },
        {
          "internalType": "address",
          "name": "owner",
          "type": "address"
        }
      ],
      "name": "withdrawAll",
      "outputs": [
        {
          "internalType": "uint256",
          "name": "",
          "type": "uint256"
        }
      ],
      "stateMutability": "nonpayable",
      "type": "function"
    },
    {
      "inputs": [],
      "name": "withdrawFee",
      "outputs": [
        {
          "internalType": "uint256",
          "name": "",
          "type": "uint256"
        }
      ],
      "stateMutability": "view",
      "type": "function"
    }
  ],
  "bytecode": "0x60a06040526104b06013553480156200001757600080fd5b50732ffcc661011bec72e1a9524e12060983e74d14ce8060405180604001604052806011815260200170555a44205a756e616d6920537461626c6560781b8152506040518060400160405280600381526020016215569160ea1b81525081600590816200008591906200035c565b5060066200009482826200035c565b5050506001600160a01b0316608052620000b06000336200012b565b6001600160a01b038116620000ff5760405162461bcd60e51b81526020600482015260116024820152705a65726f207072696365206f7261636c6560781b604482015260640160405180910390fd5b601280546001600160a01b0319166001600160a01b038316179055620001246200013b565b5062000442565b6200013782826200019d565b5050565b4360009081556200014b62000241565b90508060015410156200019a57600181905560005460408051918252602082018390527f62dab94e09b78e75a0061bc7dc0cb484f20d08688f8a8b242aab2da8bfc148c5910160405180910390a15b50565b60008281526007602090815260408083206001600160a01b038516845290915290205460ff16620001375760008281526007602090815260408083206001600160a01b03851684529091529020805460ff19166001179055620001fd3390565b6001600160a01b0316816001600160a01b0316837f2f8788117e7eff1d82e926ec794901d17c78024a50270940304540a733656f0d60405160405180910390a45050565b6012546040805163030a011160e21b815290516000926001600160a01b031691630c2804449160048083019260209291908290030181865afa1580156200028c573d6000803e3d6000fd5b505050506040513d601f19601f82011682018060405250810190620002b2919062000428565b905090565b634e487b7160e01b600052604160045260246000fd5b600181811c90821680620002e257607f821691505b6020821081036200030357634e487b7160e01b600052602260045260246000fd5b50919050565b601f8211156200035757600081815260208120601f850160051c81016020861015620003325750805b601f850160051c820191505b8181101562000353578281556001016200033e565b5050505b505050565b81516001600160401b03811115620003785762000378620002b7565b6200039081620003898454620002cd565b8462000309565b602080601f831160018114620003c85760008415620003af5750858301515b600019600386901b1c1916600185901b17855562000353565b600085815260208120601f198616915b82811015620003f957888601518255948401946001909101908401620003d8565b5085821015620004185787850151600019600388901b60f8161c191681555b5050505050600190811b01905550565b6000602082840312156200043b57600080fd5b5051919050565b6080516126756200047a6000396000818161051a015281816107bd0152818161120f0152818161171f01526118a001526126756000f3fe608060405234801561001057600080fd5b50600436106103995760003560e01c8063775728b4116101e9578063c5008f461161010f578063da573971116100ad578063ea0d5c521161007c578063ea0d5c5214610777578063ef8b30f71461071f578063f12b59c91461077f578063f171d3721461079257600080fd5b8063da5739711461071f578063dd62ed3e14610732578063e7aa5f9814610745578063e941fa781461076e57600080fd5b8063d24378eb116100e9578063d24378eb146106f2578063d341ea79146106fa578063d547741f14610702578063d73792a91461071557600080fd5b8063c5008f46146106ce578063cda9109d146106d6578063ce96cb77146106df57600080fd5b8063a217fddf11610187578063ace687eb11610156578063ace687eb14610696578063b460af941461069f578063bc063e1a146106b2578063bcf88d19146106bb57600080fd5b8063a217fddf14610655578063a457c2d71461065d578063a893c9be14610670578063a9059cbb1461068357600080fd5b806391d14854116101c357806391d1485414610629578063941787871461063c57806395d89b41146106445780639d1abff11461064c57600080fd5b8063775728b4146105de57806379750c59146105e7578063906f09531461062057600080fd5b80632e400d59116102ce578063407b99451161026c578063607258a91161023b578063607258a91461059d5780636e553f65146105a557806370749050146105b857806370a08231146105cb57600080fd5b8063407b99451461056457806342d0d5171461056c578063490b48f81461057557806359be38121461058a57600080fd5b806336568abe116102a857806336568abe1461050557806338d52e0f14610518578063395093511461053e578063402d267d1461055157600080fd5b80632e400d59146104c05780632f2ff15d146104db578063313ce567146104f057600080fd5b80630a28a4771161033b5780631d375458116103155780631d3754581461046f57806323b872dd14610477578063248a9ca31461048a5780632630c12f146104ad57600080fd5b80630a28a477146104295780630d43e8ad1461043c57806318160ddd1461046757600080fd5b806306ea482d1161037757806306ea482d146103e557806306fdde03146103ee578063095ea7b31461040357806309cae2c81461041657600080fd5b806301e1d1141461039e57806301ffc9a7146103b957806305b941cd146103dc575b600080fd5b6103a66107a5565b6040519081526020015b60405180910390f35b6103cc6103c7366004612171565b610835565b60405190151581526020016103b0565b6103a660115481565b6103a6600f5481565b6103f661086c565b6040516103b091906121bf565b6103cc61041136600461220e565b6108fe565b6103a6610424366004612238565b610914565b6103a661043736600461226b565b61094f565b60095461044f906001600160a01b031681565b6040516001600160a01b0390911681526020016103b0565b6103a6610985565b6000546103a6565b6103cc610485366004612284565b610994565b6103a661049836600461226b565b60009081526007602052604090206001015490565b60125461044f906001600160a01b031681565b61044f732ffcc661011bec72e1a9524e12060983e74d14ce81565b6104ee6104e93660046122c0565b6109c6565b005b60125b60405160ff90911681526020016103b0565b6104ee6105133660046122c0565b6109f0565b7f000000000000000000000000000000000000000000000000000000000000000061044f565b6103cc61054c36600461220e565b610a73565b6103a661055f3660046122e3565b610a9f565b6004546103a6565b6103a6600b5481565b6103a660008051602061262083398151915281565b6104ee6105983660046122fe565b610abd565b6001546103a6565b6103a66105b33660046122c0565b610b27565b6104ee6105c636600461226b565b610bae565b6103a66105d93660046122e3565b610bfc565b6103a6600a5481565b6103a66105f5366004612238565b6001600160a01b03918216600090815260036020908152604080832093909416825291909152205490565b6103a6600e5481565b6103cc6106373660046122c0565b610c1f565b6013546103a6565b6103f6610c4a565b6103a660105481565b6103a6600081565b6103cc61066b36600461220e565b610c59565b6104ee61067e36600461226b565b610cdb565b6103cc61069136600461220e565b610d75565b6103a6600d5481565b6103a66106ad366004612320565b610d8d565b6103a661c35081565b6103a66106c936600461226b565b610e15565b6104f3601281565b6103a6600c5481565b6103a66106ed3660046122e3565b610e22565b6103a6610e2d565b6104ee610e77565b6104ee6107103660046122c0565b610ed6565b6103a6620f424081565b6103a661072d36600461226b565b610efb565b6103a6610740366004612238565b610f08565b6103a66107533660046122e3565b6001600160a01b031660009081526002602052604090205490565b6103a660085481565b6103a6610f3a565b6104ee61078d3660046122e3565b610f49565b6104ee6107a03660046122fe565b610fef565b6040516370a0823160e01b81523060048201526000907f00000000000000000000000000000000000000000000000000000000000000006001600160a01b0316906370a0823190602401602060405180830381865afa15801561080c573d6000803e3d6000fd5b505050506040513d601f19601f82011682018060405250810190610830919061235c565b905090565b60006001600160e01b03198216637965db0b60e01b148061086657506301ffc9a760e01b6001600160e01b03198316145b92915050565b60606005805461087b90612375565b80601f01602080910402602001604051908101604052809291908181526020018280546108a790612375565b80156108f45780601f106108c9576101008083540402835291602001916108f4565b820191906000526020600020905b8154815290600101906020018083116108d757829003601f168201915b5050505050905090565b600061090b338484611050565b50600192915050565b6001600160a01b038116600090815260026020526040812054600061093884611193565b905061094733868684866111b7565b509392505050565b6000806109663361096185600061129a565b6112ca565b90508061097484600061129a565b61097e91906123c5565b9392505050565b6000610830600454600061130b565b6000806109a2836001611337565b90506109af853385611353565b6109bb858583866113d9565b506001949350505050565b6000828152600760205260409020600101546109e1816115be565b6109eb83836115c8565b505050565b6001600160a01b0381163314610a655760405162461bcd60e51b815260206004820152602f60248201527f416363657373436f6e74726f6c3a2063616e206f6e6c792072656e6f756e636560448201526e103937b632b9903337b91039b2b63360891b60648201526084015b60405180910390fd5b610a6f828261164e565b5050565b600033610a95818585610a8683836116b5565b610a9091906123d8565b611050565b5060019392505050565b6000610aa96116e7565b610ab4576000610866565b60001992915050565b6000610ac8816115be565b600a839055600b8290556000600e5582610ae3576000610ae5565b435b600f5560408051848152602081018490527f83314fec07237044b65a214f49b821454fa880d5a4477a1a8e811351bc28598f91015b60405180910390a1505050565b6000610b3282610a9f565b831115610b8d5760405162461bcd60e51b815260206004820152602360248201527f456c61737469635661756c743a206465706f736974206d6f7265207468616e206044820152620dac2f60eb1b6064820152608401610a5c565b6000610b9884611701565b9050610ba63384838761170e565b509192915050565b6000610bb9816115be565b6013546040805184815260208101929092527f2a50c19cf30890e0c5dc45e788124b4e1075b09c4f02214cf49cb3e881fd49d6910160405180910390a150601355565b6001600160a01b038116600090815260026020526040812054610866908261130b565b60009182526007602090815260408084206001600160a01b0393909316845291905290205460ff1690565b60606006805461087b90612375565b60003381610c6782866116b5565b905083811015610cce5760405162461bcd60e51b815260206004820152602c60248201527f456c617374696345524332303a2064656372656173656420616c6c6f77616e6360448201526b652062656c6f77207a65726f60a01b6064820152608401610a5c565b6109bb8286868403611050565b6000610ce6816115be565b61c350821115610d385760405162461bcd60e51b815260206004820152601c60248201527f4269676765722074686174204d41585f46454520636f6e7374616e74000000006044820152606401610a5c565b60088290556040518281527fef51b055f1ac1490e0c230364c65b0a9eca534656954023b56053b78461678e4906020015b60405180910390a15050565b600061090b3384610d87856001611337565b856113d9565b6000610d9882611193565b841115610df35760405162461bcd60e51b8152602060048201526024808201527f456c61737469635661756c743a207769746864726177206d6f7265207468616e604482015263040dac2f60e31b6064820152608401610a5c565b6000610dfe856117ad565b9050610e0d33858588856111b7565b949350505050565b600061086682600061129a565b600061086682610bfc565b6012546040805163030a011160e21b815290516000926001600160a01b031691630c2804449160048083019260209291908290030181865afa15801561080c573d6000803e3d6000fd5b436000908155610e85610e2d565b9050806001541015610ed357600181905560005460408051918252602082018390527f62dab94e09b78e75a0061bc7dc0cb484f20d08688f8a8b242aab2da8bfc148c5910160405180910390a15b50565b600082815260076020526040902060010154610ef1816115be565b6109eb838361164e565b600061086682600061130b565b6001600160a01b03808316600090815260036020908152604080832093851683529290529081205461097e908261130b565b610f466012600a6124cf565b81565b6000610f54816115be565b6001600160a01b038216610fa15760405162461bcd60e51b81526020600482015260146024820152732d32b937903332b2903234b9ba3934b13aba37b960611b6044820152606401610a5c565b600980546001600160a01b0319166001600160a01b0384169081179091556040519081527fae5a12c29e496b092467a620746b9eaf4e0e231a631a4370c233b1fac38e8e2690602001610d69565b6000610ffa816115be565b600c839055600d829055600060105582611015576000611017565b435b60115560408051848152602081018490527f818b604817251fad1f084a1292a7a5ae0d5ed7eb36e5d344ab11370cc5c2fa269101610b1a565b6001600160a01b0383166110ba5760405162461bcd60e51b815260206004820152602b60248201527f456c617374696345524332303a20617070726f76652066726f6d20746865207a60448201526a65726f206164647265737360a81b6064820152608401610a5c565b6001600160a01b0382166111225760405162461bcd60e51b815260206004820152602960248201527f456c617374696345524332303a20617070726f766520746f20746865207a65726044820152686f206164647265737360b81b6064820152608401610a5c565b61112d816001611337565b6001600160a01b038481166000818152600360209081526040808320948816808452948252918290209490945551848152919290917f8c5be1e5ebec7d5bd14f71427d1e84f3dd0314c0f7b2291e5b200ac8c7c3b92591015b60405180910390a3505050565b6001600160a01b0381166000908152600260205260408120546108669060006117ba565b6111c485858585856117d6565b826001600160a01b0316856001600160a01b0316146111e8576111e8838684611353565b60006111f486836112ca565b90506111ff81611895565b61120a8483856118d1565b61123e7f00000000000000000000000000000000000000000000000000000000000000008661123984866123c5565b611a25565b60408051848152602081018490529081018290526001600160a01b0380861691878216918916907fbbbdee62287b5bf3bee13cab60a29ad729cf38109bccbd2a986a11c99b8ca7049060600160405180910390a4505050505050565b600060001983036112ae5750600019610866565b61097e6112bd6012600a6124cf565b6001545b85919085611a88565b6000806008541180156112f257506112f060008051602061262083398151915284610c1f565b155b156108665760085461097e908390620f42406000611a88565b6000600019830361131f5750600019610866565b61097e61132b60015490565b6112c16012600a6124cf565b6000600019830361134b5750600019610866565b6112ae611ae5565b600061135f84846116b5565b905060001981146113d357818110156113c65760405162461bcd60e51b8152602060048201526024808201527f456c617374696345524332303a20696e73756666696369656e7420616c6c6f77604482015263616e636560e01b6064820152608401610a5c565b6113d38484848403611050565b50505050565b6001600160a01b0384166114445760405162461bcd60e51b815260206004820152602c60248201527f456c617374696345524332303a207472616e736665722066726f6d207468652060448201526b7a65726f206164647265737360a01b6064820152608401610a5c565b6001600160a01b0383166114ad5760405162461bcd60e51b815260206004820152602a60248201527f456c617374696345524332303a207472616e7366657220746f20746865207a65604482015269726f206164647265737360b01b6064820152608401610a5c565b6001600160a01b0384166000908152600260205260409020548281101561152c5760405162461bcd60e51b815260206004820152602d60248201527f456c617374696345524332303a207472616e7366657220616d6f756e7420657860448201526c63656564732062616c616e636560981b6064820152608401610a5c565b6001600160a01b038086166000908152600260205260408082208685039055918616815290812080548592906115639084906123d8565b92505081905550836001600160a01b0316856001600160a01b03167fddf252ad1be2c89b69c2b068fc378daa952ba7f163c4a11628f55a4df523b3ef846040516115af91815260200190565b60405180910390a35050505050565b610ed38133611b05565b6115d28282610c1f565b610a6f5760008281526007602090815260408083206001600160a01b03851684529091529020805460ff1916600117905561160a3390565b6001600160a01b0316816001600160a01b0316837f2f8788117e7eff1d82e926ec794901d17c78024a50270940304540a733656f0d60405160405180910390a45050565b6116588282610c1f565b15610a6f5760008281526007602090815260408083206001600160a01b0385168085529252808320805460ff1916905551339285917ff6391f5c32d9c69d2a47ea670b442974b53935d1edc7fd64eb21e047a839171b9190a45050565b6001600160a01b03808316600090815260036020908152604080832093851683529290529081205461097e90826117ba565b6000806116f26107a5565b11806108305750506004541590565b60006108668260006117ba565b61171a84848484611b69565b6117467f0000000000000000000000000000000000000000000000000000000000000000853084611c21565b611751838284611c59565b826001600160a01b0316846001600160a01b03167fdcbc1c05240f31ff3ad067ef1ee35ce4997762752e3a095284754544f4c709d7848460405161179f929190918252602082015260400190565b60405180910390a350505050565b6000610866826000611337565b600060001983036117ce5750600019610866565b61131f611ae5565b6000600c541180156117fd57506117fb60008051602061262083398151915286610c1f565b155b1561188e57600c5460115461181291906123d8565b431115611823576000601055436011555b816010600082825461183591906123d8565b9091555050600d54601054111561188e5760405162461bcd60e51b815260206004820152601d60248201527f4461696c79207769746864726177206c696d6974206f766572666c6f770000006044820152606401610a5c565b5050505050565b8015610ed357610ed37f00000000000000000000000000000000000000000000000000000000000000006009546001600160a01b031683611a25565b6001600160a01b0383166119385760405162461bcd60e51b815260206004820152602860248201527f456c617374696345524332303a206275726e2066726f6d20746865207a65726f604482015267206164647265737360c01b6064820152608401610a5c565b6001600160a01b038316600090815260026020526040902054828110156119b35760405162461bcd60e51b815260206004820152602960248201527f456c617374696345524332303a206275726e20616d6f756e7420657863656564604482015268732062616c616e636560b81b6064820152608401610a5c565b6001600160a01b03841660009081526002602052604081208483039055600480548592906119e29084906123c5565b90915550506040518281526000906001600160a01b038616907fddf252ad1be2c89b69c2b068fc378daa952ba7f163c4a11628f55a4df523b3ef9060200161179f565b6040516001600160a01b0383166024820152604481018290526109eb90849063a9059cbb60e01b906064015b60408051601f198184030181529190526020810180516001600160e01b03166001600160e01b031990931692909217909152611d40565b600080611a96868686611e12565b90506001836002811115611aac57611aac6124de565b148015611ac9575060008480611ac457611ac46124f4565b868809115b15611adc57611ad96001826123d8565b90505b95945050505050565b601354600054611af591906123d8565b4310611b0357611b03610e77565b565b611b0f8282610c1f565b610a6f57611b27816001600160a01b03166014611ec1565b611b32836020611ec1565b604051602001611b4392919061250a565b60408051601f198184030181529082905262461bcd60e51b8252610a5c916004016121bf565b6000600a54118015611b905750611b8e60008051602061262083398151915285610c1f565b155b156113d357600a54600f54611ba591906123d8565b431115611bb6576000600e5543600f555b81600e6000828254611bc891906123d8565b9091555050600b54600e5411156113d35760405162461bcd60e51b815260206004820152601c60248201527f4461696c79206465706f736974206c696d6974206f766572666c6f77000000006044820152606401610a5c565b6040516001600160a01b03808516602483015283166044820152606481018290526113d39085906323b872dd60e01b90608401611a51565b6001600160a01b038316611cbe5760405162461bcd60e51b815260206004820152602660248201527f456c617374696345524332303a206d696e7420746f20746865207a65726f206160448201526564647265737360d01b6064820152608401610a5c565b8160046000828254611cd091906123d8565b90915550506001600160a01b03831660009081526002602052604081208054849290611cfd9084906123d8565b90915550506040518181526001600160a01b038416906000907fddf252ad1be2c89b69c2b068fc378daa952ba7f163c4a11628f55a4df523b3ef90602001611186565b6000611d95826040518060400160405280602081526020017f5361666545524332303a206c6f772d6c6576656c2063616c6c206661696c6564815250856001600160a01b031661205d9092919063ffffffff16565b8051909150156109eb5780806020019051810190611db3919061257f565b6109eb5760405162461bcd60e51b815260206004820152602a60248201527f5361666545524332303a204552433230206f7065726174696f6e20646964206e6044820152691bdd081cdd58d8d9595960b21b6064820152608401610a5c565b6000808060001985870985870292508281108382030391505080600003611e4c57838281611e4257611e426124f4565b049250505061097e565b808411611e5857600080fd5b60008486880960026001871981018816978890046003810283188082028403028082028403028082028403028082028403028082028403029081029092039091026000889003889004909101858311909403939093029303949094049190911702949350505050565b60606000611ed08360026125a1565b611edb9060026123d8565b67ffffffffffffffff811115611ef357611ef36125c0565b6040519080825280601f01601f191660200182016040528015611f1d576020820181803683370190505b509050600360fc1b81600081518110611f3857611f386125d6565b60200101906001600160f81b031916908160001a905350600f60fb1b81600181518110611f6757611f676125d6565b60200101906001600160f81b031916908160001a9053506000611f8b8460026125a1565b611f969060016123d8565b90505b600181111561200e576f181899199a1a9b1b9c1cb0b131b232b360811b85600f1660108110611fca57611fca6125d6565b1a60f81b828281518110611fe057611fe06125d6565b60200101906001600160f81b031916908160001a90535060049490941c93612007816125ec565b9050611f99565b50831561097e5760405162461bcd60e51b815260206004820181905260248201527f537472696e67733a20686578206c656e67746820696e73756666696369656e746044820152606401610a5c565b6060610e0d8484600085856001600160a01b0385163b6120bf5760405162461bcd60e51b815260206004820152601d60248201527f416464726573733a2063616c6c20746f206e6f6e2d636f6e74726163740000006044820152606401610a5c565b600080866001600160a01b031685876040516120db9190612603565b60006040518083038185875af1925050503d8060008114612118576040519150601f19603f3d011682016040523d82523d6000602084013e61211d565b606091505b509150915061212d828286612138565b979650505050505050565b6060831561214757508161097e565b8251156121575782518084602001fd5b8160405162461bcd60e51b8152600401610a5c91906121bf565b60006020828403121561218357600080fd5b81356001600160e01b03198116811461097e57600080fd5b60005b838110156121b657818101518382015260200161219e565b50506000910152565b60208152600082518060208401526121de81604085016020870161219b565b601f01601f19169190910160400192915050565b80356001600160a01b038116811461220957600080fd5b919050565b6000806040838503121561222157600080fd5b61222a836121f2565b946020939093013593505050565b6000806040838503121561224b57600080fd5b612254836121f2565b9150612262602084016121f2565b90509250929050565b60006020828403121561227d57600080fd5b5035919050565b60008060006060848603121561229957600080fd5b6122a2846121f2565b92506122b0602085016121f2565b9150604084013590509250925092565b600080604083850312156122d357600080fd5b82359150612262602084016121f2565b6000602082840312156122f557600080fd5b61097e826121f2565b6000806040838503121561231157600080fd5b50508035926020909101359150565b60008060006060848603121561233557600080fd5b83359250612345602085016121f2565b9150612353604085016121f2565b90509250925092565b60006020828403121561236e57600080fd5b5051919050565b600181811c9082168061238957607f821691505b6020821081036123a957634e487b7160e01b600052602260045260246000fd5b50919050565b634e487b7160e01b600052601160045260246000fd5b81810381811115610866576108666123af565b80820180821115610866576108666123af565b600181815b8085111561242657816000190482111561240c5761240c6123af565b8085161561241957918102915b93841c93908002906123f0565b509250929050565b60008261243d57506001610866565b8161244a57506000610866565b8160018114612460576002811461246a57612486565b6001915050610866565b60ff84111561247b5761247b6123af565b50506001821b610866565b5060208310610133831016604e8410600b84101617156124a9575081810a610866565b6124b383836123eb565b80600019048211156124c7576124c76123af565b029392505050565b600061097e60ff84168361242e565b634e487b7160e01b600052602160045260246000fd5b634e487b7160e01b600052601260045260246000fd5b7f416363657373436f6e74726f6c3a206163636f756e742000000000000000000081526000835161254281601785016020880161219b565b7001034b99036b4b9b9b4b733903937b6329607d1b601791840191820152835161257381602884016020880161219b565b01602801949350505050565b60006020828403121561259157600080fd5b8151801515811461097e57600080fd5b60008160001904831182151516156125bb576125bb6123af565b500290565b634e487b7160e01b600052604160045260246000fd5b634e487b7160e01b600052603260045260246000fd5b6000816125fb576125fb6123af565b506000190190565b6000825161261581846020870161219b565b919091019291505056feccc64574297998b6c3edf6078cc5e01268465ff116954e3af02ff3a70a730f46a264697066735822122058041b0fd57169f35f5ccbf8cc5d590a9387538a18317885810e20a9380acd5c64736f6c63430008100033",
  "linkReferences": {},
  "deployedLinkReferences": {}
}