{
  "_format": "hh-sol-artifact-1",
  "contractName": "UZD",
  "sourceName": "contracts/UZD.sol",
  "abi": [
    {
      "inputs": [],
      "stateMutability": "nonpayable",
      "type": "constructor"
    },
    {
      "anonymous": false,
      "inputs": [
        {
          "indexed": true,
          "internalType": "address",
          "name": "owner",
          "type": "address"
        },
        {
          "indexed": true,
          "internalType": "address",
          "name": "spender",
          "type": "address"
        },
        {
          "indexed": false,
          "internalType": "uint256",
          "name": "value",
          "type": "uint256"
        }
      ],
      "name": "Approval",
      "type": "event"
    },
    {
      "anonymous": false,
      "inputs": [
        {
          "indexed": false,
          "internalType": "uint256",
          "name": "blockNumber",
          "type": "uint256"
        },
        {
          "indexed": false,
          "internalType": "uint256",
          "name": "assetPrice",
          "type": "uint256"
        }
      ],
      "name": "CachedAssetPrice",
      "type": "event"
    },
    {
      "anonymous": false,
      "inputs": [
        {
          "indexed": false,
          "internalType": "uint256",
          "name": "dailyDepositDuration",
          "type": "uint256"
        },
        {
          "indexed": false,
          "internalType": "uint256",
          "name": "dailyDepositLimit",
          "type": "uint256"
        }
      ],
      "name": "DailyDepositParamsChanged",
      "type": "event"
    },
    {
      "anonymous": false,
      "inputs": [
        {
          "indexed": false,
          "internalType": "uint256",
          "name": "dailyWithdrawDuration",
          "type": "uint256"
        },
        {
          "indexed": false,
          "internalType": "uint256",
          "name": "dailyWithdrawLimit",
          "type": "uint256"
        }
      ],
      "name": "DailyWithdrawParamsChanged",
      "type": "event"
    },
    {
      "anonymous": false,
      "inputs": [
        {
          "indexed": true,
          "internalType": "address",
          "name": "caller",
          "type": "address"
        },
        {
          "indexed": true,
          "internalType": "address",
          "name": "owner",
          "type": "address"
        },
        {
          "indexed": false,
          "internalType": "uint256",
          "name": "assets",
          "type": "uint256"
        },
        {
          "indexed": false,
          "internalType": "uint256",
          "name": "shares",
          "type": "uint256"
        }
      ],
      "name": "Deposit",
      "type": "event"
    },
    {
      "anonymous": false,
      "inputs": [
        {
          "indexed": false,
          "internalType": "address",
          "name": "feeDistributor",
          "type": "address"
        }
      ],
      "name": "FeeDistributorChanged",
      "type": "event"
    },
    {
      "anonymous": false,
      "inputs": [
        {
          "indexed": true,
          "internalType": "bytes32",
          "name": "role",
          "type": "bytes32"
        },
        {
          "indexed": true,
          "internalType": "bytes32",
          "name": "previousAdminRole",
          "type": "bytes32"
        },
        {
          "indexed": true,
          "internalType": "bytes32",
          "name": "newAdminRole",
          "type": "bytes32"
        }
      ],
      "name": "RoleAdminChanged",
      "type": "event"
    },
    {
      "anonymous": false,
      "inputs": [
        {
          "indexed": true,
          "internalType": "bytes32",
          "name": "role",
          "type": "bytes32"
        },
        {
          "indexed": true,
          "internalType": "address",
          "name": "account",
          "type": "address"
        },
        {
          "indexed": true,
          "internalType": "address",
          "name": "sender",
          "type": "address"
        }
      ],
      "name": "RoleGranted",
      "type": "event"
    },
    {
      "anonymous": false,
      "inputs": [
        {
          "indexed": true,
          "internalType": "bytes32",
          "name": "role",
          "type": "bytes32"
        },
        {
          "indexed": true,
          "internalType": "address",
          "name": "account",
          "type": "address"
        },
        {
          "indexed": true,
          "internalType": "address",
          "name": "sender",
          "type": "address"
        }
      ],
      "name": "RoleRevoked",
      "type": "event"
    },
    {
      "anonymous": false,
      "inputs": [
        {
          "indexed": true,
          "internalType": "address",
          "name": "from",
          "type": "address"
        },
        {
          "indexed": true,
          "internalType": "address",
          "name": "to",
          "type": "address"
        },
        {
          "indexed": false,
          "internalType": "uint256",
          "name": "value",
          "type": "uint256"
        }
      ],
      "name": "Transfer",
      "type": "event"
    },
    {
      "anonymous": false,
      "inputs": [
        {
          "indexed": true,
          "internalType": "address",
          "name": "caller",
          "type": "address"
        },
        {
          "indexed": true,
          "internalType": "address",
          "name": "receiver",
          "type": "address"
        },
        {
          "indexed": true,
          "internalType": "address",
          "name": "owner",
          "type": "address"
        },
        {
          "indexed": false,
          "internalType": "uint256",
          "name": "assets",
          "type": "uint256"
        },
        {
          "indexed": false,
          "internalType": "uint256",
          "name": "shares",
          "type": "uint256"
        },
        {
          "indexed": false,
          "internalType": "uint256",
          "name": "fee",
          "type": "uint256"
        }
      ],
      "name": "Withdraw",
      "type": "event"
    },
    {
      "anonymous": false,
      "inputs": [
        {
          "indexed": false,
          "internalType": "uint256",
          "name": "withdrawFee",
          "type": "uint256"
        }
      ],
      "name": "WithdrawFeeChanged",
      "type": "event"
    },
    {
      "inputs": [],
      "name": "DEFAULT_ADMIN_ROLE",
      "outputs": [
        {
          "internalType": "bytes32",
          "name": "",
          "type": "bytes32"
        }
      ],
      "stateMutability": "view",
      "type": "function"
    },
    {
      "inputs": [],
      "name": "DEFAULT_DECIMALS",
      "outputs": [
        {
          "internalType": "uint8",
          "name": "",
          "type": "uint8"
        }
      ],
      "stateMutability": "view",
      "type": "function"
    },
    {
      "inputs": [],
      "name": "DEFAULT_DECIMALS_FACTOR",
      "outputs": [
        {
          "internalType": "uint256",
          "name": "",
          "type": "uint256"
        }
      ],
      "stateMutability": "view",
      "type": "function"
    },
    {
      "inputs": [],
      "name": "FEE_DENOMINATOR",
      "outputs": [
        {
          "internalType": "uint256",
          "name": "",
          "type": "uint256"
        }
      ],
      "stateMutability": "view",
      "type": "function"
    },
    {
      "inputs": [],
      "name": "MAX_FEE",
      "outputs": [
        {
          "internalType": "uint256",
          "name": "",
          "type": "uint256"
        }
      ],
      "stateMutability": "view",
      "type": "function"
    },
    {
      "inputs": [],
      "name": "REBALANCER_ROLE",
      "outputs": [
        {
          "internalType": "bytes32",
          "name": "",
          "type": "bytes32"
        }
      ],
      "stateMutability": "view",
      "type": "function"
    },
    {
      "inputs": [],
      "name": "ZUNAMI",
      "outputs": [
        {
          "internalType": "address",
          "name": "",
          "type": "address"
        }
      ],
      "stateMutability": "view",
      "type": "function"
    },
    {
      "inputs": [
        {
          "internalType": "address",
          "name": "owner",
          "type": "address"
        }
      ],
      "name": "_maxWithdrawCached",
      "outputs": [
        {
          "internalType": "uint256",
          "name": "",
          "type": "uint256"
        }
      ],
      "stateMutability": "nonpayable",
      "type": "function"
    },
    {
      "inputs": [
        {
          "internalType": "address",
          "name": "owner",
          "type": "address"
        },
        {
          "internalType": "address",
          "name": "spender",
          "type": "address"
        }
      ],
      "name": "allowance",
      "outputs": [
        {
          "internalType": "uint256",
          "name": "",
          "type": "uint256"
        }
      ],
      "stateMutability": "view",
      "type": "function"
    },
    {
      "inputs": [
        {
          "internalType": "address",
          "name": "owner",
          "type": "address"
        },
        {
          "internalType": "address",
          "name": "spender",
          "type": "address"
        }
      ],
      "name": "allowanceNominal",
      "outputs": [
        {
          "internalType": "uint256",
          "name": "",
          "type": "uint256"
        }
      ],
      "stateMutability": "view",
      "type": "function"
    },
    {
      "inputs": [
        {
          "internalType": "address",
          "name": "spender",
          "type": "address"
        },
        {
          "internalType": "uint256",
          "name": "amount",
          "type": "uint256"
        }
      ],
      "name": "approve",
      "outputs": [
        {
          "internalType": "bool",
          "name": "",
          "type": "bool"
        }
      ],
      "stateMutability": "nonpayable",
      "type": "function"
    },
    {
      "inputs": [],
      "name": "asset",
      "outputs": [
        {
          "internalType": "address",
          "name": "",
          "type": "address"
        }
      ],
      "stateMutability": "view",
      "type": "function"
    },
    {
      "inputs": [],
      "name": "assetPrice",
      "outputs": [
        {
          "internalType": "uint256",
          "name": "",
          "type": "uint256"
        }
      ],
      "stateMutability": "view",
      "type": "function"
    },
    {
      "inputs": [],
      "name": "assetPriceCached",
      "outputs": [
        {
          "internalType": "uint256",
          "name": "",
          "type": "uint256"
        }
      ],
      "stateMutability": "nonpayable",
      "type": "function"
    },
    {
      "inputs": [],
      "name": "assetPriceCachedParams",
      "outputs": [
        {
          "internalType": "uint256",
          "name": "cachedBlock",
          "type": "uint256"
        },
        {
          "internalType": "uint256",
          "name": "cachedAssetPrice",
          "type": "uint256"
        }
      ],
      "stateMutability": "view",
      "type": "function"
    },
    {
      "inputs": [
        {
          "internalType": "address",
          "name": "account",
          "type": "address"
        }
      ],
      "name": "balanceOf",
      "outputs": [
        {
          "internalType": "uint256",
          "name": "",
          "type": "uint256"
        }
      ],
      "stateMutability": "view",
      "type": "function"
    },
    {
      "inputs": [
        {
          "internalType": "address",
          "name": "account",
          "type": "address"
        }
      ],
      "name": "balanceOfNominal",
      "outputs": [
        {
          "internalType": "uint256",
          "name": "",
          "type": "uint256"
        }
      ],
      "stateMutability": "view",
      "type": "function"
    },
    {
      "inputs": [
        {
          "internalType": "uint256",
          "name": "dailyDepositDuration_",
          "type": "uint256"
        },
        {
          "internalType": "uint256",
          "name": "dailyDepositLimit_",
          "type": "uint256"
        }
      ],
      "name": "changeDailyDepositParams",
      "outputs": [],
      "stateMutability": "nonpayable",
      "type": "function"
    },
    {
      "inputs": [
        {
          "internalType": "uint256",
          "name": "dailyWithdrawDuration_",
          "type": "uint256"
        },
        {
          "internalType": "uint256",
          "name": "dailyWithdrawLimit_",
          "type": "uint256"
        }
      ],
      "name": "changeDailyWithdrawParams",
      "outputs": [],
      "stateMutability": "nonpayable",
      "type": "function"
    },
    {
      "inputs": [
        {
          "internalType": "address",
          "name": "feeDistributor_",
          "type": "address"
        }
      ],
      "name": "changeFeeDistributor",
      "outputs": [],
      "stateMutability": "nonpayable",
      "type": "function"
    },
    {
      "inputs": [
        {
          "internalType": "uint256",
          "name": "withdrawFee_",
          "type": "uint256"
        }
      ],
      "name": "changeWithdrawFee",
      "outputs": [],
      "stateMutability": "nonpayable",
      "type": "function"
    },
    {
      "inputs": [
        {
          "internalType": "uint256",
          "name": "value",
          "type": "uint256"
        }
      ],
      "name": "convertToNominal",
      "outputs": [
        {
          "internalType": "uint256",
          "name": "nominal",
          "type": "uint256"
        }
      ],
      "stateMutability": "view",
      "type": "function"
    },
    {
      "inputs": [
        {
          "internalType": "uint256",
          "name": "nominal",
          "type": "uint256"
        }
      ],
      "name": "convertToValue",
      "outputs": [
        {
          "internalType": "uint256",
          "name": "value",
          "type": "uint256"
        }
      ],
      "stateMutability": "view",
      "type": "function"
    },
    {
      "inputs": [],
      "name": "dailyDepositCountingBlock",
      "outputs": [
        {
          "internalType": "uint256",
          "name": "",
          "type": "uint256"
        }
      ],
      "stateMutability": "view",
      "type": "function"
    },
    {
      "inputs": [],
      "name": "dailyDepositDuration",
      "outputs": [
        {
          "internalType": "uint256",
          "name": "",
          "type": "uint256"
        }
      ],
      "stateMutability": "view",
      "type": "function"
    },
    {
      "inputs": [],
      "name": "dailyDepositLimit",
      "outputs": [
        {
          "internalType": "uint256",
          "name": "",
          "type": "uint256"
        }
      ],
      "stateMutability": "view",
      "type": "function"
    },
    {
      "inputs": [],
      "name": "dailyDepositTotal",
      "outputs": [
        {
          "internalType": "uint256",
          "name": "",
          "type": "uint256"
        }
      ],
      "stateMutability": "view",
      "type": "function"
    },
    {
      "inputs": [],
      "name": "dailyWithdrawCountingBlock",
      "outputs": [
        {
          "internalType": "uint256",
          "name": "",
          "type": "uint256"
        }
      ],
      "stateMutability": "view",
      "type": "function"
    },
    {
      "inputs": [],
      "name": "dailyWithdrawDuration",
      "outputs": [
        {
          "internalType": "uint256",
          "name": "",
          "type": "uint256"
        }
      ],
      "stateMutability": "view",
      "type": "function"
    },
    {
      "inputs": [],
      "name": "dailyWithdrawLimit",
      "outputs": [
        {
          "internalType": "uint256",
          "name": "",
          "type": "uint256"
        }
      ],
      "stateMutability": "view",
      "type": "function"
    },
    {
      "inputs": [],
      "name": "dailyWithdrawTotal",
      "outputs": [
        {
          "internalType": "uint256",
          "name": "",
          "type": "uint256"
        }
      ],
      "stateMutability": "view",
      "type": "function"
    },
    {
      "inputs": [],
      "name": "decimals",
      "outputs": [
        {
          "internalType": "uint8",
          "name": "",
          "type": "uint8"
        }
      ],
      "stateMutability": "view",
      "type": "function"
    },
    {
      "inputs": [
        {
          "internalType": "address",
          "name": "spender",
          "type": "address"
        },
        {
          "internalType": "uint256",
          "name": "subtractedValue",
          "type": "uint256"
        }
      ],
      "name": "decreaseAllowance",
      "outputs": [
        {
          "internalType": "bool",
          "name": "",
          "type": "bool"
        }
      ],
      "stateMutability": "nonpayable",
      "type": "function"
    },
    {
      "inputs": [
        {
          "internalType": "uint256",
          "name": "nominal",
          "type": "uint256"
        },
        {
          "internalType": "address",
          "name": "receiver",
          "type": "address"
        }
      ],
      "name": "deposit",
      "outputs": [
        {
          "internalType": "uint256",
          "name": "",
          "type": "uint256"
        }
      ],
      "stateMutability": "nonpayable",
      "type": "function"
    },
    {
      "inputs": [],
      "name": "feeDistributor",
      "outputs": [
        {
          "internalType": "address",
          "name": "",
          "type": "address"
        }
      ],
      "stateMutability": "view",
      "type": "function"
    },
    {
      "inputs": [
        {
          "internalType": "bytes32",
          "name": "role",
          "type": "bytes32"
        }
      ],
      "name": "getRoleAdmin",
      "outputs": [
        {
          "internalType": "bytes32",
          "name": "",
          "type": "bytes32"
        }
      ],
      "stateMutability": "view",
      "type": "function"
    },
    {
      "inputs": [
        {
          "internalType": "bytes32",
          "name": "role",
          "type": "bytes32"
        },
        {
          "internalType": "address",
          "name": "account",
          "type": "address"
        }
      ],
      "name": "grantRole",
      "outputs": [],
      "stateMutability": "nonpayable",
      "type": "function"
    },
    {
      "inputs": [
        {
          "internalType": "bytes32",
          "name": "role",
          "type": "bytes32"
        },
        {
          "internalType": "address",
          "name": "account",
          "type": "address"
        }
      ],
      "name": "hasRole",
      "outputs": [
        {
          "internalType": "bool",
          "name": "",
          "type": "bool"
        }
      ],
      "stateMutability": "view",
      "type": "function"
    },
    {
      "inputs": [
        {
          "internalType": "address",
          "name": "spender",
          "type": "address"
        },
        {
          "internalType": "uint256",
          "name": "addedValue",
          "type": "uint256"
        }
      ],
      "name": "increaseAllowance",
      "outputs": [
        {
          "internalType": "bool",
          "name": "",
          "type": "bool"
        }
      ],
      "stateMutability": "nonpayable",
      "type": "function"
    },
    {
      "inputs": [
        {
          "internalType": "address",
          "name": "",
          "type": "address"
        }
      ],
      "name": "maxDeposit",
      "outputs": [
        {
          "internalType": "uint256",
          "name": "",
          "type": "uint256"
        }
      ],
      "stateMutability": "view",
      "type": "function"
    },
    {
      "inputs": [
        {
          "internalType": "address",
          "name": "owner",
          "type": "address"
        }
      ],
      "name": "maxWithdraw",
      "outputs": [
        {
          "internalType": "uint256",
          "name": "",
          "type": "uint256"
        }
      ],
      "stateMutability": "view",
      "type": "function"
    },
    {
      "inputs": [],
      "name": "name",
      "outputs": [
        {
          "internalType": "string",
          "name": "",
          "type": "string"
        }
      ],
      "stateMutability": "view",
      "type": "function"
    },
    {
      "inputs": [
        {
          "internalType": "uint256",
          "name": "nominal",
          "type": "uint256"
        }
      ],
      "name": "previewDeposit",
      "outputs": [
        {
          "internalType": "uint256",
          "name": "",
          "type": "uint256"
        }
      ],
      "stateMutability": "view",
      "type": "function"
    },
    {
      "inputs": [
        {
          "internalType": "uint256",
          "name": "value",
          "type": "uint256"
        }
      ],
      "name": "previewWithdraw",
      "outputs": [
        {
          "internalType": "uint256",
          "name": "",
          "type": "uint256"
        }
      ],
      "stateMutability": "view",
      "type": "function"
    },
    {
      "inputs": [],
      "name": "priceOracle",
      "outputs": [
        {
          "internalType": "contract IAssetPriceOracle",
          "name": "",
          "type": "address"
        }
      ],
      "stateMutability": "view",
      "type": "function"
    },
    {
      "inputs": [
        {
          "internalType": "bytes32",
          "name": "role",
          "type": "bytes32"
        },
        {
          "internalType": "address",
          "name": "account",
          "type": "address"
        }
      ],
      "name": "renounceRole",
      "outputs": [],
      "stateMutability": "nonpayable",
      "type": "function"
    },
    {
      "inputs": [
        {
          "internalType": "bytes32",
          "name": "role",
          "type": "bytes32"
        },
        {
          "internalType": "address",
          "name": "account",
          "type": "address"
        }
      ],
      "name": "revokeRole",
      "outputs": [],
      "stateMutability": "nonpayable",
      "type": "function"
    },
    {
      "inputs": [
        {
          "internalType": "bytes4",
          "name": "interfaceId",
          "type": "bytes4"
        }
      ],
      "name": "supportsInterface",
      "outputs": [
        {
          "internalType": "bool",
          "name": "",
          "type": "bool"
        }
      ],
      "stateMutability": "view",
      "type": "function"
    },
    {
      "inputs": [],
      "name": "symbol",
      "outputs": [
        {
          "internalType": "string",
          "name": "",
          "type": "string"
        }
      ],
      "stateMutability": "view",
      "type": "function"
    },
    {
      "inputs": [],
      "name": "totalAssets",
      "outputs": [
        {
          "internalType": "uint256",
          "name": "",
          "type": "uint256"
        }
      ],
      "stateMutability": "view",
      "type": "function"
    },
    {
      "inputs": [],
      "name": "totalSupply",
      "outputs": [
        {
          "internalType": "uint256",
          "name": "",
          "type": "uint256"
        }
      ],
      "stateMutability": "view",
      "type": "function"
    },
    {
      "inputs": [],
      "name": "totalSupplyNominal",
      "outputs": [
        {
          "internalType": "uint256",
          "name": "",
          "type": "uint256"
        }
      ],
      "stateMutability": "view",
      "type": "function"
    },
    {
      "inputs": [
        {
          "internalType": "address",
          "name": "to",
          "type": "address"
        },
        {
          "internalType": "uint256",
          "name": "amount",
          "type": "uint256"
        }
      ],
      "name": "transfer",
      "outputs": [
        {
          "internalType": "bool",
          "name": "",
          "type": "bool"
        }
      ],
      "stateMutability": "nonpayable",
      "type": "function"
    },
    {
      "inputs": [
        {
          "internalType": "address",
          "name": "from",
          "type": "address"
        },
        {
          "internalType": "address",
          "name": "to",
          "type": "address"
        },
        {
          "internalType": "uint256",
          "name": "amount",
          "type": "uint256"
        }
      ],
      "name": "transferFrom",
      "outputs": [
        {
          "internalType": "bool",
          "name": "",
          "type": "bool"
        }
      ],
      "stateMutability": "nonpayable",
      "type": "function"
    },
    {
      "inputs": [
        {
          "internalType": "uint256",
          "name": "value",
          "type": "uint256"
        },
        {
          "internalType": "address",
          "name": "receiver",
          "type": "address"
        },
        {
          "internalType": "address",
          "name": "owner",
          "type": "address"
        }
      ],
      "name": "withdraw",
      "outputs": [
        {
          "internalType": "uint256",
          "name": "",
          "type": "uint256"
        }
      ],
      "stateMutability": "nonpayable",
      "type": "function"
    },
    {
      "inputs": [
        {
          "internalType": "address",
          "name": "receiver",
          "type": "address"
        },
        {
          "internalType": "address",
          "name": "owner",
          "type": "address"
        }
      ],
      "name": "withdrawAll",
      "outputs": [
        {
          "internalType": "uint256",
          "name": "",
          "type": "uint256"
        }
      ],
      "stateMutability": "nonpayable",
      "type": "function"
    },
    {
      "inputs": [],
      "name": "withdrawFee",
      "outputs": [
        {
          "internalType": "uint256",
          "name": "",
          "type": "uint256"
        }
      ],
      "stateMutability": "view",
      "type": "function"
    }
  ],
  "bytecode": "0x60a06040523480156200001157600080fd5b50732ffcc661011bec72e1a9524e12060983e74d14ce8060405180604001604052806011815260200170555a44205a756e616d6920537461626c6560781b8152506040518060400160405280600381526020016215569160ea1b81525081600590816200007f919062000278565b5060066200008e828262000278565b5050506001600160a01b0316608052620000aa6000336200011f565b6001600160a01b038116620000f95760405162461bcd60e51b81526020600482015260116024820152705a65726f207072696365206f7261636c6560781b604482015260640160405180910390fd5b601280546001600160a01b0319166001600160a01b039290921691909117905562000344565b6200012b82826200012f565b5050565b60008281526007602090815260408083206001600160a01b038516845290915290205460ff166200012b5760008281526007602090815260408083206001600160a01b03851684529091529020805460ff191660011790556200018f3390565b6001600160a01b0316816001600160a01b0316837f2f8788117e7eff1d82e926ec794901d17c78024a50270940304540a733656f0d60405160405180910390a45050565b634e487b7160e01b600052604160045260246000fd5b600181811c90821680620001fe57607f821691505b6020821081036200021f57634e487b7160e01b600052602260045260246000fd5b50919050565b601f8211156200027357600081815260208120601f850160051c810160208610156200024e5750805b601f850160051c820191505b818110156200026f578281556001016200025a565b5050505b505050565b81516001600160401b03811115620002945762000294620001d3565b620002ac81620002a58454620001e9565b8462000225565b602080601f831160018114620002e45760008415620002cb5750858301515b600019600386901b1c1916600185901b1785556200026f565b600085815260208120601f198616915b828110156200031557888601518255948401946001909101908401620002f4565b5085821015620003345787850151600019600388901b60f8161c191681555b5050505050600190811b01905550565b6080516125e86200037c60003960008181610517015281816107aa015281816111ab015281816116cc015261185001526125e86000f3fe608060405234801561001057600080fd5b50600436106103835760003560e01c8063775728b4116101de578063c5008f461161010f578063da573971116100ad578063ea0d5c521161007c578063ea0d5c5214610764578063ef8b30f71461070c578063f12b59c91461076c578063f171d3721461077f57600080fd5b8063da5739711461070c578063dd62ed3e1461071f578063e7aa5f9814610732578063e941fa781461075b57600080fd5b8063ced9f2fe116100e9578063ced9f2fe146106d4578063d24378eb146106e7578063d547741f146106ef578063d73792a91461070257600080fd5b8063c5008f46146106b0578063cda9109d146106b8578063ce96cb77146106c157600080fd5b8063a457c2d71161017c578063ace687eb11610156578063ace687eb14610678578063b460af9414610681578063bc063e1a14610694578063bcf88d191461069d57600080fd5b8063a457c2d71461063f578063a893c9be14610652578063a9059cbb1461066557600080fd5b806391d14854116101b857806391d148541461061357806395d89b41146106265780639d1abff11461062e578063a217fddf1461063757600080fd5b8063775728b4146105c857806379750c59146105d1578063906f09531461060a57600080fd5b80632e400d59116102b8578063407b99451161025657806359be38121161023057806359be381214610587578063607258a91461059a5780636e553f65146105a257806370a08231146105b557600080fd5b8063407b99451461056157806342d0d51714610569578063490b48f81461057257600080fd5b806336568abe1161029257806336568abe1461050257806338d52e0f14610515578063395093511461053b578063402d267d1461054e57600080fd5b80632e400d59146104bd5780632f2ff15d146104d8578063313ce567146104ed57600080fd5b806309cae2c81161032557806318160ddd116102ff57806318160ddd1461046c57806323b872dd14610474578063248a9ca3146104875780632630c12f146104aa57600080fd5b806309cae2c81461041b5780630a28a4771461042e5780630d43e8ad1461044157600080fd5b806305e99d8b1161036157806305e99d8b146103cf57806306ea482d146103ea57806306fdde03146103f3578063095ea7b31461040857600080fd5b806301e1d1141461038857806301ffc9a7146103a357806305b941cd146103c6575b600080fd5b610390610792565b6040519081526020015b60405180910390f35b6103b66103b13660046120e4565b610822565b604051901515815260200161039a565b61039060115481565b6000546001546040805192835260208301919091520161039a565b610390600f5481565b6103fb610859565b60405161039a9190612132565b6103b6610416366004612181565b6108eb565b6103906104293660046121ab565b610903565b61039061043c3660046121de565b61093e565b600954610454906001600160a01b031681565b6040516001600160a01b03909116815260200161039a565b61039061096b565b6103b66104823660046121f7565b61097a565b6103906104953660046121de565b60009081526007602052604090206001015490565b601254610454906001600160a01b031681565b610454732ffcc661011bec72e1a9524e12060983e74d14ce81565b6104eb6104e6366004612233565b6109ae565b005b60125b60405160ff909116815260200161039a565b6104eb610510366004612233565b6109d8565b7f0000000000000000000000000000000000000000000000000000000000000000610454565b6103b6610549366004612181565b610a5b565b61039061055c366004612256565b610a7d565b600454610390565b610390600b5481565b61039060008051602061259383398151915281565b6104eb610595366004612271565b610a9b565b610390610b05565b6103906105b0366004612233565b610b74565b6103906105c3366004612256565b610bef565b610390600a5481565b6103906105df3660046121ab565b6001600160a01b03918216600090815260036020908152604080832093909416825291909152205490565b610390600e5481565b6103b6610621366004612233565b610c12565b6103fb610c3d565b61039060105481565b610390600081565b6103b661064d366004612181565b610c4c565b6104eb6106603660046121de565b610cd2565b6103b6610673366004612181565b610d6c565b610390600d5481565b61039061068f366004612293565b610d85565b61039061c35081565b6103906106ab3660046121de565b610e01565b6104f0601281565b610390600c5481565b6103906106cf366004612256565b610e0e565b6103906106e2366004612256565b610e19565b610390610e3d565b6104eb6106fd366004612233565b610e87565b610390620f424081565b61039061071a3660046121de565b610eac565b61039061072d3660046121ab565b610eb9565b610390610740366004612256565b6001600160a01b031660009081526002602052604090205490565b61039060085481565b610390610eeb565b6104eb61077a366004612256565b610efa565b6104eb61078d366004612271565b610fa0565b6040516370a0823160e01b81523060048201526000907f00000000000000000000000000000000000000000000000000000000000000006001600160a01b0316906370a0823190602401602060405180830381865afa1580156107f9573d6000803e3d6000fd5b505050506040513d601f19601f8201168201806040525081019061081d91906122cf565b905090565b60006001600160e01b03198216637965db0b60e01b148061085357506301ffc9a760e01b6001600160e01b03198316145b92915050565b606060058054610868906122e8565b80601f0160208091040260200160405190810160405280929190818152602001828054610894906122e8565b80156108e15780601f106108b6576101008083540402835291602001916108e1565b820191906000526020600020905b8154815290600101906020018083116108c457829003601f168201915b5050505050905090565b6000336108f9818585611001565b5060019392505050565b6001600160a01b038116600090815260026020526040812054600061092784610e19565b90506109363386868486611135565b509392505050565b60008061094d3384600061122e565b50905061096461095d8285612338565b6001611294565b9392505050565b600061081d60045460006112c8565b600033816109898460016112f3565b905061099686838661131e565b6109a286868387611398565b50600195945050505050565b6000828152600760205260409020600101546109c981611568565b6109d38383611575565b505050565b6001600160a01b0381163314610a4d5760405162461bcd60e51b815260206004820152602f60248201527f416363657373436f6e74726f6c3a2063616e206f6e6c792072656e6f756e636560448201526e103937b632b9903337b91039b2b63360891b60648201526084015b60405180910390fd5b610a5782826115fb565b5050565b6000336108f9818585610a6e8383611662565b610a78919061234b565b611001565b6000610a87611694565b610a92576000610853565b60001992915050565b6000610aa681611568565b600a839055600b8290556000600e5582610ac1576000610ac3565b435b600f5560408051848152602081018490527f83314fec07237044b65a214f49b821454fa880d5a4477a1a8e811351bc28598f91015b60405180910390a1505050565b600080544314610b6d57436000908155610b1d610e3d565b9050806001541015610b6b57600181905560005460408051918252602082018390527f62dab94e09b78e75a0061bc7dc0cb484f20d08688f8a8b242aab2da8bfc148c5910160405180910390a15b505b5060015490565b6000610b7f82610a7d565b831115610bce5760405162461bcd60e51b815260206004820152601e60248201527f455243343632363a206465706f736974206d6f7265207468616e206d617800006044820152606401610a44565b6000610bd9846116ae565b9050610be7338483876116bb565b509192915050565b6001600160a01b03811660009081526002602052604081205461085390826112c8565b60009182526007602090815260408084206001600160a01b0393909316845291905290205460ff1690565b606060068054610868906122e8565b60003381610c5a8286611662565b905083811015610cba5760405162461bcd60e51b815260206004820152602560248201527f45524332303a2064656372656173656420616c6c6f77616e63652062656c6f77604482015264207a65726f60d81b6064820152608401610a44565b610cc78286868403611001565b506001949350505050565b6000610cdd81611568565b61c350821115610d2f5760405162461bcd60e51b815260206004820152601c60248201527f4269676765722074686174204d41585f46454520636f6e7374616e74000000006044820152606401610a44565b60088290556040518281527fef51b055f1ac1490e0c230364c65b0a9eca534656954023b56053b78461678e4906020015b60405180910390a15050565b6000336108f98185610d7f8660016112f3565b86611398565b6000610d9082610e19565b841115610ddf5760405162461bcd60e51b815260206004820152601f60248201527f455243343632363a207769746864726177206d6f7265207468616e206d6178006044820152606401610a44565b6000610dea8561175a565b9050610df93385858885611135565b949350505050565b6000610853826000611294565b600061085382610bef565b6001600160a01b038116600090815260026020526040812054610853906000611767565b6012546040805163030a011160e21b815290516000926001600160a01b031691630c2804449160048083019260209291908290030181865afa1580156107f9573d6000803e3d6000fd5b600082815260076020526040902060010154610ea281611568565b6109d383836115fb565b60006108538260006112c8565b6001600160a01b03808316600090815260036020908152604080832093851683529290529081205461096490826112c8565b610ef76012600a612442565b81565b6000610f0581611568565b6001600160a01b038216610f525760405162461bcd60e51b81526020600482015260146024820152732d32b937903332b2903234b9ba3934b13aba37b960611b6044820152606401610a44565b600980546001600160a01b0319166001600160a01b0384169081179091556040519081527fae5a12c29e496b092467a620746b9eaf4e0e231a631a4370c233b1fac38e8e2690602001610d60565b6000610fab81611568565b600c839055600d829055600060105582610fc6576000610fc8565b435b60115560408051848152602081018490527f818b604817251fad1f084a1292a7a5ae0d5ed7eb36e5d344ab11370cc5c2fa269101610af8565b6001600160a01b0383166110635760405162461bcd60e51b8152602060048201526024808201527f45524332303a20617070726f76652066726f6d20746865207a65726f206164646044820152637265737360e01b6064820152608401610a44565b6001600160a01b0382166110c45760405162461bcd60e51b815260206004820152602260248201527f45524332303a20617070726f766520746f20746865207a65726f206164647265604482015261737360f01b6064820152608401610a44565b6110cf8160016112f3565b6001600160a01b038481166000818152600360209081526040808320948816808452948252918290209490945551848152919290917f8c5be1e5ebec7d5bd14f71427d1e84f3dd0314c0f7b2291e5b200ac8c7c3b92591015b60405180910390a3505050565b6111428585858585611786565b826001600160a01b0316856001600160a01b0316146111665761116683868461131e565b60008061117487858561122e565b90925090506111838184612338565b925061118f8285612338565b935061119b8282611845565b6111a6858486611881565b6111d17f000000000000000000000000000000000000000000000000000000000000000087856119c7565b60408051858152602081018590529081018390526001600160a01b0380871691888216918a16907fbbbdee62287b5bf3bee13cab60a29ad729cf38109bccbd2a986a11c99b8ca7049060600160405180910390a450505050505050565b600854600090819015801590611259575061125760008051602061259383398151915286610c12565b155b1561128c57600854611272908490620f42406000611a2a565b600854909150611289908590620f42406000611a2a565b91505b935093915050565b600060001983036112a85750600019610853565b6109646112b76012600a612442565b6112bf610e3d565b85919085611a2a565b600060001983036112dc5750600019610853565b6109646112e7610e3d565b6112bf6012600a612442565b600060001983036113075750600019610853565b6109646113166012600a612442565b6112bf610b05565b600061132a8484611662565b9050600019811461139257818110156113855760405162461bcd60e51b815260206004820152601d60248201527f45524332303a20696e73756666696369656e7420616c6c6f77616e63650000006044820152606401610a44565b6113928484848403611001565b50505050565b6001600160a01b0384166113fc5760405162461bcd60e51b815260206004820152602560248201527f45524332303a207472616e736665722066726f6d20746865207a65726f206164604482015264647265737360d81b6064820152608401610a44565b6001600160a01b03831661145e5760405162461bcd60e51b815260206004820152602360248201527f45524332303a207472616e7366657220746f20746865207a65726f206164647260448201526265737360e81b6064820152608401610a44565b6001600160a01b038416600090815260026020526040902054828110156114d65760405162461bcd60e51b815260206004820152602660248201527f45524332303a207472616e7366657220616d6f756e7420657863656564732062604482015265616c616e636560d01b6064820152608401610a44565b6001600160a01b0380861660009081526002602052604080822086850390559186168152908120805485929061150d90849061234b565b92505081905550836001600160a01b0316856001600160a01b03167fddf252ad1be2c89b69c2b068fc378daa952ba7f163c4a11628f55a4df523b3ef8460405161155991815260200190565b60405180910390a35050505050565b6115728133611a87565b50565b61157f8282610c12565b610a575760008281526007602090815260408083206001600160a01b03851684529091529020805460ff191660011790556115b73390565b6001600160a01b0316816001600160a01b0316837f2f8788117e7eff1d82e926ec794901d17c78024a50270940304540a733656f0d60405160405180910390a45050565b6116058282610c12565b15610a575760008281526007602090815260408083206001600160a01b0385168085529252808320805460ff1916905551339285917ff6391f5c32d9c69d2a47ea670b442974b53935d1edc7fd64eb21e047a839171b9190a45050565b6001600160a01b0380831660009081526003602090815260408083209385168352929052908120546109649082611767565b60008061169f610792565b118061081d5750506004541590565b6000610853826000611767565b6116c784848484611aeb565b6116f37f0000000000000000000000000000000000000000000000000000000000000000853084611ba3565b6116fe838284611bdb565b826001600160a01b0316846001600160a01b03167fdcbc1c05240f31ff3ad067ef1ee35ce4997762752e3a095284754544f4c709d7848460405161174c929190918252602082015260400190565b60405180910390a350505050565b60006108538260016112f3565b6000600019830361177b5750600019610853565b6109646112e7610b05565b6000600c541180156117ad57506117ab60008051602061259383398151915286610c12565b155b1561183e57600c546011546117c2919061234b565b4311156117d3576000601055436011555b81601060008282546117e5919061234b565b9091555050600d54601054111561183e5760405162461bcd60e51b815260206004820152601d60248201527f4461696c79207769746864726177206c696d6974206f766572666c6f770000006044820152606401610a44565b5050505050565b8115610a5757610a577f00000000000000000000000000000000000000000000000000000000000000006009546001600160a01b0316846119c7565b6001600160a01b0383166118e15760405162461bcd60e51b815260206004820152602160248201527f45524332303a206275726e2066726f6d20746865207a65726f206164647265736044820152607360f81b6064820152608401610a44565b6001600160a01b038316600090815260026020526040902054828110156119555760405162461bcd60e51b815260206004820152602260248201527f45524332303a206275726e20616d6f756e7420657863656564732062616c616e604482015261636560f01b6064820152608401610a44565b6001600160a01b0384166000908152600260205260408120848303905560048054859290611984908490612338565b90915550506040518281526000906001600160a01b038616907fddf252ad1be2c89b69c2b068fc378daa952ba7f163c4a11628f55a4df523b3ef9060200161174c565b6040516001600160a01b0383166024820152604481018290526109d390849063a9059cbb60e01b906064015b60408051601f198184030181529190526020810180516001600160e01b03166001600160e01b031990931692909217909152611cb3565b600080611a38868686611d85565b90506001836002811115611a4e57611a4e612451565b148015611a6b575060008480611a6657611a66612467565b868809115b15611a7e57611a7b60018261234b565b90505b95945050505050565b611a918282610c12565b610a5757611aa9816001600160a01b03166014611e34565b611ab4836020611e34565b604051602001611ac592919061247d565b60408051601f198184030181529082905262461bcd60e51b8252610a4491600401612132565b6000600a54118015611b125750611b1060008051602061259383398151915285610c12565b155b1561139257600a54600f54611b27919061234b565b431115611b38576000600e5543600f555b81600e6000828254611b4a919061234b565b9091555050600b54600e5411156113925760405162461bcd60e51b815260206004820152601c60248201527f4461696c79206465706f736974206c696d6974206f766572666c6f77000000006044820152606401610a44565b6040516001600160a01b03808516602483015283166044820152606481018290526113929085906323b872dd60e01b906084016119f3565b6001600160a01b038316611c315760405162461bcd60e51b815260206004820152601f60248201527f45524332303a206d696e7420746f20746865207a65726f2061646472657373006044820152606401610a44565b8160046000828254611c43919061234b565b90915550506001600160a01b03831660009081526002602052604081208054849290611c7090849061234b565b90915550506040518181526001600160a01b038416906000907fddf252ad1be2c89b69c2b068fc378daa952ba7f163c4a11628f55a4df523b3ef90602001611128565b6000611d08826040518060400160405280602081526020017f5361666545524332303a206c6f772d6c6576656c2063616c6c206661696c6564815250856001600160a01b0316611fd09092919063ffffffff16565b8051909150156109d35780806020019051810190611d2691906124f2565b6109d35760405162461bcd60e51b815260206004820152602a60248201527f5361666545524332303a204552433230206f7065726174696f6e20646964206e6044820152691bdd081cdd58d8d9595960b21b6064820152608401610a44565b6000808060001985870985870292508281108382030391505080600003611dbf57838281611db557611db5612467565b0492505050610964565b808411611dcb57600080fd5b60008486880960026001871981018816978890046003810283188082028403028082028403028082028403028082028403028082028403029081029092039091026000889003889004909101858311909403939093029303949094049190911702949350505050565b60606000611e43836002612514565b611e4e90600261234b565b67ffffffffffffffff811115611e6657611e66612533565b6040519080825280601f01601f191660200182016040528015611e90576020820181803683370190505b509050600360fc1b81600081518110611eab57611eab612549565b60200101906001600160f81b031916908160001a905350600f60fb1b81600181518110611eda57611eda612549565b60200101906001600160f81b031916908160001a9053506000611efe846002612514565b611f0990600161234b565b90505b6001811115611f81576f181899199a1a9b1b9c1cb0b131b232b360811b85600f1660108110611f3d57611f3d612549565b1a60f81b828281518110611f5357611f53612549565b60200101906001600160f81b031916908160001a90535060049490941c93611f7a8161255f565b9050611f0c565b5083156109645760405162461bcd60e51b815260206004820181905260248201527f537472696e67733a20686578206c656e67746820696e73756666696369656e746044820152606401610a44565b6060610df98484600085856001600160a01b0385163b6120325760405162461bcd60e51b815260206004820152601d60248201527f416464726573733a2063616c6c20746f206e6f6e2d636f6e74726163740000006044820152606401610a44565b600080866001600160a01b0316858760405161204e9190612576565b60006040518083038185875af1925050503d806000811461208b576040519150601f19603f3d011682016040523d82523d6000602084013e612090565b606091505b50915091506120a08282866120ab565b979650505050505050565b606083156120ba575081610964565b8251156120ca5782518084602001fd5b8160405162461bcd60e51b8152600401610a449190612132565b6000602082840312156120f657600080fd5b81356001600160e01b03198116811461096457600080fd5b60005b83811015612129578181015183820152602001612111565b50506000910152565b602081526000825180602084015261215181604085016020870161210e565b601f01601f19169190910160400192915050565b80356001600160a01b038116811461217c57600080fd5b919050565b6000806040838503121561219457600080fd5b61219d83612165565b946020939093013593505050565b600080604083850312156121be57600080fd5b6121c783612165565b91506121d560208401612165565b90509250929050565b6000602082840312156121f057600080fd5b5035919050565b60008060006060848603121561220c57600080fd5b61221584612165565b925061222360208501612165565b9150604084013590509250925092565b6000806040838503121561224657600080fd5b823591506121d560208401612165565b60006020828403121561226857600080fd5b61096482612165565b6000806040838503121561228457600080fd5b50508035926020909101359150565b6000806000606084860312156122a857600080fd5b833592506122b860208501612165565b91506122c660408501612165565b90509250925092565b6000602082840312156122e157600080fd5b5051919050565b600181811c908216806122fc57607f821691505b60208210810361231c57634e487b7160e01b600052602260045260246000fd5b50919050565b634e487b7160e01b600052601160045260246000fd5b8181038181111561085357610853612322565b8082018082111561085357610853612322565b600181815b8085111561239957816000190482111561237f5761237f612322565b8085161561238c57918102915b93841c9390800290612363565b509250929050565b6000826123b057506001610853565b816123bd57506000610853565b81600181146123d357600281146123dd576123f9565b6001915050610853565b60ff8411156123ee576123ee612322565b50506001821b610853565b5060208310610133831016604e8410600b841016171561241c575081810a610853565b612426838361235e565b806000190482111561243a5761243a612322565b029392505050565b600061096460ff8416836123a1565b634e487b7160e01b600052602160045260246000fd5b634e487b7160e01b600052601260045260246000fd5b7f416363657373436f6e74726f6c3a206163636f756e74200000000000000000008152600083516124b581601785016020880161210e565b7001034b99036b4b9b9b4b733903937b6329607d1b60179184019182015283516124e681602884016020880161210e565b01602801949350505050565b60006020828403121561250457600080fd5b8151801515811461096457600080fd5b600081600019048311821515161561252e5761252e612322565b500290565b634e487b7160e01b600052604160045260246000fd5b634e487b7160e01b600052603260045260246000fd5b60008161256e5761256e612322565b506000190190565b6000825161258881846020870161210e565b919091019291505056feccc64574297998b6c3edf6078cc5e01268465ff116954e3af02ff3a70a730f46a26469706673582212201684dff6f0c522430342cb69e9a315f1ca8a980e61ef73ec46fc167e2d293c4d64736f6c63430008100033",
  "linkReferences": {},
  "deployedLinkReferences": {}
}